:0600000002008B0206FB6A
:01000B0032C2
:0100130032BA
:01001B0032B2
:0100230032AA
:01002B0032A2
:01003300329A
:01003B003292
:01004300328A
:03004B00020CDBC9
:01005300327A
:01005B003272
:01006300326A
:01006B003262
:01007300325A
:01007B003252
:030083000209036C
:0300F50002008680
:0500860012026D80FE76
:1000F80090F000E4F0A3F0A3F0A3F002033112178C
:1001080077E50A605390F411740DF0E50A30E44580
:1001180090F004E0FFB40100E433FF2409FDE43467
:10012800F4FE8D828E83E0702CB2A390F000E02460
:1001380001F0A3E03400F0A3E03400F0A3E03400C1
:10014800F0C007121971D007EF2409F582E434F4DE
:10015800F5837401F0750A0022753A42753B2E75D5
:100168003C8075390075820002103A90DF2FE4F068
:1001780090DF30F090DF31F090DF00740CF090DF0A
:1001880001744EF090DF0274FFF090DF037420F0EA
:1001980090DF04E4F090DF05F090DF06F090DF09CF
:1001A8007421F090DF0A7465F090DF0B746AF090A8
:1001B800DF077406F090DF08E4F090DF0C74CAF0F3
:1001C80090DF0D7483F090DF0E7404F090DF0F74ED
:1001D80023F090DF107411F090DF117435F090DF88
:1001E800127407F090DF13743FF090DF147418F066
:1001F80090DF157416F090DF16746CF090DF1774AA
:1002080043F090DF187440F090DF197491F090DF9C
:100218001A7456F090DF1B7410F090DF1C74E9F02C
:1002280090DF1D742AF090DF1EE4F090DF1F741F2A
:10023800F090DF237481F090DF247435F090DF258F
:100248007409F090DF2E7450F0748EF090DF09740A
:1002580022F090DF0A74B1F090DF0B743BF02212A9
:100268000C72020C9E120267122820120D02120F45
:1002780031D2A490012C120B41C2A490012C120B74
:10028800411203AC1200F8121337D2AF121BAA1294
:04029800010680F8E3
:102E4200494D4D4520534E4946462076302E31009D
:10029C00122A94AC82AD83AEF0FFC004C005C00638
:1002AC00C0079037BD75F086743D12297BAC82ADCA
:1002BC0083AEF0FFE58124FCF581E4C0E0C0E0747E
:1002CC00D0C0E07441C0E08C828D838EF0EF122D93
:1002DC0014AC82AD83AEF0FFE58124FCF5818C82F9
:1002EC008D838EF0EF122AA7AC82AD83AEF090DF37
:1002FC0009EEF08D0390DF0AEBF090DF0BECF022AF
:10030C0075E10490DF3BE0FFBF01F890F40BE0F5E2
:10031C00E190F40BE0FFBF04012290DF3BE0FFBF54
:10032C00010280ED2290F40BE0FFBF02012290DF6E
:10033C0013E054F0F0E0440FF090F40B7402F00270
:10034C0006A090F40BE0FFBF03012290DF13E054F2
:10035C00F0F0E0FF440AF090F40B7403F075E10345
:10036C0090DF3BE0FFBF13F82290F40BE0FFBF04DB
:10037C00012290DF13E054F0F0AF915307EF8F910F
:10038C0075E10490DF3BE0FFBF01F8AF9B5307FC26
:10039C008F9BAFE95307EF8FE990F40B7404F022B5
:1003AC0090F40EE4F0A3F090F405F0A3E4F090F4D4
:1003BC0007F0A3E4F053C6C7759D00859E9E439E2F
:1003CC000485A9A943B90190F40B7404F07552008B
:1003DC0075530075540490F00575F000122A7512CF
:1003EC000173D2A87591D175E900750A00439A0181
:1003FC0075E10490DF3BE0FFBF01F8227E007F0037
:10040C00C3EE94DCEF9405502490DF3CE0FD545097
:10041C00600490000122900032C007C006120B69E4
:10042C00D006D00774322EFEE43FFF80D39000003C
:10043C002285821185831290F410E4F090DF02E0A3
:10044C00FD90DF3BE0FCBC1304B2A480F4C2A4908A
:10045C00F462E4F090F458E50DF0A3E50EF090F49E
:10046C005EE50FF0A3E510F090F45AE50BF0A3E570
:10047C000CF090F45CE50BC3950FF0E50C9510A314
:10048C00F090F45CE0FBA3E0FC850D52850E538BE1
:10049C00828C83C005122AF9AB82AC83D00590F410
:1004AC0060EB250BF0EC350CA3F0E50B450C704024
:1004BC00851182851283E0FB7C008B0B8C0C90DF0A
:1004CC0004E0FA530203BA00028014BA010280035A
:1004DC0002056574012BF50BE43CF50C0205650572
:1004EC0011E4B51102051290DF02E50BF00205656F
:1004FC0090DF04E0FC530403BC00028028BC0159CB
:10050C00850B52850C5375540175550085118285E8
:10051C001283C005120B0CD005AC0B851182851211
:10052C0083ECF08034E50D450E7004E50C602490EE
:10053C00F460E0FBA3E090DF02EBF090DF04E0540A
:10054C00FCF0E0FC90DF0474024CF090F462740157
:10055C00F0800690DF02E50BF0D2A890F463E0FC8B
:10056C0020E30302065290DF04E0FC530403BC01B9
:10057C000690F4107401F090F410E0FC2511F58253
:10058C00E43512F583850B52850C53C005C004125B
:10059C000E33AA82AB83D004D00590F463E0F953F8
:1005AC000104B90433EC2511F8E43512F990F46325
:1005BC00E0FF74F05FF52D8829892A8A2B8B2C8813
:1005CC00828983C005C004C003C002120E5AD00237
:1005DC00D003D004D0058031EC2511FEE43512FF98
:1005EC0090F463E0F974F059F5328E2E8F2F8A3027
:1005FC008B318E828F83C005C004C003C002120EE3
:10060C006FD002D003D004D005EC602290F463E0EC
:10061C00FF5307F0BF500B8511828512837410F0C5
:10062C0080248A07851182851283EFF0801890F45C
:10063C0063E0FF5307F0BF500890DF027410F080A6
:10064C000590DF02EAF085110885120990F456E452
:10065C00F0A3F075E1037E607FEA90DF3BE0FCBC29
:10066C001302800D1EBEFF011FEE4F6004B2A4806A
:10067C00E9D2A4EE4F700690F4127413F090DF3BA5
:10068C00E0FFBF1304B2A480F4C2A490DF02EDF02B
:10069C0075820122D2A875520075530075540290D0
:1006AC00F00575F000122A7590F405E4F0A3F090B3
:1006BC00F407F0A3E4F090F409F090F40A7401F05C
:1006CC0090F004E4F0AF9B5307FC8F9BAFE953070A
:1006DC00EF8FE975E10290DF3BE0FFBF0DF843912E
:1006EC00102290F4647401F02290F464E4F022C0BF
:1006FC00E0C082C083C007C006C005C004C003C0F0
:10070C0002C001C000C0D075D00090F4117411F07B
:10071C00C28990DF3BE0FFBF0D02800302082ED29E
:10072C00A490F451E0FF602790F452E0FEA3E0FFA8
:10073C0090F452E024FFFCA3E034FFFD90F452EC63
:10074C00F0A3EDF0EF700890DF04E054FCFFF090A4
:10075C00F40B7402F090F004E025E0FEE42405FFB5
:10076C00EE34F0FE90F004E025E02405FDE434F4D2
:10077C00FC8D828C83E0FAA3E0FB74012AF8E43B45
:10078C00F98D828C83E8F0A3E9F0EA2FF582EB3E39
:10079C00F583E5D9F090F004E025E02405F582E43A
:1007AC0034F4F583E0FEA3E0FF54FE701790F004E0
:1007BC00E025E02405F582E434F4F583E0FEA3E0C3
:1007CC00FF4E701790F004E025E0FF2405F582E45D
:1007DC0034F4F58374FFF0A37401F090F452E0FE4E
:1007EC00A3E0FF4E60030208EA90F451E0FF7003AF
:1007FC000208EA90F454E0FEA3E0FF90F452EEF00D
:10080C00A3EFF090F452E0FEA3E090DF02EEF09044
:10081C00DF04E054FCF0E0FF90DF0474024FF002C0
:10082C0008EA90DF3BE0FFBF130280030208EA9066
:10083C00F462E0FF70030208C390F456E0FEA3E0FC
:10084C00FF90F45AE0FCA3E0FDEEB50443EFB505D0
:10085C003F90F458E0FEA3E0FF4E603490F458E073
:10086C00FEA3E0FFBEFF05BF0002801490F458E029
:10087C0024FFFEA3E034FFFF90F458EEF0A3EFF05A
:10088C0090F45EE0FEA3E0FF90F456EEF0A3EFF0E0
:10089C0090F460E0FEA3E0FF90F460E024FFFCA382
:1008AC00E034FFFD90F460ECF0A3EDF0EF700890F5
:1008BC00DF04E054FCFFF090F40B7403F090F4565A
:1008CC00E0FEA3E0FF90F456E02401F0A3E0340036
:1008DC00F0EE2508F582EF3509F583E0F5D9D0D097
:1008EC00D000D001D002D003D004D005D006D00760
:1008FC00D083D082D0E032C020C0E0C0F0C082C033
:10090C0083C007C006C005C004C003C002C001C03C
:10091C0000C0D075D0007F0090F4117410F0AE9B25
:10092C005306FC8E9BE5E9420AE5E930E02090F4A1
:10093C000CE0FDA3E08D067D00AB9C7C0090F40EDA
:10094C00ED4BF0EE4CA3F0AEE95306FE8EE9E5E973
:10095C0054707003020ABD90F40BE0FEBE030AAEA5
:10096C000A53068F8E0A020AB690F004E0FEB40118
:10097C0000E4332409F582E434F4F583E0FEBE018F
:10098C00028003020A9690F463E0FE20E103020A5F
:10099C007190DF04E0FE530603BE01027F0190F468
:1009AC0063E0FE530601BE016090F004E025E0FD1B
:1009BC00E42405FEED34F0FD8F037C00EB2EFEEC01
:1009CC003DFD90F004E0F929FAE42405F9EA34F04D
:1009DC00FAEB29F529EC3AF52A90F004E025E0240D
:1009EC0005F582E434F4F583E0F9A3E0FAE9C39B5E
:1009FC00F52BEA9CF52C90F463E0FC74F05CF52D7F
:100A0C008E828D83120E5A805C90F004E025E0FDFE
:100A1C00E42405FEED34F0FD7C00EF2EFEEC3DFDF4
:100A2C0090F004E025E0FAE42405FBEA34F0FAEF58
:100A3C002BF52EEC3AF52F90F004E025E02405F58B
:100A4C0082E434F4F583E0FAA3E0FBEAC39FF530CB
:100A5C00EB9CF53190F463E0FF74F05FF5328E821D
:100A6C008D83120E6F90F004E06401F090F004E0BE
:100A7C0025E0FF2405F582E434F4F583E4F0A3F0DB
:100A8C0090F409F090F40AF0801E90F4127412F0B5
:100A9C00B2A490F004E025E0FF2405F582E434F4E0
:100AAC00F583E4F0A3F0B2A4C2A4AFE95307CF8F4F
:100ABC00E9E5E930E61490F4127410F0B2A41203D4
:100ACC000CB2A4AFE95307BF8FE9E5E930E7149006
:100ADC00F4127411F0B2A412030CB2A4AFE95307D0
:100AEC007F8FE9D0D0D000D001D002D003D004D079
:100AFC0005D006D007D083D082D0F0D0E0D0203201
:100B0C00AE82AF83AC52AD538C028D031CBCFF0183
:100B1C001DEA4B601FE5542CFAE5553DFBEA2EFA15
:100B2C00EB3FFBEC2EF582ED3FF583E0F98A828BEF
:050B3C0083F080D422CB
:1034150000000000000000000000000000000000A7
:0434250000000000A3
:100B4100AE82AF831EBEFF011FC3E49EE464808FAB
:100B5100F063F08095F0500F7CB07D041CBCFF0168
:100B61001DEC4D70F780DD22AE82E583CE25E0CE0F
:100B710033FF1EBEFF011FC3E49EE464808FF06358
:100B8100F08095F040EC22AE82AF83D2A49003E8CE
:100B9100C007C006120B41C2A49001F4120B41D050
:100BA10006D0071513AD13ED20E754EE30E0249085
:100BB1000019C007C006C005120B41D2A49002263D
:100BC100120B41C2A4900019120B41D005D006D0DE
:100BD100078022900113C007C006C005120B41D245
:100BE100A4900032120B41C2A4900113120B41D008
:100BF10005D006D007EFC313CE13CEFF1D80A8C2C8
:100C0100A49003E8020B41AD82AE83AFF0AA52ABD0
:100C110053AC54A855A956E849600575580180039D
:100C2100755800E5586046C000C0018D828E838FE3
:100C3100F0122DDFF98A828B838CF0122DDFF8E917
:100C4100C398F557D001D000E5576010E557F55925
:100C51003395E0F55A855982855A83220DBD0001ED
:100C61000E0ABA00010B18B8FF011980AA90000002
:100C710022AFBE5307FB8FBEE5BE30E6FBAFC653C6
:100C810007B88FC6E5C620E6FB43BE04E5BE30E6E5
:100C9100FB53C6C743E40C43E401D2B922AF9A53D4
:100CA10007DF8F9AA2AFE433F452A8120F3C120F60
:100CB10049120F6D758200120FF3C2847582001202
:100CC1000FFF121026753A52753B2E753C8075390F
:100CD1000075820012103AD28422C0E0C082C08323
:100CE100C0D090F413E02401F0A3E03400F0A3E0BD
:100CF1003400F0A3E03400F0D0D0D083D082D0E033
:010D010032BF
:102E5200494D4D4520534E4946462076302E31008D
:100D020012284A8582258525F005F0740180022586
:100D1200E0D5F0FBF526E525C40354F82439F52186
:100D2200E434F4F522852182852283A3A374DFF0C3
:100D3200852182852283A3A3A374B1F085218285B4
:100D42002283A3A3A3A3A37410F085218285228307
:100D5200A3A3A3A3A3A3E054E0441DF085218285AD
:100D62002283A3A3A3A3A3A3A3E0543F4440F085FB
:100D72002182852283A3A3A3A3A3A3A3E054FC44BB
:100D820001F012284A8582278527F005F074018038
:100D92000225E0D5F0FBF528E527C40354F82439F1
:100DA200F523E434F4F52485238285248374DFF06B
:100DB200852382852483A374B2F0852382852483CC
:100DC200A3A3A3A3A37410F0852382852483A3A3E2
:100DD200A3A3A3A3E054E0441EF0852382852483C9
:100DE200A3A3A3A3A3A3A3E054CF4410F08523821B
:100DF200852483A3A3A3A3A3A3A3E054FC4401F0EB
:100E020022AE82AF83E5B330E3FB85218285228364
:100E12008F05EDF0852182852283A37F00EEF0E528
:100E22002642D6E55245534401F5B3E5B330E3FB20
:100E320022AE82AF83AC52AD53EC540F60158C02DC
:100E42008D030CBC00010DEA2EF582EB3FF583E425
:100E5200F080E68C828D8322852952852A53852B48
:100E620054852C55755600852D57020E84852E52B9
:100E7200852F538530548531557556028532570278
:100E82000E84858258858359E5B330E3FBE554240B
:100E9200F0FCE55534FFFD74505557FBE5564557B8
:100EA2004401FA74014556F9E4F55AF55BC3E55A73
:100EB2009554E55B9555400122C002852182852229
:100EC20083E55A2558FEE55B3559FF8E008F028A6D
:100ED20000E8F0852182852283A3EEF085238285B6
:100EE2002483A3A3E55A2552FEE55B3553FF8E000A
:100EF2008F028A00E8F0852382852483A3A3A37F3F
:100F020000EEF0E528452642D6D002EB600CECB5A7
:100F12005A08EDB55B0489B380028AB3E5B330E3C6
:0F0F2200FB7410255AF55AE4355BF55B020EAFF0
:0C00E4007533007534017535037536075F
:100F310090F418E4F0A3F02202000043F32843FDEB
:100F41001443FE0275FF182275860075C2AA75C585
:100F510030228582C1E58630E1FBAF865307FD8FE4
:100F61008622D282020F53C282020F53C291900095
:100F710001120B41D291C2847582E2120F6875820F
:100F810024120F68758281120F68758260120F68D2
:100F91007582E6120F68758200120F6875822F1232
:100FA1000F687582A1120F687582AF120F68758282
:100FB100A4120F68758200120FFFD284227582ACD1
:100FC100120F687582AE120F687582A5020F68AFA5
:100FD1008274B02FF582120F68740F5538F58212A2
:100FE1000F68E538C4540FFF740F5F2410F58202B7
:100FF1000F68AF82743F5F4440F582020F68AF8291
:1010010074015F44A6F582020F68753800120FD093
:101011007F84758200C007120F63D0078F061E8E72
:1010210007EF70EE227F00BF0900500C8F82C007CE
:1010310012100BD0070F80EF22AF82853A82853BD9
:1010410083853CF0C007122CFCAD82AE83D007EF44
:1010510024F7500122E53975F006A4F5388F82C0D6
:1010610005120FD0D005AC3AAE3BAF3C8D031DEB62
:1010710060268C828E838FF0122DDFFBA3AC82AEB3
:10108100838B82C007C006C005C0041227A2D0040A
:10109100D005D006D00780D422AF82E4FBFCFDFE50
:1010A100EF24F7500122E53D75F006A4F5388F8253
:1010B100C006C005C004C003120FD0D003D004D0B5
:1010C10005D006754200E53E453F45404541700368
:1010D10002115F8B528C538D548E5590000AE4F5AA
:1010E100F0122B16AB82AC83ADF0FE75520AE4F51B
:1010F10053F554F555853E82853F838540F0E541A2
:10110100C006C005C004C003122893A882A983AAFF
:10111100F0FFD003D004D005D006E82BFBE93CFC5E
:10112100EA3DFDEF3EFE75520AE4F553F554F555DF
:10113100853E82853F838540F0E541C006C005C0FC
:1011410004C00312291685823E85833F85F040F550
:1011510041D003D004D005D00605420210C7E542B4
:1011610060027401FA604D75520AE4F553F554F5C5
:10117100558B828C838DF0EEC006C005C004C00380
:10118100122893A882743028F5821227A2D003D0A6
:1011910004D005D00675520AE4F553F554F5558B84
:1011A100828C838DF0EE122916AB82AC83ADF0FEFA
:1011B100154280AA22AF82E4FDFEEF24F7500122FE
:1011C100E54375F006A4F5388F82C006C005120FFD
:1011D100D0D005D0067F00E544454560538D528E41
:1011E1005390000AC007122AF9AD82AE8375520AE4
:1011F100755300854482854583C006C005122B8442
:10120100AB82AC83D005D006EB2DFDEC3EFE7552D2
:101211000A755300854482854583C006C00512289E
:101221006A858244858345D005D006D0070F80A703
:10123100EF60027401FC603775520A7553008D82AC
:101241008E83C007C006C005122B84AB8274302B7D
:10125100F5821227A2D005D00675520A7553008D6A
:10126100828E8312286AAD82AE83D0071F80C1228D
:10127100E582FF24F7500122E54675F006A4F53812
:101281008F82120FD07F048F061FEE604774F055D6
:1012910048C4540FFD7E00C3ED940AEE9400501033
:1012A1008D0474302CF582C0071227A2D007800C60
:1012B10074372DF582C0071227A2D007E548C45420
:1012C100F0C547C4C5476547C54754F0C54765479D
:1012D100F54880B322AF8253077FC3EF648094A0A7
:1012E1004053EF24E0C2D575F00530E704B2D5F4E0
:1012F10004A430D50AF42401C5F0F43400C5F0FE8D
:10130100AFF07D00BD05005026EE2462FBEF342EC8
:10131100FCED2BF582E43CF583E493F582C007C034
:1013210006C005120F63D005D006D0070D80D57514
:101331008200020F632222AF8290DF0EE0FE53068D
:101341008FEFC454F090DF0E4EF022E53775F003B5
:10135100A4F5F090304C93FDA3E5F093FEA3E5F0E6
:1013610093FF8D828E838FF022AF8290DF0EE0FE9D
:101371005306F874075F90DF0E4EF022858249858F
:10138100834A85F04BF54C7B007A00BA0400400398
:101391000214488AF005F0780179008006E828F8FF
:1013A100E933F9D5F0F78852E9F5533395E0F5546F
:1013B100F555854982854A83854BF0E54CC002127B
:1013C1002B16122A94AC82AD83AEF0FFC004C00587
:1013D100C006C007900000E4F5F0744112297BAC0F
:1013E10082AD83AEF0FFE58124FCF581C004C00528
:1013F100C006C007905D4075F0C6744B122D14AC49
:1014010082AD83AEF0FFE58124FCF581E4C0E0C04C
:10141100E07460C0E074C0C0E08C828D838EF0EF18
:10142100122BD1AC82AD83AEF0FFE58124FCF581B6
:101431008C828D838EF0EF122DD7AB82D002BB044C
:101441000040040A02138C90DF0CE0FF53070FEAFF
:10145100030354C04207EBC454F090DF0C4FF02259
:1014610090DF0CE0FFE4A2E7CF33CF33A2E7CF3325
:10147100CF33CF54035307037E0090DF0CE0FDE42C
:10148100CDC4540F6DCD540FCD6DCD5305037C00EC
:101491008D828C83A3A3A3A3C007C006122C7CAAB0
:1014A10082AB83ACF0FDC002C003C004C005900054
:1014B10000E4F5F0744112297BAA82AB83ACF0FD04
:1014C100E58124FCF581D006D0078FF005F090006E
:1014D10001800BE5822582F582E58333F583D5F022
:1014E100F2C005C004C003C002122C7CA882A983EB
:1014F100AEF0FFD002D003D004D005C000C001C0BF
:1015010006C0078A828B838CF0ED12297BAC82ADF9
:1015110083AEF0FFE58124FCF5818C828D838EF012
:10152100EF122C88AE82AF838E528F5375540075A3
:10153100550090BA8075F08C7401022C2A85824D79
:1015410085834E85F04FF550780079007A007B0055
:1015510075510074F0255150030215FA8551F005BB
:10156100F07D017E008006ED2DFDEE33FED5F0F716
:101571008D52EEF5533395E0F554F555854D828541
:101581004E83854FF0E550122916122A94AC82AD94
:1015910083AEF0FFC004C005C006C0079030E975F6
:1015A100F025744112297BAC82AD83AEF0FFE58159
:1015B10024FCF581E4C0E07480C0E0747FC0E07475
:1015C100C3C0E08C828D838EF0EF122BD1AC82AD43
:1015D10083AEF0FFE58124FCF5818C828D838EF052
:1015E100EF122AA7A882A983AAF0FBE97006EA7084
:1015F10003EB6005055102155490DF0CE0FF74F018
:101601005F90DF0C4551F090DF0DE8F02290DF0C88
:10161100E0FF53070F90DF0DE0FE8FF005F07F0133
:101621007D008006EF2FFFED33FDD5F0F7ED33950B
:10163100E0FCFB7A0074012AFA8E52EAF5533395E5
:10164100E0F554F5558F828D838CF0EB122B161239
:101651002A94A882A983AAF0FEC000C001C002C0DA
:1016610006905D4075F0C6743D12297BA882A9835E
:10167100AAF0FEE58124FCF581888289838AF0EE57
:10168100022AA70537E53724FC5003753700E537F3
:101691002433F98782021338E537700575370380E3
:1016A100021537E5372433F98782021338122A9459
:1016B100AC82AD83AEF0FFC004C005C006C0079088
:1016C10030E975F025743B12297BAC82AD83AEF015
:1016D100FFE58124FCF5818C828D838EF0EF122A47
:1016E100A7AC82AD83AEF08E0390DF09EBF08D03E2
:1016F10090DF0AEBF090DF0BECF02290DF09E0FFC6
:101701007E007D008D048E058F067F0090DF0AE04C
:10171100F8E4F9FAFBE82FFFE93EFEEA3DFDEB3C78
:101721008D048E058F067F0090DF0BE0F8E4F9FA57
:10173100FBE82FFFE93EFEEA3DFDEB3C8F828E8305
:101741008DF0122A94A882A983AAF0FBC000C001DF
:10175100C002C003905D4075F0C6744312297BA896
:1017610082A983AAF0FBE58124FCF5818882898323
:101771008AF0EB022AA7C28490DF3BE0FF8F477516
:101781004800754600758207121271850A4775482F
:101791000075460A758207121271D28422C2841220
:1017A1001026753A58753B30753C80753900758245
:1017B1000112103A753A5C753B30753C8075390001
:1017C10075820212103A753A5F753B30753C80752F
:1017D100390075820312103A753A63753B30753CD6
:1017E1008075390075820412103A753A68753B307C
:1017F100753C8075390075820512103A753A6F751E
:101801003B30753C8075390075820612103A753A85
:1018110075753B30753C8075390675820112103A39
:101821001216FCAC82AD83AEF0FF753D068C3E8D89
:101831003F8E408F4175820112109A90DF06E0FBC6
:101841008B47754800754606758202121271121394
:101851004C85823A85833B85F03C75390675820358
:1018610012103A12160EAC82AD83AEF0FF753A80BB
:10187100753B30753C80753906758204C007C0061A
:10188100C005C00412103AD004D005D006D00775A7
:101891003D068C3E8D3F8E408F4175820412109A19
:1018A100753A80753B30753C807539087582051233
:1018B100103A121461AC82AD83AEF0FF753A7575C2
:1018C1003B30753C80753908758205C007C006C07C
:1018D10005C00412103AD004D005D006D007753DDA
:1018E100088C3E8D3F8E408F4175820512109A9073
:1018F100DF0CE0FF8F4775480075460F75820412B3
:10190100127190DF0DE0FF8F4775480075460F7526
:10191100820512127190DF0EE0FF8F477548007546
:10192100460F75820612127190DF0EE0FF540360BC
:101931001F90DF00E0FE7F0090DF01E07C004FF5AB
:1019410047EC4EF5487546067582061212718012F3
:10195100753A89753B30753C80753906758206127A
:10196100103AD28422C284121026120161D284223A
:1019710090F004E0FFB40100E43325E0FEE4240527
:10198100FFEE34F0FE90F004E0FDB40100E43325F5
:10199100E02405F582E434F4F583E0FCA3E090F45F
:1019A10038ECF0C284753A8E753B30753C807539E0
:1019B10000758203C007C006C00412103A753A8E42
:1019C100753B30753C8075390075820412103A758B
:1019D1003A8E753B30753C80753900758205121061
:1019E1003A753AAF753B30753C80753900758201A7
:1019F10012103AD0048C477548007546097582016A
:101A0100C004121271753AB8753B30753C80753956
:101A11000075820212103A90F004E0FD8D4775487E
:101A210000754606758202121271753ABF753B3018
:101A3100753C8075390C75820212103A90F000E005
:101A4100F9A3E0FAA3E0A3E089478A487546117536
:101A51008202121271D004D006D007EC24E15006A4
:101A610090F438741EF0753800758203C007C00603
:101A7100120FD0D006D0077D037C0090F438E0FB34
:101A81008B021BEA7003021BA78F828E83E0FA246C
:101A9100E05040BA7F00503B758220C007C006C0AD
:101AA10005C004C0031227A2D003D004D005D0067C
:101AB100D0078F828E83E0F582C007C006C005C0C3
:101AC10004C0031227A2D003D004D005D006D0074A
:101AD100021B788F828E83E054F0C4540FF97A0090
:101AE100C3E9940AEA940050208900743028F582F1
:101AF100C007C006C005C004C0031227A2D003D08E
:101B010004D005D006D007801C743729F582C007A0
:101B1100C006C005C004C0031227A2D003D004D060
:101B210005D006D0078F828E83E0FA53020F8A0117
:101B31007A00C3E9940AEA9400502089007430289D
:101B4100F582C007C006C005C004C0031227A2D099
:101B510003D004D005D006D007801C743729F58244
:101B6100C007C006C005C004C0031227A2D003D01D
:101B710004D005D006D0070C75F00AEC84E5F070AE
:101B81001D0D7538008D82C007C006C005C004C098
:101B910003120FD0D003D004D005D006D0070FBF59
:101BA10000010E021A81D2842290F417E0FFBF01D6
:101BB1002F90F418E0FEA3E0FFC3EE942CEF940104
:101BC100401390F418E4F0A3F090F417F0121966A2
:101BD100121971800B90F41874012EF0E43FA3F0F8
:101BE10090F418E4F0A3F012278EAF82BF01030234
:101BF10025C5BF0203021FCFBF0303021F94BF0A03
:101C0100030221EC8F06BE20030225F7BE2C03023E
:101C110022A6BF3C0302212BBF3E030220B8BE41D6
:101C210003021D04BE4403021E66BE4503021E17C5
:101C3100BE4603021F01BE470302251ABE48030226
:101C410024D6BE4903022304BE4A03022492BE4B9A
:101C51000302244EBE4C0302240ABE4D0302234B51
:101C6100BE4E030223CFBE4F03022249BE500302E0
:101C71002197BE5102803DBE5203021EB3BE5303E3
:101C8100021DB2BE5403022551BE5503022396BE66
:101C9100560302258ABE5703021D51BE5A03021F75
:101CA10051BF5E0302205FBF83030225D3BF8703B9
:101CB10002200A2275E10490DF3BE0FFBF01F890AA
:101CC100DF0EE054F8F0E04405F090DF00E0FF9013
:101CD100DF0074102FF012179E90F4177401F0902A
:101CE100F418E4F0A3F0900032120B4175E1019079
:101CF100DF3BE0FFBF01F875E10290DF3BE0FFBF92
:101D01000DF82275E10490DF3BE0FFBF01F890DFA1
:101D11000EE054F8F0E04405F090DF00E024F0908C
:101D2100DF00F012179E90F4177401F090F418E49C
:101D3100F0A3F0900032120B4175E10190DF3BE01E
:101D4100FFBF01F875E10290DF3BE0FFBF0DF82214
:101D510075E10490DF3BE0FFBF01F890DF0EE05436
:101D6100F8F0E04405F090DF00E0FF53070FBF0FEC
:101D710002800990DF00E02401F0800890DF00E09C
:101D8100FF54F0F012179E90F4177401F090F418BC
:101D9100E4F0A3F0900032120B4175E10190DF3BBA
:101DA100E0FFBF01F875E10290DF3BE0FFBF0DF8F6
:101DB1002275E10490DF3BE0FFBF01F890DF0EE008
:101DC10054F8F0E04405F090DF00E0FF540F600BA1
:101DD10090DF00E01490DF00F0800E90DF00E0FF64
:101DE10074F05F90DF002409F012179E90F41774CD
:101DF10001F090F418E4F0A3F0900032120B417559
:101E0100E10190DF3BE0FFBF01F875E10290DF3BAC
:101E1100E0FFBF0DF82275E10490DF3BE0FFBF0159
:101E2100F890DF0EE054F8F0E04405F090DF01E0B7
:101E3100FF90DF0174102FF012179E90F4177401B8
:101E4100F090F418E4F0A3F0900032120B4175E128
:101E51000190DF3BE0FFBF01F875E10290DF3BE05D
:101E6100FFBF0DF82275E10490DF3BE0FFBF01F8F1
:101E710090DF0EE054F8F0E04405F090DF01E0243B
:101E8100F090DF01F012179E90F4177401F090F4B6
:101E910018E4F0A3F0900032120B4175E10190DFDC
:101EA1003BE0FFBF01F875E10290DF3BE0FFBF0DB2
:101EB100F82275E10490DF3BE0FFBF01F890DF0EEF
:101EC100E054F8F0E04405F090DF01E090DF01E03C
:101ED1002401F012179E90F4177401F090F418E4A5
:101EE100F0A3F0900032120B4175E10190DF3BE06D
:101EF100FFBF01F875E10290DF3BE0FFBF0DF82263
:101F010075E10490DF3BE0FFBF01F890DF0EE05484
:101F1100F8F0E04405F090DF01E090DF01E014907B
:101F2100DF01F012179E90F4177401F090F418E499
:101F3100F0A3F0900032120B4175E10190DF3BE01C
:101F4100FFBF01F875E10290DF3BE0FFBF0DF82212
:101F510075E10490DF3BE0FFBF01F890DF0EE05434
:101F6100F8F0E04404F012179E90F4177401F09019
:101F7100F418E4F0A3F0900032120B4175E10190E6
:101F8100DF3BE0FFBF01F875E10290DF3BE0FFBFFF
:101F91000DF82275E10490DF3BE0FFBF01F8121656
:101FA1008412179E90F4177401F090F418E4F0A3D2
:101FB100F0900032120B4175E10190DF3BE0FFBF71
:101FC10001F875E10290DF3BE0FFBF0DF82275E1FA
:101FD1000490DF3BE0FFBF01F812169912179E90A3
:101FE100F4177401F090F418E4F0A3F090003212A9
:101FF1000B4175E10190DF3BE0FFBF01F875E102A4
:1020010090DF3BE0FFBF0DF82275E10490DF3BE07C
:10201100FFBF01F890DF0CE0FE7F0074102EFEE49C
:102021003FFF6008EE2410FEEF34FFFF90DF0CEE5F
:10203100F012179E90F4177401F090F418E4F0A3D5
:10204100F0900032120B4175E10190DF3BE0FDBDE4
:1020510001F875E10290DF3BE0FDBD0DF82275E16D
:102061000490DF3BE0FDBD01F890DF0CE0FDFE7F59
:1020710000C3EE9410EF9400500474012FFFEE247E
:10208100F0FEEF34FF90DF0CEEF012179E90F41784
:102091007401F090F418E4F0A3F0900032120B41B7
:1020A10075E10190DF3BE0FFBF01F875E10290DFD0
:1020B1003BE0FFBF0DF82275E10490DF3BE0FFBF7D
:1020C10001F890DF0DE0C4540FFFBF0F2490DF0C27
:1020D100E0FF53070FBF0F00502390DF0CE090DFAC
:1020E1000C04F090DF0DE0FF90DF0D74102FF080F5
:1020F1000C90DF0DE0FF90DF0D74102FF012179E92
:1021010090F4177401F090F418E4F0A3F090003209
:10211100120B4175E10190DF3BE0FFBF01F875E172
:102121000290DF3BE0FFBF0DF82275E10490DF3B39
:10213100E0FFBF01F890DF0DE0C4540FFF701F9066
:10214100DF0CE0FF540F602190DF0CE01490DF0CF6
:10215100F090DF0DE0FF24F090DF0DF0800B90DFB9
:102161000DE0FF24F090DF0DF012179E90F417742C
:1021710001F090F418E4F0A3F0900032120B4175D5
:10218100E10190DF3BE0FFBF01F875E10290DF3B29
:10219100E0FFBF0DF82275E10490DF3BE0FFBF01D6
:1021A100F890DF0BE02401F090DF0BE0FF70159059
:1021B100DF0AE02401F090DF0AE0FF700790DF09F9
:1021C100E02401F012179E90F4177401F090F418B6
:1021D100E4F0A3F075E10190DF3BE0FFBF01F8758A
:1021E100E10290DF3BE0FFBF0DF82275E10490DFD3
:1021F1003BE0FFBF01F890DF0BE01490DF0BF090A4
:10220100DF0BE0FFBFFF1A90DF0AE01490DF0AF056
:1022110090DF0AE0FFBFFF0990DF09E01490DF09BA
:10222100F012179E90F4177401F090F418E4F0A3E3
:10223100F075E10190DF3BE0FFBF01F875E102902D
:10224100DF3BE0FFBF0DF82275E10490DF3BE0FFCB
:10225100BF01F890DF0BE0FFBFF000401590DF0AEF
:10226100E02401F090DF0AE0FF700790DF09E0242D
:1022710001F090DF0BE0FF90DF0B74102FF01217CD
:102281009E90F4177401F090F418E4F0A3F075E156
:102291000190DF3BE0FFBF01F875E10290DF3BE019
:1022A100FFBF0DF82275E10490DF3BE0FFBF01F8AD
:1022B10090DF0BE0FF24EF401990DF0AE0FF700987
:1022C10090DF09E01490DF09F090DF0AE01490DF5D
:1022D1000AF090DF0BE024F090DF0BF012179E90D4
:1022E100F4177401F090F418E4F0A3F075E1019093
:1022F100DF3BE0FFBF01F875E10290DF3BE0FFBF8C
:102301000DF82275E10490DF3BE0FFBF01F890DF9B
:102311000AE02401F090DF0AE0FF700790DF09E096
:102321002401F012179E90F4177401F090F418E450
:10233100F0A3F075E10190DF3BE0FFBF01F875E12B
:102341000290DF3BE0FFBF0DF82275E10490DF3B17
:10235100E0FFBF01F890DF0AE0FF700990DF09E0BC
:102361001490DF09F090DF0AE01490DF0AF01217F1
:102371009E90F4177401F090F418E4F0A3F075E165
:102381000190DF3BE0FFBF01F875E10290DF3BE028
:10239100FFBF0DF82275E10490DF3BE0FFBF01F8BC
:1023A10090DF09E02401F012179E90F4177401F0F8
:1023B10090F418E4F0A3F075E10190DF3BE0FFBF7A
:1023C10001F875E10290DF3BE0FFBF0DF82275E1F6
:1023D1000490DF3BE0FFBF01F890DF09E01490DFDC
:1023E10009F012179E90F4177401F090F418E4F0BC
:1023F100A3F075E10190DF3BE0FFBF01F875E10259
:1024010090DF3BE0FFBF0DF82275E10490DF3BE078
:10241100FFBF01F890DF097423F090DF0A7431F0F7
:1024210090DF0B743BF012179E90F4177401F0903B
:10243100F418E4F0A3F075E10190DF3BE0FFBF0188
:10244100F875E10290DF3BE0FFBF0DF82275E10472
:1024510090DF3BE0FFBF01F890DF097421F090DFCE
:102461000A7462F090DF0B7476F012179E90F417E5
:102471007401F090F418E4F0A3F075E10190DF3BF2
:10248100E0FFBF01F875E10290DF3BE0FFBF0DF80F
:102491002275E10490DF3BE0FFBF01F890DF097492
:1024A10010F090DF0A74A7F090DF0B7462F012173E
:1024B1009E90F4177401F090F418E4F0A3F075E124
:1024C1000190DF3BE0FFBF01F875E10290DF3BE0E7
:1024D100FFBF0DF82275E10490DF3BE0FFBF01F87B
:1024E10090DF09740CF090DF0A741DF090DF0B741B
:1024F10089F012179E90F4177401F090F418E4F02B
:10250100A3F075E10190DF3BE0FFBF01F875E10247
:1025110090DF3BE0FFBF0DF82275E10490DF3BE067
:10252100FFBF01F890DF06E4F012179E90F41774D4
:1025310001F090F418E4F0A3F075E10190DF3BE0C5
:10254100FFBF01F875E10290DF3BE0FFBF0DF8220C
:1025510075E10490DF3BE0FFBF01F890DF06E02466
:1025610001F012179E90F4177401F090F418E4F042
:10257100A3F075E10190DF3BE0FFBF01F875E102D7
:1025810090DF3BE0FFBF0DF82275E10490DF3BE0F7
:10259100FFBF01F890DF06E01490DF06F012179EEE
:1025A10090F4177401F090F418E4F0A3F075E101D0
:1025B10090DF3BE0FFBF01F875E10290DF3BE0FFF8
:1025C100BF0DF822120FBE12275CAF82BF01F802C5
:1025D1000F3990DF3BE0FFBF0D0E75E10490DF3B4B
:1025E100E0FFBF01F802034E75E10490DF3BE0FF1D
:1025F100BF01F802033190F417E0FF700990F4175E
:102601007401F002179EBF010B90F417E4F0121948
:052611006602197122B0
:102E6200000000000000005E0000000E000E0028BE
:102E72007C287C2808547C5420261008640028549E
:102E820028400000000E0000003C42000000423CCE
:102E92000000005438540010107C10100080602094
:102EA20000101010100000606000002010080400E4
:102EB200003C423C0000447E40004462524C0022EE
:102EC2004A4A360018147E10002E4A4A32003C4A02
:102ED2004A300002621A0600344A4A34000C525246
:102EE2003C00006C6C0000806C2C00000010284438
:102EF20000282828280000442810000004520C0052
:102F02003C425A1C007C12127C007E4A4A34003C2D
:102F1200424224007E42423C007E4A4A42007E0AED
:102F22000A02003C425274007E08087E0000427E83
:102F320042002040403E007E182442007E40404035
:102F4200007E0C0C7E007E0C307E003C42423C0037
:102F52007E12120C003C6242BC007E12324C0024F3
:102F62004A52240000027E02003E40403E001E60A3
:102F7200601E007E30307E006618186600000E70FB
:102F82000E0062524A4600007E42420004081020AF
:102F9200000042427E000004020400404040400023
:102FA200000204000030482878007E484830003093
:102FB200484800003048487E003068581000107CB5
:102FC20012040050A8A898007E0808700000487AF1
:102FD20040000040807A007E1028400000427E407F
:102FE20000781018700078080870003048483000E7
:102FF200F848483000304848F80078080810005077
:1030020058682800083E48400038404078000038A0
:103012004038007860607800483030480018A0409E
:103022003800486858480000083C420000007E0012
:103032000000423C08003246534B004746534B00C7
:1030420041534B20004D534B20003830803D30809F
:10305200423080473080465251004348004D4F4431
:103062000042415544004348414E42570053594E95
:103072004357002020202020202020202000202034
:10308200202020202020002D2D2D2D00202020204A
:10309200202020202020202020202020202020202E
:1030A200202020202020202020202020004C656E7F
:1030B2006774683A2000437572723A2000436E7456
:0330C2003A2000B1
:10261600AFFD53073D8FFDAFFE5307038FFE43808B
:10262600C24390FC7F007E00BE080040030227588C
:10263600EEFD24F84073EE2E2E9026437302265BA1
:1026460002265D02266902267502268102268D0271
:1026560026990226A5805243FD02AC805304FD8CC8
:1026660080804643FE04AC905304FB8C90803A4332
:10267600FE08AC905304F78C90802E43FE10AC906D
:102686005304EF8C90802243FE20AC905304DF8CE1
:1026960090801643FE40AC905304BF8C90800A4352
:1026A600FE80AC9053047F8C90AB807C00EBF4FBF7
:1026B600ECF4FCEB30E1027D01AB907C00EBF4FB2B
:1026C600ECF4FCEB30E2027D02AB907C00EBF4FB19
:1026D600ECF4FCEB30E3027D03AB907C00EBF4FB07
:1026E600ECF4FCEB30E4027D04AB907C00EBF4FBF5
:1026F600ECF4FCEB30E5027D05AB907C00EBF4FBE3
:10270600ECF4FCEB30E6027D06AB907C00EBF4FBD0
:10271600ECF4FCEB30E7027D07AB807C00EBF4FBCE
:10272600ECF4FCEB30E6027D08AB807C00EBF4FBBE
:10273600ECF4FCEB30E7027D09EDB50602800DEF07
:1027460075F00AA42D9030C593F582220E8E0702ED
:10275600262E75820022122616AF82C00712261672
:10276600AE82D007EFB506028007122616AF82802A
:10277600EAAEFD53063D8EFDAEFE5306038EFE43C6
:1027860080C24390FC8F822212275CE582FFB5143B
:0C2796000280048F1480027F008F8222DA
:1030C50000004F4B4E4D0150000000005947432072
:1030D5003C2C033E00000051574552545549000011
:1030E500000041534446484A0000000000825A58F7
:1030F5005642000000000000838485860000000021
:10310500000000025E5E00000000000000000A4CA6
:1027A200E582FF70157E07758200C006120F63D0A6
:1027B200068E051D8D06EE70EE22C3EF648094E155
:1027C200400F74FA8FF063F08095F04004EF24E03C
:1027D200FFEF3395E0FEEF24E0FFEE34FFFE8F5271
:1027E2008E53900006122AF9AF82AE837D00BD0699
:1027F20000502A8D037C00EB2FFBEC3EFCEB2415F2
:10280200F582EC3431F583E493F582C007C006C04B
:0E28120005120F63D005D006D0070D80D1222D
:10311500000000000000005F5F00000000030003E6
:103125000000147F147F140000000000000023132A
:1031350008646200000007000000000000000000B5
:10314500000000000000000000000000000000007A
:10315500000000000000000000000000000000006A
:10316500000000000000000000000000000000005A
:103175003E5149453E0000427F40000042615149B1
:1031850046002141454B31001814127F1000274598
:10319500454539003C4A494930000171090503009C
:1031A500364949493600064949291E000036360088
:1031B50000000056360000000814224100001414D7
:1031C50014141400412214080000020151090600DC
:1031D5003E415D494F007E0909097E007F49494905
:1031E50036003E41414122007F4141413E007F4939
:1031F500494941007F09090901003E4149497900D2
:103205007F0808087F0000417F41000030404040B2
:103215003F007F08142241007F40404040007F026C
:103225000C027F007F0408107F003E4141413E00B3
:103235007F09090906003C42523C40007F091929D3
:10324500460046494949310001017F0101007F409F
:1032550040407F000718601807003F4038403F0096
:10326500631C081C630003047C040300616151496D
:103275004700020151090600020151090600020139
:103285005109060002015109060002015109060013
:103295000201510906000201510906000201510906
:1032A500060002015109060002015109060002014A
:1032B50051090600020151090600020151090600E3
:1032C50002015109060002015109060002015109D6
:1032D500060002015109060002015109060002011A
:1032E50051090600020151090600020151090600B3
:1032F50002015109060002015109060002015109A6
:1033050006000201510906000201510906000201E9
:103315005109060002015109060002015109060082
:103325000201510906000201510906000201510975
:1033350006000201510906000201510906000201B9
:103345005109060002015109060002015109060052
:103355000201510906000201510906000201510945
:103365000600020151090600020151090600020189
:103375005109060002015109060002015109060022
:103385000000000000000000000000000000000038
:103395000000000000000000000000000000000028
:1033A5000000000000000000000000000000000018
:1033B5000000000000000000000000000000000008
:1033C50000000000000000000000000000000000F8
:1033D50000000000000000000000000000000000E8
:1033E50000000000000000000000000000000000D8
:1033F50000000000000000000000000000000000C8
:1034050000000000000000000000000000000000B7
:0500F000E4F515F51612
:102820007E397FF48FD57E397FF48ED47E417FF45C
:102830008FD37E417FF48ED2755200755318755434
:102840000090F43975F000022A757403B51506E49A
:10285000B51602800280047582FF22AE15AF160500
:1028600015E4B5150205168E82227A10E4FBFCE50C
:102870008225E0F582E58333F583EB33FBEC33FC13
:10288000EB9552F5F0EC95534006FCABF04382011A
:10289000DADD22F9E5524553455445556077780015
:1028A000C308E55520E73BE55225E0F552E55333F3
:1028B000F553E55433F554E55533F555E582955216
:1028C000E5839553E5F09554E9955550D4C3E55506
:1028D00013F555E55413F554E55313F553E5521329
:1028E000F552E5829552FCE5839553FDE5F095544C
:1028F000FEE995554007F98EF08D838C82C3E5552E
:1029000013F555E55413F554E55313F553E55213F8
:10291000F552D8CEE922FB7A20E4FCFDFEFFE582E9
:102920002582F582E58333F583E5F033F5F0EB336B
:10293000FB4017DAE98042E5822582F582E58333A0
:10294000F583E5F033F5F0EB33FBEC33FCED33FDD1
:10295000EE33FEEF33FFEC9552ED9553EE9554EFC9
:1029600095554013EC9552FCED9553FDEE9554FEB4
:10297000EF9555FF438201DABEEB22122A1EBC00FE
:1029800003022CB4EF60FA30D502B2D1E583B4FF74
:1029900003022CCAE582B4FF03022CCA2583400738
:1029A0002482400B022CB42483145003022CCAF559
:1029B00082EA8DF0A4A8F0EA8EF0A428F8E435F0BD
:1029C000F9EB8DF0A428E935F0F9E433CA8FF0A4CF
:1029D00029F9EA35F0FAEBF88EF0A429F9EA35F096
:1029E000FAE433FBEC8DF0A429F9EA35F0FAE43B84
:1029F000FBE88FF0A42AFAEB35F0FBE433CCFD8E34
:102A0000F0A42AFAEB35F0FBE43CFCED8FF0A42BAC
:102A1000FBEC35F0FC20E703122A4C022C93AA822F
:102A2000AB83A2F73392D16002D2F7F582ACF0E526
:102A30008124F9F8E6FD08E6FE0886F008E6A2F72C
:0C2A40003392D56002D2F7F583AFF0228C
:0600BA00E478FFF6D8FD1A
:102A4C007804EC700DC9CACBFCE58224F8F582D869
:102A5C00F122782020E7111582C3E933F9EA33FA21
:102A6C00EB33FBEC33FCD8EC22AC82AD83AE53AF32
:102A7C0054BE0004EF600C1F0FE552122AE0A3DED7
:082A8C00FADFF88C828D832231
:100098007914E94400601B7A0190341578517593FE
:1000A800F4E493F2A308B800020593D9F4DAF275E0
:0200B80093FFB4
:102A9400FCABF0AA83A982749EC2D1F582122A4C9F
:102AA400022C937F9E122ACE30D103022CB4C3EFA2
:102AB4009582500974FFF5F0F583F58222790012AE
:102AC4002DFB89828A838BF0EC22AA82AB83A2F746
:102AD4003392D16002D2F7F582ACF02220F71030A5
:102AE400F6118883A88220F507F6A883758300224F
:102AF400F280F7F022E5828552F0A4C582C0F08509
:102B040053F0A4D0F025F0C5838552F0A42583F5B5
:102B14008322AAF0FBE5828552F0A4FCADF0E583A4
:102B24008552F0A42DFDE435F0FEE5828553F0A432
:102B34002DFDE5F03EFEE433FFEA8552F0A42EFEBF
:102B4400E5F03FFFE5838553F0A42EFEE5F03FFF5B
:102B5400E5828554F0A42EFEE5F03FFFEB8552F0AC
:102B6400A42FFFEA8553F0A42FFFE5838554F0A436
:102B74002FFFE5828555F0A42F8EF08D838C822261
:102B8400E552455360467A01E55225E0F552E55396
:102B9400334012F553E5829552E583955340030A79
:102BA40080E6C3E55313F553E55213F552C3E582AA
:102BB4009552F5F0E58395534005F58385F082C37E
:102BC400E55313F553E55213F552DAE122122A1EA6
:102BD4007900E583B58202800D5003122CE2E5836F
:102BE400C39582122DFBE5D0C465D020E117EA2DF0
:102BF400FAEB3EFBEC3FFC50097401122DFBEC4454
:102C040080FC022C93C3EA9DFAEB9EFBEC9FFC50E4
:102C14000FC3E499F9E49AFAE49BFBE49CFCB2D177
:062C2400122A4C022C9361
:1000C0007800E84400600A79007593F0E4F309D8F9
:1000D000FC7851E84404600C790590F000E4F0A34A
:0400E000D8FCD9FA75
:102C2A00FBC2D530E715D2D5E4C39582F582E49587
:102C3A0083F583E495F0F5F0E49BFBE55530E7175F
:102C4A00B2D5E4C39552F552E49553F553E495543D
:102C5A00F554E49555F555EB12291630D513FBE4D6
:102C6A00C39582F582E49583F583E495F0F5F0E463
:102C7A009B22E4AC83AB82FAF9748E022A9D7F8E82
:102C8A00122AA9F58385F08222B98003EA13B34098
:102C9A0010EA2401FAE43BFBE43CFC50047C800586
:102CAA0082BC000EBB000BBA0008E4F5F0F583F510
:102CBA008222A2D1E582138CF092F78B838A822238
:102CCA00E4F583F58275F080F4A2D11322E4F5834A
:102CDA00F58275F0C0747F22E582C583F582A2D1A0
:102CEA0033A2D592D11392D5ECCFFCEBCEFBEACD31
:102CFA00FA22AA82AB83122DDF6003A380F8C3E510
:102D0A00829AF582E5839BF58322122A1E30D50228
:102D1A00B2D1BF0009BC0003022CD7022CCABC00E6
:102D2A0003022CB4E583B4FF0BE582B4FF03022C43
:102D3A00D7022CB4E582B4FF03022CCAC395835090
:102D4A0007247F400B022CB42480145003022CCA9F
:102D5A00F582C3ED9AEE9BEF9C40111582C3EA33CC
:102D6A00F9EB33FAEC33FBE433FC8005E4CCCBCA51
:102D7A00F9C08275F019C3E99DEA9EEB9FEC9400B5
:102D8A00D5F002802D400EE99DF9EA9EFAEB9FFBF1
:102D9A00EC9400FCC3B3E833F8E58233F582E583AB
:102DAA0033F583C3E933F9EA33FAEB33FBEC33FC4B
:102DBA0080C4B3E4F938FAE43582FBE43583FCD005
:0D2DCA0082500405827C80122A4C022CAB42
:0D008B0075815B122E3EE582600302008647
:102DD7007F86122AA9F5822220F71430F6148883F9
:102DE700A88220F507E6A88375830022E280F7E42E
:102DF7009322E0226040F82582500274FFF582E8B2
:102E070024F8501ECCCBCAF9E4CC24F85014CBCA12
:102E1700F9E4CB24F8500BCAF9E4CA24F850037933
:102E2700002224086010F8C3EC13FCEB13FBEA1331
:0B2E3700FAE913F9D8F122758200229D
:00000001FF
