:0614000002148D023FE121
:01140B0032AE
:0114130032A6
:01141B00329E
:011423003296
:01142B00328E
:0314330002399EDD
:01143B00327E
:011443003276
:03144B0002458ACD
:031453000217512C
:03145B00021A1A58
:011463003256
:03146B00023A2121
:011473003246
:01147B00323E
:031483000241E93A
:0314EB0002148662
:051486001226B980FEF2
:1014EE00AE82AF8375E10490DF3BE0FDBD01F89065
:1014FE00DF06EEF075E10290DF3BE0FFBF0DF82254
:10150E007E007F0090F007E0FCA3E0FD8E028F03CB
:10151E00C3EA9CEB9D503AEE2415FCEF34F0FD909F
:10152E00F005E0F56BA3E0F56C8A828B83C007C0F3
:10153E0006C005C0041249E0AA82AB83D004D005D0
:10154E00D006D0078C828D83EAF00EBE00B60F80D7
:10155E00B322AF82E59CC39FF59CE59C24FAF59CD3
:10156E00439E10D2BA22AF9E5307EF8F9E22AE82B9
:10157E00AF83E50824D65006904BA2023A4F90F066
:10158E0011E075F029A4FD2487F582E434F3F58388
:10159E00E508F0ED2487FDE434F3FC0DBD00010CED
:1015AE007B008E6B8F6C756D0085086E756F008D70
:1015BE00828C838BF01248F990F011E0FF0F90F0BF
:1015CE0011EFF0BF0500400590F011E4F022AE825D
:1015DE00AF8390F000E0FD601CBD01028017904BC0
:1015EE00BCC007C006123A4F90F000E0F582123AE6
:1015FE0082D006D007C007C006121574D006D007D9
:10160E0090F009E4F0A3F090F009E0FCA3E0FD8C6B
:10161E00828D83C007C0061216EFD006D00790DF6A
:10162E003BE0FDBD0DF890DF3AE0FD53057FBD6058
:10163E0000402F90F009E0FCA3E0FD0CBC00010D72
:10164E0090F009ECF0A3EDF0D29090000AC007C024
:10165E0006124427C29090000A124427D006D007E3
:10166E0080A590F0007402F090FAF0E0FAA3E0FB8F
:10167E00A3E0A3E090F00BEAF0A3EBF090F00FEEF6
:10168E00F0A3EFF02290F000E4F090FAF0E0FCA36B
:10169E00E0FDA3E0A3E090F00BECF0A3EDF02290C0
:1016AE00F0007404F090FAF0E0FCA3E0FDA3E0A3D8
:1016BE00E090F00BECF0A3EDF02290F0007405F04A
:1016CE0090F013E4F0A3F090FAF0E0FCA3E0FDA399
:1016DE00E0A3E090F00BECF0A3EDF07582000215A4
:1016EE0060AE82AF83EE2415F582EF34F0F583E021
:1016FE00FF7E008F828E830214EEAE82AF8390F354
:10170E0085EEF0A3EFF0222290F009E0FEA3E0FFB9
:10171E000EBE00010F90F009EEF0A3EFF0C3EE94B1
:10172E0070EF9403400790F009E4F0A3F090F009F5
:10173E00E0FEA3E0FFEE2415F582EF34F0F583E032
:10174E00F58222C020C0E0C0F0C082C083C007C0B6
:10175E0006C005C004C003C002C001C000C0D075E1
:10176E00D00090FAE9E02401F0A3E03400F090F00C
:10177E0001E0FEA3E0FF90FAE9E0FCA3E0FDECB58A
:10178E00060BEDB5070790FAE9E4F0A3F090FAE93D
:10179E00E0FEA3E0FFBE0005BF0002800BBE010508
:1017AE00BF0002806802190C90FAE9E0FEA3E08EF9
:1017BE00077E00AC9C7D00EC4206ED420790F00DDA
:1017CE00EEF0A3EFF090F009E0FEA3E0FF0EBE00F6
:1017DE00010F90F009EEF0A3EFF090F007E0FCA3FC
:1017EE00E0FDC3EE9CEF9D400790F009E4F0A3F0FE
:1017FE0090DF3BE0FFBF13030219FD90F009E0FEFE
:10180E00A3E0FF8E828F831216EF0219FD90F00077
:10181E00E0FFBF050280030219FD90001912442754
:10182E0090F454741CF090F009E0FEA3E0FF8E04D7
:10183E0090F455ECF08F0690F456EEF090F4577449
:10184E0042F090F458744CF090F4597441F090F4C6
:10185E005A7448F090F45B7442F090F45C744CF05F
:10186E0090F45D7441F090F45E7448F090F45F74FF
:10187E0042F090F460744CF090F4617441F090F486
:10188E00627448F090F4637442F090F464744CF017
:10189E0090F4657441F090F4667448F090F46774B7
:1018AE0042F090F468744CF090F4697441F090F446
:1018BE006A7448F090F46B7442F090F46C744CF0CF
:1018CE0090F46D7441F090F46E7448F090F46F746F
:1018DE0020F075151CE4F516F517F518F519F51A1F
:1018EE0090F455123D0690F013E0FEA3E0FF0EBEFD
:1018FE0000010F90F013EEF0A3EFF00219FD90F03F
:10190E0000E0FFBF03028065BF04028008BF05022E
:10191E0080030219FD90F00BE0FEA3E0FF90FAF0B9
:10192E00E0FAA3E0FBA3E0FCA3E0FD8E008F01E450
:10193E00FEFFEAC398FAEB99FBEC9EFCED9FFDC30C
:10194E0074649AE49BE49CE49D5022904BEA123A14
:10195E004F90F0007405F090FAF0E0FCA3E0FDA3C8
:10196E00E0FEA3E0FF90F00BECF0A3EDF090F01290
:10197E00E075F029A42487FEE434F3FF8E828F8372
:10198E00E0606CB29090001912442790F012E0754E
:10199E00F029A42487FEE434F3FF90DF04E0540121
:1019AE00FDB40100E4332EFDE43FFC8E828F83E014
:1019BE00FE8E15E4F516F517F518F519F51A8D8244
:1019CE008C83123D0690F012E0FF75F029A4248757
:1019DE00F582E434F3F583E4F00F90F012EFF0BFEC
:1019EE000500400590F012E4F0904C08123A4FD0EA
:1019FE00D0D000D001D002D003D004D005D006D074
:101A0E0007D083D082D0F0D0E0D020323290F000D8
:101A1E00E4F090F011F090F012F090F009F0A3E4E1
:101A2E00F090F0057453F0A3E4F090F0077453F0C7
:101A3E00A3E4F090F00DF0A3E4F090F00BF0A3E42B
:101A4E00F090F0017406F0A3E4F090F003F0A3E43C
:101A5E00F090F00FF0A3E4F090F013F0A3E4F01286
:101A6E00150E90F000E4F0759DDC859E9E439E045D
:101A7E0043CB1022021A1B901E60122BC890FAF054
:101A8E00E4F0A3F0A3F0A3F0021A8290F000E0FFBE
:101A9E00BF0003021D76BF0103021C61BF020302D9
:101AAE001B6DBF0303021D76BF0403021D76BF0527
:101ABE0003021D57BF40028006BF410280372275C8
:101ACE00E10490DF3BE0FFBF01F890DF0374E5F027
:101ADE0090DF047404F090DF077412F090DF08E4D6
:101AEE00F090DF147410F090DF17E0FF44C0F09018
:101AFE00F0007441F07F0090F013E0FDA3E0FE8F44
:101B0E00037C00C3EB9DEC9E502F90DF06EFF0752B
:101B1E00E10290DF3BE0FEBE0DF8900002C007121E
:101B2E004427D007EF24E2FDE434F6FE90DF3AE0DE
:101B3E00FC8D828E83F00F80BE75E10490DF3BE05A
:101B4E00FFBF01F890F013E0FEA3E08E3275330074
:101B5E007531017534E27535F67582430226EBE573
:101B6E00147003021C5A90FAEE740DF0AF9A5307DC
:101B7E00FE8F9AE51420E403021C5A90F0007403C1
:101B8E00F090FAEBE0FEA3E08E82121560904C16F8
:101B9E00123A4F90FAEBE0FEA3E0FF8E828F831293
:101BAE003A9D90F6E1E025E0FEE424E2FFEE34F605
:101BBE00FE8F828E83123A4F90F6E1E0FFB4010061
:101BCE00E433FF24E6FDE434FAFE8D828E83E0706A
:101BDE007490DF04E0FE30E0378F05ED2DFEE4FD5E
:101BEE0024E2F582EE34F6F583E0FC8C3275330098
:101BFE00ED24E2FDEE34F6FE74012DF534E43EF5EF
:101C0E0035753101758242C0071226EBD007802848
:101C1E0090DF02E0FE8E327533008F05ED2DFEE46F
:101C2E0024E2FDEE34F6FE8D348E3575310175826B
:101C3E0042C0071226EBD007EF24E6F582E434FA11
:101C4E00F5837401F0AF145307EF8F14751400432E
:101C5E009A0122E5147003021D5090FAEE740DF0F5
:101C6E00AF9A5307FE8F9AE51420E403021D50909D
:101C7E00F6E1E0FFB40100E433FF904C2BC00712F5
:101C8E003A4FD007EF2FFEE4FF24E2FCEE34F6FDD0
:101C9E008C828D83C007C006123A9DD006D007EF06
:101CAE0024E2FFEE34F6FE8F828E83123A4F90F6C8
:101CBE00E1E0FFB40100E433FF24E6FDE434FAFE74
:101CCE008D828E83E0707490DF04E0FE30E0378FFB
:101CDE0005ED2DFEE4FD24E2F582EE34F6F583E00B
:101CEE00FC8C32753300ED24E2FDEE34F6FE740109
:101CFE002DF534E43EF535753101758242C007127B
:101D0E0026EBD007802890DF02E0FE8E327533007E
:101D1E008F05ED2DFEE424E2FDEE34F6FE8D348EBD
:101D2E0035753101758242C0071226EBD007EF24BC
:101D3E00E6F582E434FAF5837401F0AF145307EF3D
:101D4E008F14751400439A012290F013E0FEA3E065
:101D5E00FF90F007E0FCA3E0FDC3EE9CEF9D500169
:101D6E002290F0007404F022E51470012290FAEE35
:101D7E00740DF0E514543070012290F6E1E0FFB4DA
:101D8E000100E433FF24E6FDE434FAFE8D828E83F7
:101D9E00E06003021E2B90DF04E0FE30E0378F057B
:101DAE00ED2DFEE4FD24E2F582EE34F6F583E0FC43
:101DBE008C32753300ED24E2FDEE34F6FE74012D07
:101DCE00F534E43EF535753101758242C0071226B1
:101DDE00EBD007803B90FAF4E0FE600A90FAF7E051
:101DEE00FDA3E0FE800890DF02E0FCFD7E008F0385
:101DFE00EB2BFCE424E2FBEC34F6FC8B348C3575D7
:101E0E0031018D328E33758242C0071226EBD00718
:101E1E00EF24E6F582E434FAF5837401F0AF14533F
:101E2E0007CF8F1422E58290F470F090F6B7E0544D
:101E3E00FDF090F6B3E0FF90F6B4E0F53190F4705B
:101E4E00E0FE8E32753300850B34850C358F8202A1
:101E5E0026EB90F6AEE0FEA3E0FF90F6B3E0FDBDFC
:101E6E00420280030223FC90F6B4E0FDBD020302A1
:101E7E001F45BD0303022107BD0503021FDEBD067C
:101E8E0003022090BD07030220A6BD08030220B561
:101E9E00BD09030220DEBD10030221DCBD110302C9
:101EAE00224BBD1203022270BD13030222C7BD14C2
:101EBE00030222E4BD15030222F3BD160302232CF6
:101ECE00BD170302212BBD1803022236BD200302CB
:101EDE00236FBD21030223E4BD220302234BBD2346
:101EEE0003022294BD24030222AFBD40028008BD2E
:101EFE00410280310223F2C007C006121574D006CB
:101F0E00D00790F0007440F08E828F83E0FD7C004D
:101F1E0090F013EDF0A3ECF08E0B8F0C7582011286
:101F2E001E330223FC90F000E4F08E0B8F0C7582B2
:101F3E0001121E330223FC90F000E06009904C4524
:101F4E00123A4F0223FC8E828F83E0FDA3AE82AF46
:101F5E00837C008E828F83E0FBA3AE82AF838B02E5
:101F6E00E42DFDEA3CFC90F471EDF0A3ECF08E82D2
:101F7E008F83E0FBA3AE82AF837A008E828F83E0E5
:101F8E00F9A3AE82AF8389008801E42BF517E93AF5
:101F9E00F5188E828F83E0FBA3AE82AF837A008E1C
:101FAE00828F83E0F9A3AE82AF8389008801E42B90
:101FBE00F519E93AF51A8D158C168E828F83123D1E
:101FCE0006750B71750CF4758201121E330223FC1B
:101FDE008E828F83E0FDA3AE82AF8390FAF7EDF091
:101FEE00A3E4F08E828F83E0FC7D0090FAF7E0FA96
:101FFE00A3E0FB90FAF7ED2AF0EC3BA3F090FAF792
:10200E00E0FCA3E0FD4C604590FAF47401F090FA08
:10201E00F5E0FCA3E0FD4C704A123C3E90FAF7E06E
:10202E00FCA3E0FD90FAF5ECF0A3EDF090FAF5E0EC
:10203E00FCA3E090DF02ECF090DF04E054FCF0E053
:10204E00FD90DF0474024DF0123BFA801690FAF404
:10205E00E4F090FAF5F0A3E4F090FAF7F0A3E4F0D0
:10206E00123C3E90F6B3E0FD90F6B4E0F5317534D7
:10207E00F77535FA7532017533008D821226EB0233
:10208E0023FC8E828F83E090FB06F08E0B8F0C75F7
:10209E008201121E330223FC750B06750CFB758232
:1020AE0001121E330223FC90FB06E0FD74F05DF579
:1020BE006C756B068E828F83C007C0061246B2D037
:1020CE0006D0078E0B8F0C758210121E330223FC66
:1020DE0090FB06E0FD74F05DF56C756B048E828FDF
:1020EE0083C007C0061246B2D006D0078E0B8F0CE7
:1020FE00758210121E330223FC8E828F83E0FD7CCC
:10210E00008D828C83C007C006121708D006D00738
:10211E008E0B8F0C758201121E330223FC8E828F62
:10212E0083E0FDA3AE82AF838D047D0090F471EC4D
:10213E00F0A3EDF0C374299CE49D5015904BA212B0
:10214E003A4F750B71750CF4758201121E33022312
:10215E00FC90F011E075F029A4FB2487F9E434F328
:10216E00FA89828A83E06015904C6A123A4F750B99
:10217E0071750CF4758201121E330223FC8C0089DA
:10218E00828A83E8F0EB2487FBE434F3FA0BBB007E
:10219E00010A8B017B008E6B8F6C756D008C6E8DC2
:1021AE006F89828A838BF01248F990F011E0FD0D51
:1021BE0090F011EDF0BD0500400590F011E4F075C2
:1021CE000B71750CF4758201121E330223FC8E8284
:1021DE008F83E0FD7C0090F005EDF0A3ECF090F025
:1021EE0005E0FAA3E0FBC374709D74039C402A744F
:1021FE00022EFEE43FFF8E6B8F6C756D008A6E8B28
:10220E006F90F01575F0001248F9750B05750CF00E
:10221E00758202121E330223FC750B8B750C4C75E6
:10222E008208121E330223FC90F005E0FCA3E07539
:10223E000B15750CF08C82121E330223FC1217162E
:10224E007C008C831216EF90F009E0FCA3E0FDEC0D
:10225E002415F50BED34F0F50C758201121E3302C8
:10226E0023FC8E828F83E0FD7C008D828C83C007E1
:10227E00C0061214EED006D0078E0B8F0C7582019D
:10228E00121E330223FC758200C007C006121560B1
:10229E00D006D0078E0B8F0C758201121E330223CF
:1022AE00FCC007C006121574D006D0078E0B8F0C1B
:1022BE00758201121E330223FC8E828F83E0FD7C19
:1022CE000090F001EDF0A3ECF08E0B8F0C758201F7
:1022DE00121E330223FC750B01750CF0758204126D
:1022EE001E330223FC7C007DF07B008E828F83E008
:1022FE00F97A00896B8A6C756D00756E15756F00B5
:10230E008C828D838BF0C007C0061248F9D006D0A0
:10231E00078E0B8F0C758215121E330223FC90FA5A
:10232E00E9E0FCA3E0FD90F003ECF0A3EDF0750BFB
:10233E0000750CF0758215121E330223FC8E828FEF
:10234E0083E0FD7C008D828C83C007C0061215DCF5
:10235E00D006D0078E0B8F0C758201121E3302230E
:10236E00FC90FAF0E0FAA3E0FBA3E0A3E090F00B00
:10237E00EAF0A3EBF08E828F83E0FD90F000F090F8
:10238E00F000E0FCED24FA4041EC2C2C90239E73DF
:10239E000223B00223B00223B00223CA0223CA02D0
:1023AE0023BDC007C006121574D006D007801BC00F
:1023BE0007C0061216C8D006D007800E758200C060
:1023CE0007C006121560D006D0078E0B8F0C7582D3
:1023DE0001121E338018750B00750CF075820112F8
:1023EE001E33800A8E0B8F0C758201121E339000E5
:1023FE0000222290F6BCE0FFBF014290F69CE0FE68
:10240E00A3E0FF90F6BFE0FCA3E0FD90F69FE0FA9C
:10241E00A3E0FBEA4B6004790180027900E9601DBC
:10242E008E828F83E0F9A3AE82AF838C828D83E997
:10243E00F0A3AC82AD831ABAFF011B80D690F6A52D
:10244E00E054FDF090DE11E04408F02285820D8507
:10245E00830E85F00F124B3FFC20E7030225957487
:10246E0001250DFAE4350EFBAC0F8A828B838CF0BE
:10247E00124B3FFC601EBC0102802BBC0202803D51
:10248E00BC03028078BC0403022538BCFE0302257F
:10249E005402259575360275370090FAEE75F000E8
:1024AE0012298A02259590DE00E0FC7B0075382803
:1024BE007539008C828B831229E9022595740225C9
:1024CE000DFAE4350EFBAC0F8A828B838CF0124B27
:1024DE003FFAA3124B3FFB7406250DF8E4350EF9B7
:1024EE00AC0F888289838CF0124B3FF538A3124BC8
:1024FE003FF5398A828B831229E9022595AA0DAB05
:10250E000EAC0F7406250DF8E4350EF9AF0F888268
:10251E0089838FF0124B3FF536A3124B3FF5378A66
:10252E00828B838CF012298A805D90F69CE0FDA34D
:10253E00E0FEA3E0FF7538107539008D828E838F13
:10254E00F01229E980417402250DFDE4350EFEAF2F
:10255E000F756B93756C4C756D80756E04756F0091
:10256E008D828E838FF01244EEE5828583F045F0E6
:10257E006012D29090012C124427C29090012C121E
:10258E004427800375C9839000002290DF2FE4F06A
:10259E0090DF30F090DF31F090DF00740CF090DFC0
:1025AE0001744EF090DF0274FFF090DF037440F080
:1025BE0090DF04E4F090DF05F090DF06F090DF0787
:1025CE007406F090DF08E4F090DF097424F090DFD9
:1025DE000A743AF090DF0B74F1F090DF0C74CAF0CD
:1025EE0090DF0D74A3F090DF0E7401F090DF0F7486
:1025FE0023F090DF107411F090DF117436F090DF3D
:10260E00127407F090DF13743FF090DF147418F01B
:10261E0090DF157417F090DF16746CF090DF17745E
:10262E0003F090DF187440F090DF197491F090DF92
:10263E001A7456F090DF1B7410F090DF1C74E9F0E2
:10264E0090DF1D742AF090DF1EE4F090DF1F741FE0
:10265E00F090DF237488F090DF247431F090DF2542
:10266E007409F090DF2E74C0F090DF07740CF090B8
:10267E00DF097425F090DF0A7495F090DF0B745526
:10268E00F090DF1A74B6F090DF1B7410F090DF1C20
:10269E0074EAF090DF1D742AF090DF1EE4F090DFF4
:1026AE001F741FF0221245580245841226B3123AA7
:1026BE00E71245B1122953123C75121A851229845C
:1026CE00D2AF122826D290900002124427C29090C8
:0D26DE00000A124427123854121A9980F88D
:104BA20046485353786D6974206D65737361676508
:104BB20020746F6F206C6F6E6700464853532073EA
:104BC2007461746520656E746572696E67205359ED
:104BD2004E4348494E472066726F6D2077726F6E62
:104BE200672073746174650053594E43485F4D41A9
:104BF20053544552202D3E2053594E43494E474D62
:104C020041535445520046485353786D69742064A9
:104C12006F6E65006E6574776F726B207061636B87
:104C220065742873796E6329006E6574776F726B91
:104C3200207061636B657428646973636F76657253
:104C4200792900637261702C20706C656173652034
:104C52007573652046485353786D69742829206915
:104C62006E737465616421007374696C6C20776182
:104C72006974696E67206F6E20746865206C617359
:104C820074207061636B6574004E4F204445414C43
:064C9200005253544E00D5
:1026EB00AF827E0190DE0E7405F0E5324533700348
:1026FB000228227C107D2790DE11E0FB30E00D904C
:10270B00FAEF7401F01CBCFF011D80EBEC4D701453
:10271B00D290900064124427C29090006412442718
:10272B0090FFFF22BE012F7E0090DE2A7440F0EF57
:10273B00F0E531F0AC327D0090DE2AECF0E533F0C1
:10274B00C3743B9532E4953350067C3B7D00801A75
:10275B00AC32AD338014C374409532E495335006DC
:10276B007C407D008004AC32AD337480252842D68A
:10277B00852582852683AA34AB358B01E9F0852527
:10278B0082852683A3EAF0852582852683A3A374FD
:10279B00DEF0852582852683A3A3A3742AF08525E5
:1027AB0082852683A3A3A3A3A3ECFBF085258285B7
:1027BB002683A3A3A3A3E054E0F08525828526837B
:1027CB00A3A3A3A3A3A3A3E0543F4440F085258276
:1027DB00852683A3A3A3A3A3A3A3E054CFF0E5284B
:1027EB0042D6E52842D7E52855D160FAE528F452C0
:1027FB00D190DE0E7405F090DE11E0FB4401F0E5A4
:10280B0032C39CF532E5339DF533EC2534F534EDCD
:10281B003535F5350226F590000022E521700512BD
:10282B00385480F722AFBE53077F8FBE43BE8090D4
:10283B00DE0B74F7F090DE0774FFF090DE0974FF87
:10284B00F0438C10AF8C5307FE8F8CD2BD439A0292
:10285B00758900C2C5758B00C2E843A90243B90252
:10286B00852582852683A3A3A3A3E054E0F08525C9
:10287B0082852683A3A3A3A3A3A3E0549F4420F0A4
:10288B00852582852683A3A3A3A3A3A3A3E0440842
:10289B00F0852582852683A3A3A3A3A3A3A3E0543A
:1028AB00FC4401F090DE01E054FEF0E4F524F52247
:1028BB00F523F52190DE0EE4F090DE107404F09019
:1028CB00DE137404F090F6A6E4F090F6A5F090F603
:1028DB009AF0A3E4F090F69C7473F0A374F4F0A355
:1028EB00E4F090F69FF0A3E4F090F6A1F090F6A23E
:1028FB00F090F6A3F0A3E4F090DE0E7405F090DEFA
:10290B00107408F090DE137408F090DE12E044802F
:10291B00F090F6B8E4F090F6B7F090F6ACF0A3E4D4
:10292B00F090F6AE7493F0A374F4F0A3E4F090F689
:10293B00B1F0A3E4F090F6B3F090F6B4F090F6B5E6
:10294B00F0A3E4F0439A0222123B118582278527DC
:10295B00F005F07401800225E0D5F0FBF528E527A2
:10296B00C40354F824C9F525E434F6F52690FAEEA1
:10297B007402F043BE80022830D29122C29122AD64
:10298B0082AE83AFF090F6A6E06034D2909003E86D
:10299B00124427C2909003E8124427D2909003E888
:1029AB00124427C2909003E8124427D2909003E878
:1029BB00124427C2909003E812442790FFFF229005
:1029CB00F697EDF0A3EEF0A3EFF090F69AE536F064
:1029DB00A3E537F090F6A67401F090000022AE82CA
:1029EB00AF8390F6A6E06034D2909003E8124427B0
:1029FB00C2909003E8124427D2909003E812442728
:102A0B00C2909003E8124427D2909003E812442717
:102A1B00C2909003E812442790FFFF227D0090F6AE
:102A2B0097EEF0A3EFF0A3EDF090F69AE538F0A354
:102A3B00E539F090F6A67401F0900000227F029029
:102A4B00DE0EE4F090F69AE0FDA3E0FEC374209D49
:102A5B00E49E50047C2080048D047F0A8C027B0052
:102A6B00EDC39AFDEE9BFE90F69AEDF0A3EEF08C83
:102A7B0006EE60047D0180027D00ED603690F697D6
:102A8B00E0FBA3E0FCA3E0FD8B828C838DF0124B6B
:102A9B003F90DE20F090F697E0FBA3E0FCA3E0FD77
:102AAB000BBB00010C90F697EBF0A3ECF0A3EDF051
:102ABB001E80BE90DE11E04FF090F69AE0FEA3E090
:102ACB00FF4E700590F6A6E4F02290F6A67402F085
:102ADB007582002290F69CE0FEA3E0FF90DE11E0F1
:102AEB00FDB40100E433FD20E0F290DE0EE4F09043
:102AFB00DE16E0FC7D0090F69FECF0A3EDF090F677
:102B0B00A5E0FB30E10A90F6A67403F090FFFF22DC
:102B1B0043030290F6A5EBF090F69FE0FAA3E0FBDF
:102B2B00C374209AE49B5018D29090012CC007C01C
:102B3B0006124427C29090012C124427D006D007CE
:102B4B0090F69FE0FCA3E0FDEC4D60027401FB608E
:102B5B001690DE20E0FB8E828F83F0A3AE82AF83D4
:102B6B001CBCFF011D80E1E52B452C6009852B82E8
:102B7B00852C8312148B90F69FE0FEA3E0FFC3EE2F
:102B8B009420EF9400501CE529452A600985298281
:102B9B00852A8312148B90DE11E0FF4408F090F627
:102BAB00A6E4F090DE11E04440F090F69FE0FEA327
:102BBB00E08E82F5832285822D85832E2285822FBE
:102BCB008583302275360175370090002475F040EF
:102BDB0002298AAD82AE83AFF074022DFDE43EFE76
:102BEB008D828E838FF0124B3FFDA3124B3F8D24B2
:102BFB0075210122AF827DCD7E4C8D828E83A3E029
:102C0B0090F6C1F09013E0E0F9A3E0FAA3E0FBA388
:102C1B00E0FCE4B9400ABA6C07BB6104BC73010465
:102C2B00FCE4BF030104FBAA6B90F6C1E0F9B9FF0A
:102C3B0002804DE9B50732EB600CBA0309EC600674
:102C4B007DE47E13803AEA700890F6C174FFF08041
:102C5B00D81A8D828E83E02DFDE43EFE8D828E830D
:102C6B00A3E0F990F6C1F080C08D828E83E02DFD3C
:102C7B00E43EFE8D828E83A3E0F990F6C1F080A92D
:102C8B008D828E832285823A85833B85F03C74024C
:102C9B00253AF541E4353BF542853C438541828538
:102CAB0042838543F0124B3FF8A3124B3FF9893F08
:102CBB007540007401B53F06E4B5400280197402FB
:102CCB00B53F06E4B5400280247403B53F06E4B576
:102CDB0040028073022D688982756B00122BFFAE48
:102CEB0082AF83E0FD8D3D753E00022D7A8982888F
:102CFB00048C6B122BFFAE82AF83A3A3E0FD8D3D43
:102D0B00753E008541828542838543F0124B3FA37C
:102D1B00124B3FFC7D008E828F83A3E0FB7A00EC8D
:102D2B00B50306EDB5020280468541828542838557
:102D3B0043F0124B3FFCA3124B3FFD751D108C82D1
:102D4B008D8312446E80E2898288048C6B122BFF78
:102D5B00AE82AF83E0FD8D3D753E00801289828887
:102D6B006B122BFFAE82AF83E0FD8D3D753E007481
:102D7B0006253AFBE4353BFCAD3C8B828C838DF016
:102D8B00124B3FFCA3124B3FFDC3EC953DED953E23
:102D9B0050048C3D8D3E853D38853E398E828F8328
:102DAB000229E97F448F057E007F4090DE0EE4F020
:102DBB0090DE11E0FC30E40D90F6A6E4F090DE110D
:102DCB00E0FB4480F0EC30E23090DE11E4F090FA5E
:102DDB00EF7404F090F6A6E4F0D2909000C8C00710
:102DEB00C006C005C004124427C2909000C812440C
:102DFB0027D004D005D006D00790F6A6E0FBBB0386
:102E0B0025D2909001F4C007C006C005C00412443F
:102E1B0027C2909001F4124427D004D005D006D0DD
:102E2B000790F6A6E4F090F6A6E060030230ACEC57
:102E3B0020E0030230AC90DE0EE4F07C00BC080016
:102E4B00501690DE20E0FB8D828E838FF01249AA04
:102E5B00A3AD82AE830C80E5E544FF20E703022F90
:102E6B009374605FFE6015BE2003023096BE400374
:102E7B00022F52BE6003022F7A023096741F5FFE40
:102E8B007052AD45BD0002801CBD06028005BD0819
:102E9B0031800C90004475F040122C900230961249
:102EAB002BCF023096E4F54CF54D7D4C7C007B40EE
:102EBB007536027537008D828C838BF012298A024E
:102ECB0030967D447C007B408D828C838BF0123A54
:102EDB004E023096BE0120AD45BD0003023096BDBB
:102EEB000A030230967D447C007B408D828C838B61
:102EFB00F0123A4E023096BE0233AD45BD00028051
:102F0B0008BD120302309680127536027537009099
:102F1B004CAD75F08012298A0230967D447C007B83
:102F2B00408D828C838BF0123A4E0230967D447C1E
:102F3B00007B408D828C838BF0123A4E90DE11E039
:102F4B00FD4420F0023096E52D452E6016746BC0C3
:102F5B00E0742FC0E0C02DC02E90004475F04022CD
:102F6B0002309690004475F0401230C302309690B8
:102F7B00DE11E04420F07D447C007B408D828C830D
:102F8B008BF0123A4E02309674605FFD6015BD20D7
:102F9B0003023096BD4003023059BD600302307FFF
:102FAB00023096741F5FFE7045AF45BF01030230C0
:102FBB0096BF0303023096BF0502800BBF070302C7
:102FCB003096BF0917800990DE00E546F002309677
:102FDB0090004475F040122BDE0230967F447D004A
:102FEB007C408F828D838CF0123A4E023096BE015C
:102FFB0025AF45BF0103023096BF0303023096BFD6
:10300B0011030230967F447D007C408F828D838C30
:10301B00F0123A4E8075BE021DAF45BF0102806BA8
:10302B00BF030280667F447E007D408F828E838D3E
:10303B00F0123A4E805590DE11E04420F07F447E32
:10304B00007D408F828E838DF0123A4E803DE52DB0
:10305B00452E60157472C0E07430C0E0C02DC02ED8
:10306B0090004475F04022802290004475F040128D
:10307B0030C380177F447E007D408F828E838DF01E
:10308B00123A4E90DE11E0FF4420F090DE11E0FF8B
:10309B004440F0E54A454B700890DE11E0FF4408D0
:1030AB00F090F6A6E0FFBF0103122A4890F6A6E0C7
:1030BB00FFBF0203022ADF2285824E85834F85F0F4
:1030CB0050124B3FFC20E7030232047401254EFAE9
:1030DB00E4354FFBAC508A828B838CF0124B3FFC58
:1030EB00601EBC0102802BBC0202803DBC0302802F
:1030FB0078BC04030231A2BCFE030231BF0232775B
:10310B0075360275370090FAEE75F00012298A02B7
:10311B00327790DE00E0FC7B007538287539008C27
:10312B00828B831229E90232777402254EFAE43539
:10313B004FFBAC508A828B838CF0124B3FFAA3125D
:10314B004B3FFB7406254EF8E4354FF9AC508882A3
:10315B0089838CF0124B3FF538A3124B3FF5398A1C
:10316B00828B831229E9023277AA4EAB4FAC507493
:10317B0006254EF8E4354FF9AF50888289838FF0DE
:10318B00124B3FF536A3124B3FF5378A828B838C5C
:10319B00F012298A02327790F69CE0FDA3E0FEA3A1
:1031AB00E0FF7538107539008D828E838FF01229F0
:1031BB00E90232777402254EFDE4354FFEAF5075B0
:1031CB006BB0756C4C756D80756E04756F008D8270
:1031DB008E838FF01244EEE5828583F045F0601309
:1031EB00D29090012C124427C29090012C124427AC
:1031FB0002327775C98302327790F6BCE0FFBF01CC
:10320B00637402254EFDE4354FFEAF508D828E83E5
:10321B008FF0124B3FFDA3124B3FFE90DE0EE4F0FE
:10322B0090DE16E0FC7F00751D088C828F83C00733
:10323B00C006C005C00412446ED004D005D006D021
:10324B0007EC4F60047B0180027B00EB601690DE85
:10325B0020E0FB8D828E83F0A3AD82AE831CBCFF7E
:10326B00011F80DD90F6A5E054FDFFF090000022D9
:10327B0090F6B7E0FF30E10A90FAEF7405F090FF9B
:10328B00FF2290DE0E7405F090DE16E0FE7F0090BC
:10329B00DE17E0FCE42EFEEC3FFF90F6B5E0FCA35E
:1032AB00E0FD4C705590F6B1E4F0A3F090DE2AE00F
:1032BB0090F6B3F090DE2AE090F6B4F090DE2AE0C0
:1032CB00FD7C0090F6B5EDF0A3ECF090DE2AE0FA71
:1032DB00E4FB2DFDEA3CFC90F6B5EDF0A3ECF0EE33
:1032EB0024FCFEEF34FFFFC374049D74029C500A50
:1032FB0090F6B57404F0A37402F0E52855D1601A6A
:10330B00D290900014C007C006124427C2909000C0
:10331B0014124427D006D00780E090F6AEE0FBA352
:10332B00E0FCA3E090F6B1E0F551A3E0F552E551D6
:10333B002BFBE5523CFC7480252842D685258285E3
:10334B00268374DEF0852582852683A3742AF08577
:10335B002582852683A3A38C05EDF0852582852602
:10336B0083A3A3A3EBF0852582852683A3A3A3A325
:10337B00A3A3A3E0543FF0852582852683A3A3A3B3
:10338B00A3A3A3A3E054CF4410F074052525FCE4BC
:10339B003526FD90DE16E08C828D83F07404252596
:1033AB00FCE43526FD90DE17E0FB8C828D83541FE9
:1033BB00F5F0E054E045F0F0E5512EFCE5523FFD11
:1033CB00C374049C74029D500B7404C39551FE741A
:1033DB00029552FFC374409EE49F501B90FAEF740A
:1033EB0006F090DE14E054FEF0751D108E828F8374
:1033FB0012446E90FFFE22E52842D6E52842D7EE16
:10340B002551FEEF3552FF90F6B1EEF0A3EFF0E54C
:10341B002855D160FAE528F452D190F6B1E0FEA31D
:10342B00E0FF90F6B5E0FCA3E0FDC3EE9CEF9D4002
:10343B002A90F6B7E04402F090F6B5E4F0A3F090D2
:10344B00DE0E7405F0AE2274BF5523FF8E228F2340
:10345B0090DE14E054FEF09000012290DE0E740515
:10346B00F0AE2274BF5523FF8E228F2390DE14E023
:10347B0054FEF09000002290F6B7E0FF20E101220D
:10348B0090F6AEE0F555A3E0F55690F6B3E0FCBC34
:10349B00FF02800302383D90F6B4E0FBBB80005086
:1034AB0003023815EB24705003023815EB2480FA15
:1034BB0025E02A9034C2730234F202356D0236F3E2
:1034CB0002370D02362002372302374302375902E7
:1034DB00377C0238150238150238150238150238B8
:1034EB00150238150237CB855582855683E0FAA332
:1034FB008582558583568A017A0090F6B5E9F0A34B
:10350B00EAF0855582855683E0F8A385825585833D
:10351B00568806E429F9EE3AFA90F6B5E9F0A3EAF3
:10352B00F0855582855683E0FEA3858255858356AB
:10353B008E53755400E0FEE42553F553EE3554F5E8
:10354B00548553558554568B3189328A338555347E
:10355B008556358C821226EB90F6B5E4F0A3F0027B
:10356B003835855582855683E0FEA3858255858344
:10357B00568E53755400E0FEA38582558583568E77
:10358B0005E42553F553ED3554F554AD53AE549036
:10359B00F6B9EDF0A3EEF090F6B1E0FDA3E0FEED91
:1035AB0024FEF553EE34FFF554AD55AE5685535707
:1035BB00855458E55745586004780180027800E837
:1035CB006037C00490F6B9E0F8A3E0FC740128F969
:1035DB00E43CFA90F6B9E9F0A3EAF08D828E83E031
:1035EB00FAA3AD82AE8388828C83EAF0155774FF01
:1035FB00B557021558D00480BA90F6B5E0FDA3E09C
:10360B00FE8D348E358B317532027533008C821200
:10361B0026EB023835EF20E236855582855683E05E
:10362B00FFA38582558583568F53755400E0FFA306
:10363B008582558583568F06E4FF2553F553EE356A
:10364B0054F554AD53AE5490F6B9EDF0A3EEF090A3
:10365B00F6B5E0FEA3E0FF8E538F54C37440955331
:10366B00E495545006755340755400EEC39553FEC4
:10367B00EF9554FF90F6B5EEF0A3EFF0AE55AF56C5
:10368B00855357855458E557455860047901800296
:10369B007900E96037C00490F6B9E0F8A3E0F9745B
:1036AB000128FCE439FD90F6B9ECF0A3EDF08E8225
:1036BB008F83E0FDA3AE82AF8388828983EDF01503
:1036CB005774FFB557021558D00480BA90F6B5E081
:1036DB00FEA3E0FF8E348F358B31753202753300CC
:1036EB008C821226EB02383590F6B1E0F532A3E06E
:1036FB00F5338B318555348556358C821226EB028A
:10370B0038357534B575354C8B3175320D753300D5
:10371B008C821226EB02383590FAF0E0FAA3E0FD2A
:10372B00A3E0A3E08A348D358B31753204753300F9
:10373B008C821226EB02383575349F75354C8B31E4
:10374B0075320E7533008C821226EB02383590F6EB
:10375B00B1E0F532A3E0F5338B3185553485563521
:10376B008C821226EB9000C8124427123B31023890
:10377B0035855582855683E0FFA385825585835613
:10378B00BF0202800ABF03028011BF041180051221
:10379B003BFA800AC290123C3E8003123C1790F613
:1037AB00B3E0FF90F6B4E0F53190F6B1E0F532A35B
:1037BB00E0F5338555348556358F821226EB806ABA
:1037CB00AD55AE567F00756BC3756C4C756D8075C2
:1037DB006E09756F008D828E838FF01244EEE58239
:1037EB008583F045F0704375C98090F6B3E0FF9088
:1037FB00F6B4E0F53190F6B1E0F532A3E0F53385A0
:10380B0055348556358F821226EB90F6B3E0FF9038
:10381B00F6B4E0F53190F6B1E0F532A3E0F533857F
:10382B0055348556358F821226EB90F6B7E054FD52
:10383B00F022E52F45306009852F828530831214E5
:10384B008B90F6B7E054FDF022AE22AF23EE30E0C2
:10385B000D7521025306FE8E228F2343BE01AE222D
:10386B00AF23EE5406602890FAEE740AF07521032C
:10387B005306FD8E228F2390DE01E04404F090006E
:10388B000812442790DE01E054FBFFF075210190F4
:10389B00DE0EE4F090DE11E0FF30E21A90DE11E074
:1038AB0054DBFFF090F69AE4F0A3F090F69FF0A3B0
:1038BB00E4F090F6A6F090DE0E7405F090DE11E0C9
:1038CB00FF30E52090DE11E054CFFFF090FAEF745B
:1038DB0008F090F6ACE4F0A3F090F6B1F0A3E4F0AE
:1038EB0090F6B8F090DE14E0FF30E62090DE14E0A6
:1038FB00549FFFF090FAEF7408F090F6ACE4F0A34D
:10390B00F090F6B1F0A3E4F090F6B8F0E52220E2E7
:10391B00057404B5211412283090FAEE740BF07470
:10392B00FB5522FEAF238E228F23E52230E41112AA
:10393B002DAE74E75522FE740F5523FF8E228F2375
:10394B00E52330E62190FAEE740CF012327BAE8256
:10395B00AF83E4BE0104BF000104FFBFFF0280067A
:10396B00BF0103123482AE22AF23EE54E07005EF99
:10397B0054BD601E90FAEF7409F0751D108E828F86
:10398B008312446E74E05522FE74BD5523FF8E22C4
:10399B008F2322C0E0C082C083C007C006C005C011
:1039AB0004C0D075D000E5BE30E6FB90DE06E0FF2C
:1039BB007E00E5224207E52342068F228E2390DE0E
:1039CB0002E0FDE4CDC4CD6DCD54F0CD6DFCED42E8
:1039DB0007EC42068F228E2390DE04E025E0FCE408
:1039EB004207EC42068F228E23AC22AD23EE30E150
:1039FB000F90F6B7E054FEFFF05305FD8C228D239C
:103A0B00758B00C2E8D0D0D004D005D006D007D03B
:103A1B0083D082D0E032C0E0C007C0D075D000E5C3
:103A2B00BE30E6FBC2AFE58930E703752103AFBEBD
:103A3B005307FC8FBE758900C2C5D2AFD0D0D0075B
:043A4B00D0E0322273
:104C9800534443437636014348524F4E4F53207294
:104CA80030323737000000005253544E00554E49F9
:104CB8004D504C454D454E5445440052455345547E
:104CC8005F4E4F57001201000200000020501D47A0
:104CD800600001010203010A060002000000200131
:104CE800000902200001010080FA0904000002FF07
:104CF800FF01000705850240000107050502400085
:104D080001040309040C03520066004300610074A7
:104D1800001E034300680072006F006E006F00738E
:104D280000200044006F006E0067006C0065000AF8
:0B4D380003300030003700360000FFA1
:103A4F00AE82AF837C007D008E028F038A828B83D0
:103A5F00E493F9A3AA82AB83E960070CBC00ED0DD8
:103A6F0080EA8E348F357531F08C328D337582FE4E
:103A7F000226EBE58290F6C2F07534C27535F67505
:103A8F0031F17532017533007582FE0226EBAF837B
:103A9F00E58290F6C3F0A3EFF07534C37535F67574
:103AAF0031F27532027533007582FE0226EBAF825A
:103ABF00AE83ADF0FC90F6C5EFF0A3EEF0A3EDF002
:103ACF00A3ECF07534C57535F67531F375320475A1
:083ADF0033007582FE0226EBA4
:0514E600E4F510F51112
:103AE7007EC97FF68FD57EC97FF68ED47ED17FF6CD
:103AF7008FD37ED17FF68ED2756B00756C18756D7E
:103B07000090F6C975F0000248DA7403B51006E4B0
:103B1700B51102800280047582FF22AE10AF110535
:103B270010E4B5100205118E822290DF46E0FFBF38
:103B3700F00E90DF47E0FFBF0D0690DF487469F095
:103B4700C2AF759A0075B80075A800122987AFBE75
:103B570053077F8FBE75D69FC2900200002212497D
:103B67005EAC82AD83AEF0FFC004C005C006C007DF
:103B77009037BD75F086743D1247E0AC82AD83AED9
:103B8700F0FFE58124FCF581E4C0E0C0E074C0C02B
:103B9700E07441C0E08C828D838EF0EF124A7CACDA
:103BA70082AD83AEF0FFE58124FCF5818C828D83A5
:103BB7008EF0EF124971AC82AD83AEF090DF09EE63
:103BC700F08D0390DF0AEBF090DF0BECF02275E14C
:103BD7000490DF3BE0FFBF01F890FAE8E0F5E190E1
:103BE700FAE8E0FFBF04012290DF3BE0FFBF0102DC
:103BF70080ED2290FAE8E0FFBF02012290DF13E098
:103C070054F0F0E0440FF090FAE87402F0023F86B7
:103C170090FAE8E0FFBF03012290DF13E054F0F0D1
:103C2700E0FF440AF090FAE87403F075E10390DFCF
:103C37003BE0FFBF13F82290FAE8E0FFBF04012240
:103C470090DF13E054F0F0AF915307EF8F9175E1D8
:103C57000490DF3BE0FFBF01F8AF9B5307FC8F9B4E
:103C6700AFE95307EF8FE990FAE87404F02290FA6E
:103C7700EBE4F0A3F090FAE2F0A3E4F090FAE4F0BA
:103C8700A3E4F053C6C7759D00859E9E439E048599
:103C9700A9A943B90190FAE87404F0756B00756C33
:103CA70000756D0490F6E275F0001248DA12259956
:103CB700D2A87591D175E900751400439A0175E191
:103CC7000490DF3BE0FFBF01F8227E007F00C3EED8
:103CD70094DCEF9405502490DF3CE0FD54506004E1
:103CE70090000122900032C007C00612444FD00650
:103CF700D00774322EFEE43FFF80D3900000228568
:103D0700821B85831C90FAEDE4F090DF02E0FD90C2
:103D1700DF3BE0FCBC130BB290C005123854D00552
:103D270080EDC29090FB05E4F090FAFBE517F0A355
:103D3700E518F090FB01E519F0A3E51AF090FAFDFC
:103D4700E515F0A3E516F090FAFFE515C39519F010
:103D5700E516951AA3F090FAFFE0FBA3E0FC8517A0
:103D67006B85186C8B828C83C0051249C3AB82AC00
:103D770083D00590FB03EB2515F0EC3516A3F0E592
:103D87001545167040851B82851C83E0FB7C008BE4
:103D9700158C1690DF04E0FA530203BA0002801470
:103DA700BA01028003023E3574012BF515E43CF598
:103DB70016023E35051BE4B51B02051C90DF02E524
:103DC70015F0023E3590DF04E0FC530403BC00020B
:103DD7008028BC015985156B85166C756D01756E4C
:103DE70000851B82851C83C0051243F2D005AC15E4
:103DF700851B82851C83ECF08034E5174518700419
:103E0700E516602490FB03E0FBA3E090DF02EBF0F4
:103E170090DF04E054FCF0E0FC90DF0474024CF007
:103E270090FB057401F0800690DF02E515F0D2A83B
:103E370090FB06E0FC20E303023F2290DF04E0FC56
:103E4700530403BC010690FAED7401F090FAEDE01B
:103E5700FC251BF582E4351CF58385156B85166CEF
:103E6700C005C0041246E2AA82AB83D004D00590F5
:103E7700FB06E0F9530104B90433EC251BF8E435DC
:103E87001CF990FB06E0FF74F05FF56588618962B5
:103E97008A638B6488828983C005C004C003C0021B
:103EA700124709D002D003D004D0058031EC251B7E
:103EB700FEE4351CFF90FB06E0F974F059F56A8EB5
:103EC700668F678A688B698E828F83C005C004C03E
:103ED70003C00212471ED002D003D004D005EC6005
:103EE7002290FB06E0FF5307F0BF500B851B82852E
:103EF7001C837410F080248A07851B82851C83EF3E
:103F0700F0801890FB06E0FF5307F0BF500890DFE2
:103F1700027410F0800590DF02EAF0851B12851C01
:103F27001390FAF9E4F0A3F075E1037E607FEA905D
:103F3700DF3BE0FCBC1302801C1EBEFF011FEE4FDF
:103F47006013B290C007C006C005123854D005D020
:103F570006D00780DAD290EE4F700690FAEF74130E
:103F6700F090DF3BE0FFBF130BB290C0051238544F
:103F7700D00580EDC29090DF02EDF075820122D26C
:103F8700A8756B00756C00756D0290F6E275F00010
:103F97001248DA90FAE2E4F0A3F090FAE4F0A3E42E
:103FA700F090FAE6F090FAE77401F090F6E1E4F0A9
:103FB700AF9B5307FC8F9BAFE95307EF8FE975E181
:103FC7000290DF3BE0FFBF0DF84391102290FB0703
:103FD7007401F02290FB07E4F022C0E0C082C083A6
:103FE700C007C006C005C004C003C002C001C000AE
:103FF700C0D075D00090FAEE7411F0C28990DF3B03
:10400700E0FFBF0D028003024114D29090FAF4E062
:10401700FF602790FAF5E0FEA3E0FF90FAF5E024B1
:10402700FFFCA3E034FFFD90FAF5ECF0A3EDF0EF11
:10403700700890DF04E054FCFFF090FAE87402F097
:1040470090F6E1E025E0FEE424E2FFEE34F6FE9090
:10405700F6E1E025E024E2FDE434FAFC8D828C836E
:10406700E0FAA3E0FB74012AF8E43BF98D828C8324
:10407700E8F0A3E9F0EA2FF582EB3EF583E5D9F006
:1040870090F6E1E025E024E2F582E434FAF583E0F6
:10409700FEA3E0FF54FE701790F6E1E025E024E26E
:1040A700F582E434FAF583E0FEA3E0FF4E70179043
:1040B700F6E1E025E0FF24E2F582E434FAF58374C3
:1040C700FFF0A37401F090FAF5E0FEA3E0FF4E6065
:1040D700030241D090FAF4E0FF70030241D090FA56
:1040E700F7E0FEA3E0FF90FAF5EEF0A3EFF090FA09
:1040F700F5E0FEA3E090DF02EEF090DF04E054FC71
:10410700F0E0FF90DF0474024FF00241D090DF3BF4
:10411700E0FFBF130280030241D090FB05E0FF7070
:10412700030241A990FAF9E0FEA3E0FF90FAFDE04F
:10413700FCA3E0FDEEB50443EFB5053F90FAFBE0C5
:10414700FEA3E0FF4E603490FAFBE0FEA3E0FFBE63
:10415700FF05BF0002801490FAFBE024FFFEA3E0F6
:1041670034FFFF90FAFBEEF0A3EFF090FB01E0FEC7
:10417700A3E0FF90FAF9EEF0A3EFF090FB03E0FE67
:10418700A3E0FF90FB03E024FFFCA3E034FFFD90D6
:10419700FB03ECF0A3EDF0EF700890DF04E054FCB4
:1041A700FFF090FAE87403F090FAF9E0FEA3E0FF5D
:1041B70090FAF9E02401F0A3E03400F0EE2512F5BF
:1041C70082EF3513F583E0F5D9D0D0D000D001D0F8
:1041D70002D003D004D005D006D007D083D082D038
:1041E700E032C020C0E0C0F0C082C083C007C00674
:1041F700C005C004C003C002C001C000C0D075D054
:10420700007F0090FAEE7410F0AE9B5306FC8E9B75
:10421700E5E94214E5E930E02090FAE9E0FDA3E0A2
:104227008D067D00AB9C7C0090FAEBED4BF0EE4CDD
:10423700A3F0AEE95306FE8EE9E5E9547070030278
:1042470043A390FAE8E0FEBE030AAE1453068F8E2E
:104257001402439C90F6E1E0FEB40100E43324E647
:10426700F582E434FAF583E0FEBE010280030243DF
:104277007C90FB06E0FE20E10302435790DF04E059
:10428700FE530603BE01027F0190FB06E0FE5306C4
:1042970001BE016090F6E1E025E0FDE424E2FEEDD9
:1042A70034F6FD8F037C00EB2EFEEC3DFD90F6E12E
:1042B700E0F929FAE424E2F9EA34F6FAEB29F561A0
:1042C700EC3AF56290F6E1E025E024E2F582E43489
:1042D700FAF583E0F9A3E0FAE9C39BF563EA9CF5F5
:1042E7006490FB06E0FC74F05CF5658E828D8312AA
:1042F7004709805C90F6E1E025E0FDE424E2FEED6D
:1043070034F6FD7C00EF2EFEEC3DFD90F6E1E02556
:10431700E0FAE424E2FBEA34F6FAEF2BF566EC3A2E
:10432700F56790F6E1E025E024E2F582E434FAF55A
:1043370083E0FAA3E0FBEAC39FF568EB9CF569907D
:10434700FB06E0FF74F05FF56A8E828D8312471ECD
:1043570090F6E1E06401F090F6E1E025E0FF24E269
:10436700F582E434FAF583E4F0A3F090FAE6F090EE
:10437700FAE7F0801E90FAEF7412F0B29090F6E12F
:10438700E025E0FF24E2F582E434FAF583E4F0A3C4
:10439700F0B290C290AFE95307CF8FE9E5E930E675
:1043A7001490FAEF7410F0B290123BD5B290AFE9C7
:1043B7005307BF8FE9E5E930E71490FAEF7411F07E
:1043C700B290123BD5B290AFE953077F8FE9D0D0B7
:1043D700D000D001D002D003D004D005D006D0073A
:1043E700D083D082D0F0D0E0D02032AE82AF83AC81
:1043F7006BAD6C8C028D031CBCFF011DEA4B601F6B
:10440700E56D2CFAE56E3DFBEA2EFAEB3FFBEC2E51
:10441700F582ED3FF583E0F98A828B83F080D42221
:104D43000000000000000000000000000000000060
:044D5300000000005C
:10442700AE82AF831EBEFF011FC3E49EE464808F8C
:10443700F063F08095F0500F7C4C7D041CBCFF01AD
:104447001DEC4D70F780DD22AE82E583CE25E0CEF0
:1044570033FF1EBEFF011FC3E49EE464808FF06339
:10446700F08095F040EC22AE82AF83D2909003E8C3
:10447700C007C006124427C2909001F4124427D007
:1044870006D007151DAD1DED20E754EE30E0249052
:104497000019C007C006C005124427D29090022613
:1044A700124427C290900019124427D005D006D095
:1044B700078022900113C007C006C005124427D207
:1044C70090900032124427C290900113124427D0D3
:1044D70005D006D007EFC313CE13CEFF1D80A8C2A9
:1044E700909003E8024427AD82AE83AFF0AA6BAB8E
:1044F7006CAC6DA86EA96FE8496005757101800302
:10450700757100E5716046C000C0018D828E838F92
:10451700F0124B3FF98A828B838CF0124B3FF8E9FC
:10452700C398F570D001D000E5706010E570F572A2
:104537003395E0F573857282857383220DBD000183
:104547000E0ABA00010B18B8FF011980AA900000E3
:1045570022AFBE5307FB8FBEE5BE30E6FBAFC653A7
:1045670007B88FC6E5C620E6FB43BE04E5BE30E6C6
:10457700FB53C6C743E40C43E401D2B92243FE030D
:10458700C29022C0E0C082C083C0D090FAF0E0247D
:1045970001F0A3E03400F0A3E03400F0A3E034001E
:1045A700F0D0D0D083D082D0E032123B1185825D2B
:1045B700855DF005F07401800225E0D5F0FBF55E1E
:1045C700E55DC40354F824C9F559E434F6F55A8572
:1045D7005982855A83A3A374DFF0855982855A834C
:1045E700A3A3A374B1F0855982855A83A3A3A3A378
:1045F700A37410F0855982855A83A3A3A3A3A3A309
:10460700E054E0441DF0855982855A83A3A3A3A3F0
:10461700A3A3A3E0543F4440F0855982855A83A35E
:10462700A3A3A3A3A3A3E054FC4401F0123B118569
:10463700825F855FF005F07401800225E0D5F0FB0D
:10464700F560E55FC40354F824C9F55BE434F6F577
:104657005C855B82855C8374DFF0855B82855C8328
:10466700A374B2F0855B82855C83A3A3A3A3A37421
:1046770010F0855B82855C83A3A3A3A3A3A3E05467
:10468700E0441EF0855B82855C83A3A3A3A3A3A359
:10469700A3E054CF4410F0855B82855C83A3A3A37A
:1046A700A3A3A3A3E054FC4401F022AE82AF83E5A9
:1046B700B330E3FB855982855A838F05EDF0855921
:1046C70082855A83A37F00EEF0E55E42D6E56B450F
:1046D7006C4401F5B3E5B330E3FB22AE82AF83ACA4
:1046E7006BAD6CEC540F60158C028D030CBC000194
:1046F7000DEA2EF582EB3FF583E4F080E68C828DA0
:10470700832285616B85626C85636D85646E756FC9
:104717000085657002473385666B85676C85686DB4
:1047270085696E756F02856A700247338582718568
:104737008372E5B330E3FBE56D24F0FCE56E34FFEF
:10474700FD74505570FBE56F45704401FA740145DF
:104757006FF9E4F573F574C3E573956DE574956EBC
:10476700400122C002855982855A83E5732571FE6F
:10477700E5743572FF8E008F028A00E8F085598252
:10478700855A83A3EEF0855B82855C83A3A3E573DB
:10479700256BFEE574356CFF8E008F028A00E8F00A
:1047A700855B82855C83A3A3A37F00EEF0E560456C
:1047B7005E42D6D002EB600CECB57308EDB574041D
:1047C70089B380028AB3E5B330E3FB74102573F530
:1047D70073E43574F57402475E124883BC00030224
:1047E7004A4EEF60FA30D502B2D1E583B4FF030237
:1047F7004A64E582B4FF03024A64258340072482A2
:10480700400B024A4E2483145003024A64F582EA9D
:104817008DF0A4A8F0EA8EF0A428F8E435F0F9EBBF
:104827008DF0A428E935F0F9E433CA8FF0A429F90B
:10483700EA35F0FAEBF88EF0A429F9EA35F0FAE454
:1048470033FBEC8DF0A429F9EA35F0FAE43BFBE8F9
:104857008FF0A42AFAEB35F0FBE433CCFD8EF0A4FD
:104867002AFAEB35F0FBE43CFCED8FF0A42BFBECD4
:1048770035F0FC20E7031248B1024A2DAA82AB8328
:10488700A2F73392D16002D2F7F582ACF0E581242A
:10489700F9F8E6FD08E6FE0886F008E6A2F7339287
:0A48A700D56002D2F7F583AFF022CE
:0614BC00E478FFF6D8FD04
:1048B1007804EC700DC9CACBFCE58224F8F582D8E6
:1048C100F122782020E7111582C3E933F9EA33FA9E
:1048D100EB33FBEC33FCD8EC22AC82AD83AE6CAF96
:1048E1006DBE0004EF600C1F0FE56B1249AAA3DE39
:1048F100FADFF88C828D8322AD82AE83AFF08D70AA
:104901008E718F728D738E748F75A86BA96CAF6D5C
:1049110088058906857376857477857578A86EA96B
:104921006F8803890418B8FF0119EB4C60258D824B
:104931008E838FF0124B3FFCA3AD82AE83857682CE
:104941008577838578F0EC1249AAA38582768583E1
:0D4951007780CE8570828571838572F0229B
:10149A007914E94400601B7A01904D4378F47593FE
:1014AA00FAE493F2A308B800020593D9F4DAF275C4
:0214BA0093FF9E
:10495E00FCABF0AA83A982749EC2D1F5821248B133
:10496E00024A2D7F9E12499830D103024A4EC3EF60
:10497E009582500974FFF5F0F583F58222790012C5
:10498E004B5B89828A838BF0EC22AA82AB83A2F7DF
:10499E003392D16002D2F7F582ACF02220F71030BC
:1049AE00F6118883A88220F507F6A8837583002266
:1049BE00F280F7F022E582856BF0A4C582C0F08507
:1049CE006CF0A4D0F025F0C583856BF0A42583F59B
:1049DE008322E56B456C60467A01E56B25E0F56B4D
:1049EE00E56C334012F56CE582956BE583956C4072
:1049FE00030A80E6C3E56C13F56CE56B13F56BC328
:104A0E00E582956BF5F0E583956C4005F58385F0B1
:0F4A1E0082C3E56C13F56CE56B13F56BDAE122DF
:1014C2007800E84400600A79007593F0E4F309D8E3
:1014D200FC78F4E8440A600C790B90F000E4F0A385
:0414E200D8FCD9FA5F
:02148B00E47308
:104A2D00B98003EA13B34010EA2401FAE43BFBE436
:104A3D003CFC50047C800582BC000EBB000BBA0010
:104A4D0008E4F5F0F583F58222A2D1E582138CF00E
:104A5D0092F78B838A8222E4F583F58275F080F4D8
:104A6D00A2D11322E4F583F58275F0C0747F221272
:104A7D00488330D502B2D1BF0009BC0003024A7190
:104A8D00024A64BC0003024A4EE583B4FF0BE58283
:104A9D00B4FF03024A71024A4EE582B4FF03024A93
:104AAD0064C395835007247F400B024A4E24801423
:104ABD005003024A64F582C3ED9AEE9BEF9C4011C0
:104ACD001582C3EA33F9EB33FAEC33FBE433FC80A4
:104ADD0005E4CCCBCAF9C08275F019C3E99DEA9EF5
:104AED00EB9FEC9400D5F002802D400EE99DF9EA84
:104AFD009EFAEB9FFBEC9400FCC3B3E833F8E58220
:104B0D0033F582E58333F583C3E933F9EA33FAEB01
:104B1D0033FBEC33FC80C4B3E4F938FAE43582FBA3
:104B2D00E43583FCD082500405827C801248B102AA
:024B3D004A45E7
:0D148D00758178124B9EE582600302148683
:104B3F0020F71430F6148883A88220F507E6A8839F
:104B4F0075830022E280F7E49322E0226040F8258B
:104B5F0082500274FFF582E824F8501ECCCBCAF9BC
:104B6F00E4CC24F85014CBCAF9E4CB24F8500BCA88
:104B7F00F9E4CA24F8500379002224086010F8C31E
:104B8F00EC13FCEB13FBEA13FAE913F9D8F12275D6
:034B9F008200226F
:00000001FF
