:0614000002148D023FAF53
:01140B0032AE
:0114130032A6
:01141B00329E
:011423003296
:01142B00328E
:0314330002396C0F
:01143B00327E
:011443003276
:03144B00024558FF
:031453000217512C
:03145B00021A1A58
:011463003256
:03146B000239EF54
:011473003246
:01147B00323E
:031483000241B76C
:0314EB0002148662
:051486001226B980FEF2
:1014EE00AE82AF8375E10490DF3BE0FDBD01F89065
:1014FE00DF06EEF075E10290DF3BE0FFBF0DF82254
:10150E007E007F0090F007E0FCA3E0FD8E028F03CB
:10151E00C3EA9CEB9D503AEE2415FCEF34F0FD909F
:10152E00F005E0F56BA3E0F56C8A828B83C007C0F3
:10153E0006C005C0041249AEAA82AB83D004D00502
:10154E00D006D0078C828D83EAF00EBE00B60F80D7
:10155E00B322AF82E59CC39FF59CE59C24FAF59CD3
:10156E00439E10D2BA22AF9E5307EF8F9E22AE82B9
:10157E00AF83E50824D65006904B70023A1D90F0CA
:10158E0011E075F029A4FD2487F582E434F3F58388
:10159E00E508F0ED2487FDE434F3FC0DBD00010CED
:1015AE007B008E6B8F6C756D0085086E756F008D70
:1015BE00828C838BF01248C790F011E0FF0F90F0F1
:1015CE0011EFF0BF0500400590F011E4F022AE825D
:1015DE00AF8390F000E0FD601CBD01028017904BC0
:1015EE008AC007C006123A1D90F000E0F582123A4A
:1015FE0050D006D007C007C006121574D006D0070B
:10160E0090F009E4F0A3F090F009E0FCA3E0FD8C6B
:10161E00828D83C007C0061216EFD006D00790DF6A
:10162E003BE0FDBD0DF890DF3AE0FD53057FBD6058
:10163E0000402F90F009E0FCA3E0FD0CBC00010D72
:10164E0090F009ECF0A3EDF0D29190000AC007C023
:10165E00061243F5C29190000A1243F5D006D00748
:10166E0080A590F0007402F090FAF0E0FAA3E0FB8F
:10167E00A3E0A3E090F00BEAF0A3EBF090F00FEEF6
:10168E00F0A3EFF02290F000E4F090FAF0E0FCA36B
:10169E00E0FDA3E0A3E090F00BECF0A3EDF02290C0
:1016AE00F0007404F090FAF0E0FCA3E0FDA3E0A3D8
:1016BE00E090F00BECF0A3EDF02290F0007405F04A
:1016CE0090F013E4F0A3F090FAF0E0FCA3E0FDA399
:1016DE00E0A3E090F00BECF0A3EDF07582000215A4
:1016EE0060AE82AF83EE2415F582EF34F0F583E021
:1016FE00FF7E008F828E830214EEAE82AF8390F354
:10170E0085EEF0A3EFF0222290F009E0FEA3E0FFB9
:10171E000EBE00010F90F009EEF0A3EFF0C3EE94B1
:10172E0070EF9403400790F009E4F0A3F090F009F5
:10173E00E0FEA3E0FFEE2415F582EF34F0F583E032
:10174E00F58222C020C0E0C0F0C082C083C007C0B6
:10175E0006C005C004C003C002C001C000C0D075E1
:10176E00D00090FAE9E02401F0A3E03400F090F00C
:10177E0001E0FEA3E0FF90FAE9E0FCA3E0FDECB58A
:10178E00060BEDB5070790FAE9E4F0A3F090FAE93D
:10179E00E0FEA3E0FFBE0005BF0002800BBE010508
:1017AE00BF0002806802190C90FAE9E0FEA3E08EF9
:1017BE00077E00AC9C7D00EC4206ED420790F00DDA
:1017CE00EEF0A3EFF090F009E0FEA3E0FF0EBE00F6
:1017DE00010F90F009EEF0A3EFF090F007E0FCA3FC
:1017EE00E0FDC3EE9CEF9D400790F009E4F0A3F0FE
:1017FE0090DF3BE0FFBF13030219FD90F009E0FEFE
:10180E00A3E0FF8E828F831216EF0219FD90F00077
:10181E00E0FFBF050280030219FD9000191243F587
:10182E0090F454741CF090F009E0FEA3E0FF8E04D7
:10183E0090F455ECF08F0690F456EEF090F4577449
:10184E0042F090F458744CF090F4597441F090F4C6
:10185E005A7448F090F45B7442F090F45C744CF05F
:10186E0090F45D7441F090F45E7448F090F45F74FF
:10187E0042F090F460744CF090F4617441F090F486
:10188E00627448F090F4637442F090F464744CF017
:10189E0090F4657441F090F4667448F090F46774B7
:1018AE0042F090F468744CF090F4697441F090F446
:1018BE006A7448F090F46B7442F090F46C744CF0CF
:1018CE0090F46D7441F090F46E7448F090F46F746F
:1018DE0020F075151CE4F516F517F518F519F51A1F
:1018EE0090F455123CD490F013E0FEA3E0FF0EBE30
:1018FE0000010F90F013EEF0A3EFF00219FD90F03F
:10190E0000E0FFBF03028065BF04028008BF05022E
:10191E0080030219FD90F00BE0FEA3E0FF90FAF0B9
:10192E00E0FAA3E0FBA3E0FCA3E0FD8E008F01E450
:10193E00FEFFEAC398FAEB99FBEC9EFCED9FFDC30C
:10194E0074649AE49BE49CE49D5022904BB8123A46
:10195E001D90F0007405F090FAF0E0FCA3E0FDA3FA
:10196E00E0FEA3E0FF90F00BECF0A3EDF090F01290
:10197E00E075F029A42487FEE434F3FF8E828F8372
:10198E00E0606CB2919000191243F590F012E07580
:10199E00F029A42487FEE434F3FF90DF04E0540121
:1019AE00FDB40100E4332EFDE43FFC8E828F83E014
:1019BE00FE8E15E4F516F517F518F519F51A8D8244
:1019CE008C83123CD490F012E0FF75F029A424878A
:1019DE00F582E434F3F583E4F00F90F012EFF0BFEC
:1019EE000500400590F012E4F0904BD6123A1DD04F
:1019FE00D0D000D001D002D003D004D005D006D074
:101A0E0007D083D082D0F0D0E0D020323290F000D8
:101A1E00E4F090F011F090F012F090F009F0A3E4E1
:101A2E00F090F0057453F0A3E4F090F0077453F0C7
:101A3E00A3E4F090F00DF0A3E4F090F00BF0A3E42B
:101A4E00F090F0017406F0A3E4F090F003F0A3E43C
:101A5E00F090F00FF0A3E4F090F013F0A3E4F01286
:101A6E00150E90F000E4F0759DDC859E9E439E045D
:101A7E0043CB1022021A1B901E60122BC890FAF054
:101A8E00E4F0A3F0A3F0A3F0021A8290F000E0FFBE
:101A9E00BF0003021D76BF0103021C61BF020302D9
:101AAE001B6DBF0303021D76BF0403021D76BF0527
:101ABE0003021D57BF40028006BF410280372275C8
:101ACE00E10490DF3BE0FFBF01F890DF0374E5F027
:101ADE0090DF047404F090DF077412F090DF08E4D6
:101AEE00F090DF147410F090DF17E0FF44C0F09018
:101AFE00F0007441F07F0090F013E0FDA3E0FE8F44
:101B0E00037C00C3EB9DEC9E502F90DF06EFF0752B
:101B1E00E10290DF3BE0FEBE0DF8900002C007121E
:101B2E0043F5D007EF24E2FDE434F6FE90DF3AE011
:101B3E00FC8D828E83F00F80BE75E10490DF3BE05A
:101B4E00FFBF01F890F013E0FEA3E08E3275330074
:101B5E007531017534E27535F67582430226EBE573
:101B6E00147003021C5A90FAEE740DF0AF9A5307DC
:101B7E00FE8F9AE51420E403021C5A90F0007403C1
:101B8E00F090FAEBE0FEA3E08E82121560904BE42B
:101B9E00123A1D90FAEBE0FEA3E0FF8E828F8312C5
:101BAE003A6B90F6E1E025E0FEE424E2FFEE34F637
:101BBE00FE8F828E83123A1D90F6E1E0FFB4010093
:101BCE00E433FF24E6FDE434FAFE8D828E83E0706A
:101BDE007490DF04E0FE30E0378F05ED2DFEE4FD5E
:101BEE0024E2F582EE34F6F583E0FC8C3275330098
:101BFE00ED24E2FDEE34F6FE74012DF534E43EF5EF
:101C0E0035753101758242C0071226EBD007802848
:101C1E0090DF02E0FE8E327533008F05ED2DFEE46F
:101C2E0024E2FDEE34F6FE8D348E3575310175826B
:101C3E0042C0071226EBD007EF24E6F582E434FA11
:101C4E00F5837401F0AF145307EF8F14751400432E
:101C5E009A0122E5147003021D5090FAEE740DF0F5
:101C6E00AF9A5307FE8F9AE51420E403021D50909D
:101C7E00F6E1E0FFB40100E433FF904BF9C0071228
:101C8E003A1DD007EF2FFEE4FF24E2FCEE34F6FD02
:101C9E008C828D83C007C006123A6BD006D007EF38
:101CAE0024E2FFEE34F6FE8F828E83123A1D90F6FA
:101CBE00E1E0FFB40100E433FF24E6FDE434FAFE74
:101CCE008D828E83E0707490DF04E0FE30E0378FFB
:101CDE0005ED2DFEE4FD24E2F582EE34F6F583E00B
:101CEE00FC8C32753300ED24E2FDEE34F6FE740109
:101CFE002DF534E43EF535753101758242C007127B
:101D0E0026EBD007802890DF02E0FE8E327533007E
:101D1E008F05ED2DFEE424E2FDEE34F6FE8D348EBD
:101D2E0035753101758242C0071226EBD007EF24BC
:101D3E00E6F582E434FAF5837401F0AF145307EF3D
:101D4E008F14751400439A012290F013E0FEA3E065
:101D5E00FF90F007E0FCA3E0FDC3EE9CEF9D500169
:101D6E002290F0007404F022E51470012290FAEE35
:101D7E00740DF0E514543070012290F6E1E0FFB4DA
:101D8E000100E433FF24E6FDE434FAFE8D828E83F7
:101D9E00E06003021E2B90DF04E0FE30E0378F057B
:101DAE00ED2DFEE4FD24E2F582EE34F6F583E0FC43
:101DBE008C32753300ED24E2FDEE34F6FE74012D07
:101DCE00F534E43EF535753101758242C0071226B1
:101DDE00EBD007803B90FAF4E0FE600A90FAF7E051
:101DEE00FDA3E0FE800890DF02E0FCFD7E008F0385
:101DFE00EB2BFCE424E2FBEC34F6FC8B348C3575D7
:101E0E0031018D328E33758242C0071226EBD00718
:101E1E00EF24E6F582E434FAF5837401F0AF14533F
:101E2E0007CF8F1422E58290F470F090F6B7E0544D
:101E3E00FDF090F6B3E0FF90F6B4E0F53190F4705B
:101E4E00E0FE8E32753300850B34850C358F8202A1
:101E5E0026EB90F6AEE0FEA3E0FF90F6B3E0FDBDFC
:101E6E00420280030223FC90F6B4E0FDBD020302A1
:101E7E001F45BD0303022107BD0503021FDEBD067C
:101E8E0003022090BD07030220A6BD08030220B561
:101E9E00BD09030220DEBD10030221DCBD110302C9
:101EAE00224BBD1203022270BD13030222C7BD14C2
:101EBE00030222E4BD15030222F3BD160302232CF6
:101ECE00BD170302212BBD1803022236BD200302CB
:101EDE00236FBD21030223E4BD220302234BBD2346
:101EEE0003022294BD24030222AFBD40028008BD2E
:101EFE00410280310223F2C007C006121574D006CB
:101F0E00D00790F0007440F08E828F83E0FD7C004D
:101F1E0090F013EDF0A3ECF08E0B8F0C7582011286
:101F2E001E330223FC90F000E4F08E0B8F0C7582B2
:101F3E0001121E330223FC90F000E06009904C1356
:101F4E00123A1D0223FC8E828F83E0FDA3AE82AF78
:101F5E00837C008E828F83E0FBA3AE82AF838B02E5
:101F6E00E42DFDEA3CFC90F471EDF0A3ECF08E82D2
:101F7E008F83E0FBA3AE82AF837A008E828F83E0E5
:101F8E00F9A3AE82AF8389008801E42BF517E93AF5
:101F9E00F5188E828F83E0FBA3AE82AF837A008E1C
:101FAE00828F83E0F9A3AE82AF8389008801E42B90
:101FBE00F519E93AF51A8D158C168E828F83123C1F
:101FCE00D4750B71750CF4758201121E330223FC4D
:101FDE008E828F83E0FDA3AE82AF8390FAF7EDF091
:101FEE00A3E4F08E828F83E0FC7D0090FAF7E0FA96
:101FFE00A3E0FB90FAF7ED2AF0EC3BA3F090FAF792
:10200E00E0FCA3E0FD4C604590FAF47401F090FA08
:10201E00F5E0FCA3E0FD4C704A123C0C90FAF7E0A0
:10202E00FCA3E0FD90FAF5ECF0A3EDF090FAF5E0EC
:10203E00FCA3E090DF02ECF090DF04E054FCF0E053
:10204E00FD90DF0474024DF0123BC8801690FAF436
:10205E00E4F090FAF5F0A3E4F090FAF7F0A3E4F0D0
:10206E00123C0C90F6B3E0FD90F6B4E0F531753409
:10207E00F77535FA7532017533008D821226EB0233
:10208E0023FC8E828F83E090FB06F08E0B8F0C75F7
:10209E008201121E330223FC750B06750CFB758232
:1020AE0001121E330223FC90FB06E0FD74F05DF579
:1020BE006C756B068E828F83C007C006124680D069
:1020CE0006D0078E0B8F0C758210121E330223FC66
:1020DE0090FB06E0FD74F05DF56C756B048E828FDF
:1020EE0083C007C006124680D006D0078E0B8F0C19
:1020FE00758210121E330223FC8E828F83E0FD7CCC
:10210E00008D828C83C007C006121708D006D00738
:10211E008E0B8F0C758201121E330223FC8E828F62
:10212E0083E0FDA3AE82AF838D047D0090F471EC4D
:10213E00F0A3EDF0C374299CE49D5015904B7012E2
:10214E003A1D750B71750CF4758201121E33022344
:10215E00FC90F011E075F029A4FB2487F9E434F328
:10216E00FA89828A83E06015904C38123A1D750BFD
:10217E0071750CF4758201121E330223FC8C0089DA
:10218E00828A83E8F0EB2487FBE434F3FA0BBB007E
:10219E00010A8B017B008E6B8F6C756D008C6E8DC2
:1021AE006F89828A838BF01248C790F011E0FD0D83
:1021BE0090F011EDF0BD0500400590F011E4F075C2
:1021CE000B71750CF4758201121E330223FC8E8284
:1021DE008F83E0FD7C0090F005EDF0A3ECF090F025
:1021EE0005E0FAA3E0FBC374709D74039C402A744F
:1021FE00022EFEE43FFF8E6B8F6C756D008A6E8B28
:10220E006F90F01575F0001248C7750B05750CF040
:10221E00758202121E330223FC750B59750C4C7518
:10222E008208121E330223FC90F005E0FCA3E07539
:10223E000B15750CF08C82121E330223FC1217162E
:10224E007C008C831216EF90F009E0FCA3E0FDEC0D
:10225E002415F50BED34F0F50C758201121E3302C8
:10226E0023FC8E828F83E0FD7C008D828C83C007E1
:10227E00C0061214EED006D0078E0B8F0C7582019D
:10228E00121E330223FC758200C007C006121560B1
:10229E00D006D0078E0B8F0C758201121E330223CF
:1022AE00FCC007C006121574D006D0078E0B8F0C1B
:1022BE00758201121E330223FC8E828F83E0FD7C19
:1022CE000090F001EDF0A3ECF08E0B8F0C758201F7
:1022DE00121E330223FC750B01750CF0758204126D
:1022EE001E330223FC7C007DF07B008E828F83E008
:1022FE00F97A00896B8A6C756D00756E15756F00B5
:10230E008C828D838BF0C007C0061248C7D006D0D2
:10231E00078E0B8F0C758215121E330223FC90FA5A
:10232E00E9E0FCA3E0FD90F003ECF0A3EDF0750BFB
:10233E0000750CF0758215121E330223FC8E828FEF
:10234E0083E0FD7C008D828C83C007C0061215DCF5
:10235E00D006D0078E0B8F0C758201121E3302230E
:10236E00FC90FAF0E0FAA3E0FBA3E0A3E090F00B00
:10237E00EAF0A3EBF08E828F83E0FD90F000F090F8
:10238E00F000E0FCED24FA4041EC2C2C90239E73DF
:10239E000223B00223B00223B00223CA0223CA02D0
:1023AE0023BDC007C006121574D006D007801BC00F
:1023BE0007C0061216C8D006D007800E758200C060
:1023CE0007C006121560D006D0078E0B8F0C7582D3
:1023DE0001121E338018750B00750CF075820112F8
:1023EE001E33800A8E0B8F0C758201121E339000E5
:1023FE0000222290F6BCE0FFBF014290F69CE0FE68
:10240E00A3E0FF90F6BFE0FCA3E0FD90F69FE0FA9C
:10241E00A3E0FBEA4B6004790180027900E9601DBC
:10242E008E828F83E0F9A3AE82AF838C828D83E997
:10243E00F0A3AC82AD831ABAFF011B80D690F6A52D
:10244E00E054FDF090DE11E04408F02285820D8507
:10245E00830E85F00F124B0DFC20E70302259574B9
:10246E0001250DFAE4350EFBAC0F8A828B838CF0BE
:10247E00124B0DFC601EBC0102802BBC0202803D83
:10248E00BC03028078BC0403022538BCFE0302257F
:10249E005402259575360275370090FAEE75F000E8
:1024AE0012298A02259590DE00E0FC7B0075382803
:1024BE007539008C828B831229E9022595740225C9
:1024CE000DFAE4350EFBAC0F8A828B838CF0124B27
:1024DE000DFAA3124B0DFB7406250DF8E4350EF91B
:1024EE00AC0F888289838CF0124B0DF538A3124BFA
:1024FE000DF5398A828B831229E9022595AA0DAB37
:10250E000EAC0F7406250DF8E4350EF9AF0F888268
:10251E0089838FF0124B0DF536A3124B0DF5378ACA
:10252E00828B838CF012298A805D90F69CE0FDA34D
:10253E00E0FEA3E0FF7538107539008D828E838F13
:10254E00F01229E980417402250DFDE4350EFEAF2F
:10255E000F756B61756C4C756D80756E04756F00C3
:10256E008D828E838FF01244BCE5828583F045F018
:10257E006012D29190012C1243F5C29190012C124F
:10258E0043F5800375C9839000002290DF2FE4F09D
:10259E0090DF30F090DF31F090DF00740CF090DFC0
:1025AE0001744EF090DF0274FFF090DF037440F080
:1025BE0090DF04E4F090DF05F090DF06F090DF0787
:1025CE007406F090DF08E4F090DF097424F090DFD9
:1025DE000A743AF090DF0B74F1F090DF0C74CAF0CD
:1025EE0090DF0D74A3F090DF0E7401F090DF0F7486
:1025FE0023F090DF107411F090DF117436F090DF3D
:10260E00127407F090DF13743FF090DF147418F01B
:10261E0090DF157417F090DF16746CF090DF17745E
:10262E0003F090DF187440F090DF197491F090DF92
:10263E001A7456F090DF1B7410F090DF1C74E9F0E2
:10264E0090DF1D742AF090DF1EE4F090DF1F741FE0
:10265E00F090DF237488F090DF247431F090DF2542
:10266E007409F090DF2E74C0F090DF07740CF090B8
:10267E00DF097425F090DF0A7495F090DF0B745526
:10268E00F090DF1A74B6F090DF1B7410F090DF1C20
:10269E0074EAF090DF1D742AF090DF1EE4F090DFF4
:1026AE001F741FF0221245260245521226B3123A0B
:1026BE00B512457F122953123C43121A85122984F2
:1026CE00D2AF122826D2919000021243F5C29190F9
:0D26DE00000A1243F5123822121A9980F8F2
:104B700046485353786D6974206D6573736167653A
:104B800020746F6F206C6F6E67004648535320731C
:104B90007461746520656E746572696E672053591F
:104BA0004E4348494E472066726F6D2077726F6E94
:104BB000672073746174650053594E43485F4D41DB
:104BC00053544552202D3E2053594E43494E474D94
:104BD00041535445520046485353786D69742064DC
:104BE0006F6E65006E6574776F726B207061636BBA
:104BF00065742873796E6329006E6574776F726BC4
:104C0000207061636B657428646973636F76657285
:104C1000792900637261702C20706C656173652066
:104C20007573652046485353786D69742829206947
:104C30006E737465616421007374696C6C207761B4
:104C40006974696E67206F6E20746865206C61738B
:104C500074207061636B6574004E4F204445414C75
:064C6000005253544E0007
:1026EB00AF827E0190DE0E7405F0E5324533700348
:1026FB000228227C107D2790DE11E0FB30E00D904C
:10270B00FAEF7401F01CBCFF011D80EBEC4D701453
:10271B00D2919000641243F5C2919000641243F57C
:10272B0090FFFF22BE012F7E0090DE2A7440F0EF57
:10273B00F0E531F0AC327D0090DE2AECF0E533F0C1
:10274B00C3743B9532E4953350067C3B7D00801A75
:10275B00AC32AD338014C374409532E495335006DC
:10276B007C407D008004AC32AD337480252842D68A
:10277B00852582852683AA34AB358B01E9F0852527
:10278B0082852683A3EAF0852582852683A3A374FD
:10279B00DEF0852582852683A3A3A3742AF08525E5
:1027AB0082852683A3A3A3A3A3ECFBF085258285B7
:1027BB002683A3A3A3A3E054E0F08525828526837B
:1027CB00A3A3A3A3A3A3A3E0543F4440F085258276
:1027DB00852683A3A3A3A3A3A3A3E054CFF0E5284B
:1027EB0042D6E52842D7E52855D160FAE528F452C0
:1027FB00D190DE0E7405F090DE11E0FB4401F0E5A4
:10280B0032C39CF532E5339DF533EC2534F534EDCD
:10281B003535F5350226F590000022E521700512BD
:10282B00382280F722AFBE53077F8FBE43BE809006
:10283B00DE0B74F7F090DE0774FFF090DE0974FF87
:10284B00F0438C10AF8C5307FE8F8CD2BD439A0292
:10285B00758900C2C5758B00C2E843A90243B90252
:10286B00852582852683A3A3A3A3E054E0F08525C9
:10287B0082852683A3A3A3A3A3A3E0549F4420F0A4
:10288B00852582852683A3A3A3A3A3A3A3E0440842
:10289B00F0852582852683A3A3A3A3A3A3A3E0543A
:1028AB00FC4401F090DE01E054FEF0E4F524F52247
:1028BB00F523F52190DE0EE4F090DE107404F09019
:1028CB00DE137404F090F6A6E4F090F6A5F090F603
:1028DB009AF0A3E4F090F69C7473F0A374F4F0A355
:1028EB00E4F090F69FF0A3E4F090F6A1F090F6A23E
:1028FB00F090F6A3F0A3E4F090DE0E7405F090DEFA
:10290B00107408F090DE137408F090DE12E044802F
:10291B00F090F6B8E4F090F6B7F090F6ACF0A3E4D4
:10292B00F090F6AE7493F0A374F4F0A3E4F090F689
:10293B00B1F0A3E4F090F6B3F090F6B4F090F6B5E6
:10294B00F0A3E4F0439A0222123ADF85822785270F
:10295B00F005F07401800225E0D5F0FBF528E527A2
:10296B00C40354F824C9F525E434F6F52690FAEEA1
:10297B007402F043BE80022830D29022C29022AD66
:10298B0082AE83AFF090F6A6E06034D2919003E86C
:10299B001243F5C2919003E81243F5D2919003E8EC
:1029AB001243F5C2919003E81243F5D2919003E8DC
:1029BB001243F5C2919003E81243F590FFFF22906A
:1029CB00F697EDF0A3EEF0A3EFF090F69AE536F064
:1029DB00A3E537F090F6A67401F090000022AE82CA
:1029EB00AF8390F6A6E06034D2919003E81243F5E2
:1029FB00C2919003E81243F5D2919003E81243F58C
:102A0B00C2919003E81243F5D2919003E81243F57B
:102A1B00C2919003E81243F590FFFF227D0090F6E0
:102A2B0097EEF0A3EFF0A3EDF090F69AE538F0A354
:102A3B00E539F090F6A67401F0900000227F029029
:102A4B00DE0EE4F090F69AE0FDA3E0FEC374209D49
:102A5B00E49E50047C2080048D047F0A8C027B0052
:102A6B00EDC39AFDEE9BFE90F69AEDF0A3EEF08C83
:102A7B0006EE60047D0180027D00ED603690F697D6
:102A8B00E0FBA3E0FCA3E0FD8B828C838DF0124B6B
:102A9B000D90DE20F090F697E0FBA3E0FCA3E0FDA9
:102AAB000BBB00010C90F697EBF0A3ECF0A3EDF051
:102ABB001E80BE90DE11E04FF090F69AE0FEA3E090
:102ACB00FF4E700590F6A6E4F02290F6A67402F085
:102ADB007582002290F69CE0FEA3E0FF90DE11E0F1
:102AEB00FDB40100E433FD20E0F290DE0EE4F09043
:102AFB00DE16E0FC7D0090F69FECF0A3EDF090F677
:102B0B00A5E0FB30E10A90F6A67403F090FFFF22DC
:102B1B0043030290F6A5EBF090F69FE0FAA3E0FBDF
:102B2B00C374209AE49B5018D29190012CC007C01B
:102B3B00061243F5C29190012C1243F5D006D00733
:102B4B0090F69FE0FCA3E0FDEC4D60027401FB608E
:102B5B001690DE20E0FB8E828F83F0A3AE82AF83D4
:102B6B001CBCFF011D80E1E52B452C6009852B82E8
:102B7B00852C8312148B90F69FE0FEA3E0FFC3EE2F
:102B8B009420EF9400501CE529452A600985298281
:102B9B00852A8312148B90DE11E0FF4408F090F627
:102BAB00A6E4F090DE11E04440F090F69FE0FEA327
:102BBB00E08E82F5832285822D85832E2285822FBE
:102BCB008583302275360175370090002475F040EF
:102BDB0002298AAD82AE83AFF074022DFDE43EFE76
:102BEB008D828E838FF0124B0DFDA3124B0D8D2416
:102BFB0075210122AF827D9E7E4C8D828E83A3E058
:102C0B0090F6C1F0AC6B90F6C1E0FBBBFF02803ECF
:102C1B00EBB50723EC700890F6C174FFF080E71C4E
:102C2B008D828E83E02DFDE43EFE8D828E83A3E0AC
:102C3B00FB90F6C1F080CF8D828E83E02DFDE43EBC
:102C4B00FE8D828E83A3E0FB90F6C1F080B88D825F
:102C5B008E832285823A85833B85F03C7402253A2C
:102C6B00F541E4353BF542853C4385418285428302
:102C7B008543F0124B0DF8A3124B0DF9893F7540AC
:102C8B00007401B53F06E4B5400280197402B53FEC
:102C9B0006E4B5400280247403B53F06E4B5400258
:102CAB008073022D368982756B00122BFFAE82AFBB
:102CBB0083E0FD8D3D753E00022D48898288048C92
:102CCB006B122BFFAE82AF83A3A3E0FD8D3D753E50
:102CDB00008541828542838543F0124B0DA3124B35
:102CEB000DFC7D008E828F83A3E0FB7A00ECB50395
:102CFB0006EDB5020280468541828542838543F00D
:102D0B00124B0DFCA3124B0DFD751D108C828D8388
:102D1B0012443C80E2898288048C6B122BFFAE82BA
:102D2B00AF83E0FD8D3D753E0080128982886B126A
:102D3B002BFFAE82AF83E0FD8D3D753E0074062503
:102D4B003AFBE4353BFCAD3C8B828C838DF0124B14
:102D5B000DFCA3124B0DFDC3EC953DED953E5004C0
:102D6B008C3D8D3E853D38853E398E828F83022981
:102D7B00E97F448F057E007F4090DE0EE4F090DE0D
:102D8B0011E0FC30E40D90F6A6E4F090DE11E0FBD0
:102D9B004480F0EC30E23090DE11E4F090FAEF7406
:102DAB0004F090F6A6E4F0D2919000C8C007C006DC
:102DBB00C005C0041243F5C2919000C81243F5D070
:102DCB0004D005D006D00790F6A6E0FBBB0325D2B6
:102DDB00919001F4C007C006C005C0041243F5C2B0
:102DEB00919001F41243F5D004D005D006D0079092
:102DFB00F6A6E4F090F6A6E0600302307AEC20E051
:102E0B000302307A90DE0EE4F07C00BC0800501612
:102E1B0090DE20E0FB8D828E838FF0124978A3AD7C
:102E2B0082AE830C80E5E544FF20E703022F61743B
:102E3B00605FFE6015BE2003023064BE4003022FAC
:102E4B0020BE6003022F48023064741F5FFE705275
:102E5B00AD45BD0002801CBD06028005BD0831805A
:102E6B000C90004475F040122C5E023064122BCF94
:102E7B00023064E4F54CF54D7D4C7C007B4075369F
:102E8B00027537008D828C838BF012298A02306495
:102E9B007D447C007B408D828C838BF0123A1C022C
:102EAB003064BE0120AD45BD0003023064BD0A0392
:102EBB000230647D447C007B408D828C838BF012CE
:102ECB003A1C023064BE0233AD45BD00028008BD22
:102EDB0012030230648012753602753700904C7EF7
:102EEB0075F08012298A0230647D447C007B408D12
:102EFB00828C838BF0123A1C0230647D447C007B05
:102F0B00408D828C838BF0123A1C90DE11E0FD44D5
:102F1B0020F0023064E52D452E60167439C0E07444
:102F2B002FC0E0C02DC02E90004475F0402202301F
:102F3B006490004475F04012309102306490DE11C1
:102F4B00E04420F07D447C007B408D828C838BF0B1
:102F5B00123A1C02306474605FFD6015BD200302E1
:102F6B003064BD4003023027BD600302304D023098
:102F7B0064741F5FFE7045AF45BF0103023064BF31
:102F8B000303023064BF0502800BBF0703023064EA
:102F9B00BF0917800990DE00E546F002306490000F
:102FAB004475F040122BDE0230647F447D007C4080
:102FBB008F828D838CF0123A1C023064BE0125AFD8
:102FCB0045BF0103023064BF0303023064BF11032A
:102FDB000230647F447D007C408F828D838CF012A5
:102FEB003A1C8075BE021DAF45BF0102806BBF034B
:102FFB000280667F447E007D408F828E838DF0122F
:10300B003A1C805590DE11E04420F07F447E007D19
:10301B00408F828E838DF0123A1C803DE52D452E1C
:10302B0060157440C0E07430C0E0C02DC02E90001D
:10303B004475F04022802290004475F0401230918C
:10304B0080177F447E007D408F828E838DF0123AF5
:10305B001C90DE11E0FF4420F090DE11E0FF4440B5
:10306B00F0E54A454B700890DE11E0FF4408F09004
:10307B00F6A6E0FFBF0103122A4890F6A6E0FFBFB9
:10308B000203022ADF2285824E85834F85F0501280
:10309B004B0DFC20E7030231D27401254EFAE435C7
:1030AB004FFBAC508A828B838CF0124B0DFC601E55
:1030BB00BC0102802BBC0202803DBC03028078BCA9
:1030CB000403023170BCFE0302318D0232457536AA
:1030DB000275370090FAEE75F00012298A0232451C
:1030EB0090DE00E0FC7B007538287539008C828BF4
:1030FB00831229E90232457402254EFAE4354FFB5F
:10310B00AC508A828B838CF0124B0DFAA3124B0DB1
:10311B00FB7406254EF8E4354FF9AC508882898351
:10312B008CF0124B0DF538A3124B0DF5398A828BAF
:10313B00831229E9023245AA4EAB4FAC50740625D7
:10314B004EF8E4354FF9AF50888289838FF0124BDC
:10315B000DF536A3124B0DF5378A828B838CF0124B
:10316B00298A02324590F69CE0FDA3E0FEA3E0FF26
:10317B007538107539008D828E838FF01229E90214
:10318B0032457402254EFDE4354FFEAF50756B8111
:10319B00756C4C756D80756E04756F008D828E83AA
:1031AB008FF01244BCE5828583F045F06013D29119
:1031BB0090012C1243F5C29190012C1243F502326F
:1031CB004575C98302324590F6BCE0FFBF016374BD
:1031DB0002254EFDE4354FFEAF508D828E838FF06E
:1031EB00124B0DFDA3124B0DFE90DE0EE4F090DEA4
:1031FB0016E0FC7F00751D088C828F83C007C0060C
:10320B00C005C00412443CD004D005D006D007EC56
:10321B004F60047B0180027B00EB601690DE20E0A8
:10322B00FB8D828E83F0A3AD82AE831CBCFF011F8E
:10323B0080DD90F6A5E054FDFFF09000002290F6A3
:10324B00B7E0FF30E10A90FAEF7405F090FFFF2230
:10325B0090DE0E7405F090DE16E0FE7F0090DE1718
:10326B00E0FCE42EFEEC3FFF90F6B5E0FCA3E0FDA6
:10327B004C705590F6B1E4F0A3F090DE2AE090F696
:10328B00B3F090DE2AE090F6B4F090DE2AE0FD7CFD
:10329B000090F6B5EDF0A3ECF090DE2AE0FAE4FB3B
:1032AB002DFDEA3CFC90F6B5EDF0A3ECF0EE24FC22
:1032BB00FEEF34FFFFC374049D74029C500A90F61A
:1032CB00B57404F0A37402F0E52855D1601AD291BD
:1032DB00900014C007C0061243F5C291900014125F
:1032EB0043F5D006D00780E090F6AEE0FBA3E0FC00
:1032FB00A3E090F6B1E0F551A3E0F552E5512BFBBD
:10330B00E5523CFC7480252842D685258285268390
:10331B0074DEF0852582852683A3742AF0852582A9
:10332B00852683A3A38C05EDF0852582852683A3B3
:10333B00A3A3EBF0852582852683A3A3A3A3A3A335
:10334B00A3E0543FF0852582852683A3A3A3A3A3E3
:10335B00A3A3E054CF4410F074052525FCE43526D7
:10336B00FD90DE16E08C828D83F074042525FCE441
:10337B003526FD90DE17E0FB8C828D83541FF5F014
:10338B00E054E045F0F0E5512EFCE5523FFDC374EF
:10339B00049C74029D500B7404C39551FE740295EA
:1033AB0052FFC374409EE49F501B90FAEF7406F0DB
:1033BB0090DE14E054FEF0751D108E828F83124444
:1033CB003C90FFFE22E52842D6E52842D7EE255158
:1033DB00FEEF3552FF90F6B1EEF0A3EFF0E5285576
:1033EB00D160FAE528F452D190F6B1E0FEA3E0FFEC
:1033FB0090F6B5E0FCA3E0FDC3EE9CEF9D402A9058
:10340B00F6B7E04402F090F6B5E4F0A3F090DE0ED0
:10341B007405F0AE2274BF5523FF8E228F2390DEEE
:10342B0014E054FEF09000012290DE0E7405F0AE15
:10343B002274BF5523FF8E228F2390DE14E054FE9F
:10344B00F09000002290F6B7E0FF20E1012290F609
:10345B00AEE0F555A3E0F55690F6B3E0FCBCFF02E9
:10346B00800302380B90F6B4E0FBBB8000500302E4
:10347B0037E3EB247050030237E3EB2480FA25E0AB
:10348B002A903490730234C002353B0236C10236A7
:10349B00DB0235EE0236F102371102372702374ACB
:1034AB000237E30237E30237E30237E30237E30283
:1034BB0037E3023799855582855683E0FAA38582D7
:1034CB00558583568A017A0090F6B5E9F0A3EAF0A8
:1034DB00855582855683E0F8A3858255858356886A
:1034EB0006E429F9EE3AFA90F6B5E9F0A3EAF0858D
:1034FB005582855683E0FEA38582558583568E5370
:10350B00755400E0FEE42553F553EE3554F5548520
:10351B0053558554568B3189328A338555348556AC
:10352B00358C821226EB90F6B5E4F0A3F00238034B
:10353B00855582855683E0FEA38582558583568EFD
:10354B0053755400E0FEA38582558583568E05E4A2
:10355B002553F553ED3554F554AD53AE5490F6B9A0
:10356B00EDF0A3EEF090F6B1E0FDA3E0FEED24FE4E
:10357B00F553EE34FFF554AD55AE56855357855480
:10358B0058E55745586004780180027800E86037A9
:10359B00C00490F6B9E0F8A3E0FC740128F9E43C10
:1035AB00FA90F6B9E9F0A3EAF08D828E83E0FAA3E4
:1035BB00AD82AE8388828C83EAF0155774FFB557C2
:1035CB00021558D00480BA90F6B5E0FDA3E0FE8D4D
:1035DB00348E358B317532027533008C821226EBAB
:1035EB00023803EF20E236855582855683E0FFA330
:1035FB008582558583568F53755400E0FFA38582D2
:10360B00558583568F06E4FF2553F553EE3554F558
:10361B0054AD53AE5490F6B9EDF0A3EEF090F6B571
:10362B00E0FEA3E0FF8E538F54C374409553E49593
:10363B00545006755340755400EEC39553FEEF95E9
:10364B0054FF90F6B5EEF0A3EFF0AE55AF568553A1
:10365B0057855458E5574558600479018002790025
:10366B00E96037C00490F6B9E0F8A3E0F9740128DB
:10367B00FCE439FD90F6B9ECF0A3EDF08E828F836C
:10368B00E0FDA3AE82AF8388828983EDF01557747A
:10369B00FFB557021558D00480BA90F6B5E0FEA3DB
:1036AB00E0FF8E348F358B317532027533008C828F
:1036BB001226EB02380390F6B1E0F532A3E0F533B6
:1036CB008B318555348556358C821226EB023803A7
:1036DB0075348675354C8B3175320D7533008C8294
:1036EB001226EB02380390FAF0E0FAA3E0FDA3E018
:1036FB00A3E08A348D358B317532047533008C829F
:10370B001226EB02380375346D75354C8B317532DF
:10371B00117533008C821226EB02380390F6B1E060
:10372B00F532A3E0F5338B318555348556358C82D4
:10373B001226EB9000C81243F5123AFF02380385AC
:10374B005582855683E0FFA3858255858356BF023C
:10375B0002800ABF03028011BF04118005123BC80F
:10376B00800AC291123C0C8003123BE590F6B3E049
:10377B00FF90F6B4E0F53190F6B1E0F532A3E0F549
:10378B00338555348556358F821226EB806AAD55BD
:10379B00AE567F00756B94756C4C756D80756E09AC
:1037AB00756F008D828E838FF01244BCE58285830A
:1037BB00F045F0704375C98090F6B3E0FF90F6B416
:1037CB00E0F53190F6B1E0F532A3E0F533855534F1
:1037DB008556358F821226EB90F6B3E0FF90F6B448
:1037EB00E0F53190F6B1E0F532A3E0F533855534D1
:1037FB008556358F821226EB90F6B7E054FDF022FA
:10380B00E52F45306009852F8285308312148B900C
:10381B00F6B7E054FDF022AE22AF23EE30E00D758B
:10382B0021025306FE8E228F2343BE01AE22AF230D
:10383B00EE5406602890FAEE740AF07521035306D5
:10384B00FD8E228F2390DE01E04404F090000812DD
:10385B0043F590DE01E054FBFFF075210190DE0E85
:10386B00E4F090DE11E0FF30E21A90DE11E054DB61
:10387B00FFF090F69AE4F0A3F090F69FF0A3E4F03B
:10388B0090F6A6F090DE0E7405F090DE11E0FF309E
:10389B00E52090DE11E054CFFFF090FAEF7408F0C2
:1038AB0090F6ACE4F0A3F090F6B1F0A3E4F090F650
:1038BB00B8F090DE14E0FF30E62090DE14E0549F69
:1038CB00FFF090FAEF7408F090F6ACE4F0A3F090F0
:1038DB00F6B1F0A3E4F090F6B8F0E52220E205741F
:1038EB0004B5211412283090FAEE740BF074FB55CA
:1038FB0022FEAF238E228F23E52230E411122D7C82
:10390B0074E75522FE740F5523FF8E228F23E52378
:10391B0030E62190FAEE740CF0123249AE82AF838E
:10392B00E4BE0104BF000104FFBFFF028006BF011C
:10393B0003123450AE22AF23EE54E07005EF54BDAA
:10394B00601E90FAEF7409F0751D108E828F831232
:10395B00443C74E05522FE74BD5523FF8E228F2309
:10396B0022C0E0C082C083C007C006C005C004C02F
:10397B00D075D000E5BE30E6FB90DE06E0FF7E00A2
:10398B00E5224207E52342068F228E2390DE02E0DA
:10399B00FDE4CDC4CD6DCD54F0CD6DFCED4207EC07
:1039AB0042068F228E2390DE04E025E0FCE44207E2
:1039BB00EC42068F228E23AC22AD23EE30E10F902A
:1039CB00F6B7E054FEFFF05305FD8C228D23758B6B
:1039DB0000C2E8D0D0D004D005D006D007D083D019
:1039EB0082D0E032C0E0C007C0D075D000E5BE3059
:1039FB00E6FBC2AFE58930E703752103AFBE530782
:103A0B00FC8FBE758900C2C5D2AFD0D0D007D0E035
:023A1B00322255
:104C660053444343763601444F4E53444F4E474CCC
:104C760045207230323737000000005253544E0040
:104C8600554E494D504C454D454E544544005245B0
:104C96005345545F4E4F570012010002000000209A
:104CA600501D48600001010203010A0600020000CF
:104CB600002001000902200001010080FA09040019
:104CC6000002FFFF010007058502400001070505F8
:104CD60002400001040309040C035200660043006D
:104CE60061007400180344006F006E00730020001A
:104CF60044006F006E0067006C0065000A03300018
:084D060030003700360000FF09
:103A1D00AE82AF837C007D008E028F038A828B8302
:103A2D00E493F9A3AA82AB83E960070CBC00ED0D0A
:103A3D0080EA8E348F357531F08C328D337582FE80
:103A4D000226EBE58290F6C2F07534C27535F67537
:103A5D0031F17532017533007582FE0226EBAF83AD
:103A6D00E58290F6C3F0A3EFF07534C37535F675A6
:103A7D0031F27532027533007582FE0226EBAF828C
:103A8D00AE83ADF0FC90F6C5EFF0A3EEF0A3EDF034
:103A9D00A3ECF07534C57535F67531F375320475D3
:083AAD0033007582FE0226EBD6
:0514E600E4F510F51112
:103AB5007EC97FF68FD57EC97FF68ED47ED17FF6FF
:103AC5008FD37ED17FF68ED2756B00756C18756DB0
:103AD5000090F6C975F0000248A87403B51006E415
:103AE500B51102800280047582FF22AE10AF110568
:103AF50010E4B5100205118E822290DF46E0FFBF6B
:103B0500F00E90DF47E0FFBF0D0690DF487469F0C7
:103B1500C2AF759A0075B80075A800122987AFBEA7
:103B250053077F8FBE75D69FC291020000221249AE
:103B35002CAC82AD83AEF0FFC004C005C006C00743
:103B45009037BD75F086743D1247AEAC82AD83AE3D
:103B5500F0FFE58124FCF581E4C0E0C0E074C0C05D
:103B6500E07441C0E08C828D838EF0EF124A4AAC3E
:103B750082AD83AEF0FFE58124FCF5818C828D83D7
:103B85008EF0EF12493FAC82AD83AEF090DF09EEC7
:103B9500F08D0390DF0AEBF090DF0BECF02275E17E
:103BA5000490DF3BE0FFBF01F890FAE8E0F5E19013
:103BB500FAE8E0FFBF04012290DF3BE0FFBF01020E
:103BC50080ED2290FAE8E0FFBF02012290DF13E0CA
:103BD50054F0F0E0440FF090FAE87402F0023F541C
:103BE50090FAE8E0FFBF03012290DF13E054F0F004
:103BF500E0FF440AF090FAE87403F075E10390DF02
:103C05003BE0FFBF13F82290FAE8E0FFBF04012272
:103C150090DF13E054F0F0AF915307EF8F9175E10A
:103C25000490DF3BE0FFBF01F8AF9B5307FC8F9B80
:103C3500AFE95307EF8FE990FAE87404F02290FAA0
:103C4500EBE4F0A3F090FAE2F0A3E4F090FAE4F0EC
:103C5500A3E4F053C6C7759D00859E9E439E0485CB
:103C6500A9A943B90190FAE87404F0756B00756C65
:103C750000756D0490F6E275F0001248A8122599BA
:103C8500D2A87591D175E900751400439A0175E1C3
:103C95000490DF3BE0FFBF01F8227E007F00C3EE0A
:103CA50094DCEF9405502490DF3CE0FD5450600413
:103CB50090000122900032C007C00612441DD006B4
:103CC500D00774322EFEE43FFF80D390000022859A
:103CD500821B85831C90FAEDE4F090DF02E0FD90F5
:103CE500DF3BE0FCBC130BB291C005123822D005B6
:103CF50080EDC29190FB05E4F090FAFBE517F0A387
:103D0500E518F090FB01E519F0A3E51AF090FAFD2E
:103D1500E515F0A3E516F090FAFFE515C39519F042
:103D2500E516951AA3F090FAFFE0FBA3E0FC8517D2
:103D35006B85186C8B828C83C005124991AB82AC64
:103D450083D00590FB03EB2515F0EC3516A3F0E5C4
:103D55001545167040851B82851C83E0FB7C008B16
:103D6500158C1690DF04E0FA530203BA00028014A2
:103D7500BA01028003023E0374012BF515E43CF5FC
:103D850016023E03051BE4B51B02051C90DF02E588
:103D950015F0023E0390DF04E0FC530403BC00026F
:103DA5008028BC015985156B85166C756D01756E7E
:103DB50000851B82851C83C0051243C0D005AC1548
:103DC500851B82851C83ECF08034E517451870044B
:103DD500E516602490FB03E0FBA3E090DF02EBF027
:103DE50090DF04E054FCF0E0FC90DF0474024CF03A
:103DF50090FB057401F0800690DF02E515F0D2A86E
:103E050090FB06E0FC20E303023EF090DF04E0FCBB
:103E1500530403BC010690FAED7401F090FAEDE04D
:103E2500FC251BF582E4351CF58385156B85166C21
:103E3500C005C0041246B0AA82AB83D004D0059059
:103E4500FB06E0F9530104B90433EC251BF8E4350E
:103E55001CF990FB06E0FF74F05FF56588618962E7
:103E65008A638B6488828983C005C004C003C0024D
:103E75001246D7D002D003D004D0058031EC251BE3
:103E8500FEE4351CFF90FB06E0F974F059F56A8EE7
:103E9500668F678A688B698E828F83C005C004C070
:103EA50003C0021246ECD002D003D004D005EC606A
:103EB5002290FB06E0FF5307F0BF500B851B828560
:103EC5001C837410F080248A07851B82851C83EF70
:103ED500F0801890FB06E0FF5307F0BF500890DF15
:103EE500027410F0800590DF02EAF0851B12851C34
:103EF5001390FAF9E4F0A3F075E1037E607FEA9090
:103F0500DF3BE0FCBC1302801C1EBEFF011FEE4F11
:103F15006013B291C007C006C005123822D005D083
:103F250006D00780DAD291EE4F700690FAEF74133F
:103F3500F090DF3BE0FFBF130BB291C005123822B2
:103F4500D00580EDC29190DF02EDF075820122D29D
:103F5500A8756B00756C00756D0290F6E275F00042
:103F65001248A890FAE2E4F0A3F090FAE4F0A3E492
:103F7500F090FAE6F090FAE77401F090F6E1E4F0DB
:103F8500AF9B5307FC8F9BAFE95307EF8FE975E1B3
:103F95000290DF3BE0FFBF0DF84391102290FB0735
:103FA5007401F02290FB07E4F022C0E0C082C083D8
:103FB500C007C006C005C004C003C002C001C000E0
:103FC500C0D075D00090FAEE7411F0C28990DF3B35
:103FD500E0FFBF0D0280030240E2D29190FAF4E0C7
:103FE500FF602790FAF5E0FEA3E0FF90FAF5E024E4
:103FF500FFFCA3E034FFFD90FAF5ECF0A3EDF0EF44
:10400500700890DF04E054FCFFF090FAE87402F0C9
:1040150090F6E1E025E0FEE424E2FFEE34F6FE90C2
:10402500F6E1E025E024E2FDE434FAFC8D828C83A0
:10403500E0FAA3E0FB74012AF8E43BF98D828C8356
:10404500E8F0A3E9F0EA2FF582EB3EF583E5D9F038
:1040550090F6E1E025E024E2F582E434FAF583E028
:10406500FEA3E0FF54FE701790F6E1E025E024E2A0
:10407500F582E434FAF583E0FEA3E0FF4E70179075
:10408500F6E1E025E0FF24E2F582E434FAF58374F5
:10409500FFF0A37401F090FAF5E0FEA3E0FF4E6097
:1040A5000302419E90FAF4E0FF700302419E90FAEC
:1040B500F7E0FEA3E0FF90FAF5EEF0A3EFF090FA3B
:1040C500F5E0FEA3E090DF02EEF090DF04E054FCA3
:1040D500F0E0FF90DF0474024FF002419E90DF3B59
:1040E500E0FFBF1302800302419E90FB05E0FF70D5
:1040F5000302417790FAF9E0FEA3E0FF90FAFDE0B4
:10410500FCA3E0FDEEB50443EFB5053F90FAFBE0F7
:10411500FEA3E0FF4E603490FAFBE0FEA3E0FFBE95
:10412500FF05BF0002801490FAFBE024FFFEA3E028
:1041350034FFFF90FAFBEEF0A3EFF090FB01E0FEF9
:10414500A3E0FF90FAF9EEF0A3EFF090FB03E0FE99
:10415500A3E0FF90FB03E024FFFCA3E034FFFD9008
:10416500FB03ECF0A3EDF0EF700890DF04E054FCE6
:10417500FFF090FAE87403F090FAF9E0FEA3E0FF8F
:1041850090FAF9E02401F0A3E03400F0EE2512F5F1
:1041950082EF3513F583E0F5D9D0D0D000D001D02A
:1041A50002D003D004D005D006D007D083D082D06A
:1041B500E032C020C0E0C0F0C082C083C007C006A6
:1041C500C005C004C003C002C001C000C0D075D086
:1041D500007F0090FAEE7410F0AE9B5306FC8E9BA8
:1041E500E5E94214E5E930E02090FAE9E0FDA3E0D5
:1041F5008D067D00AB9C7C0090FAEBED4BF0EE4C10
:10420500A3F0AEE95306FE8EE9E5E95470700302AA
:10421500437190FAE8E0FEBE030AAE1453068F8E92
:104225001402436A90F6E1E0FEB40100E43324E6AB
:10423500F582E434FAF583E0FEBE01028003024311
:104245004A90FB06E0FE20E10302432590DF04E0EF
:10425500FE530603BE01027F0190FB06E0FE5306F6
:1042650001BE016090F6E1E025E0FDE424E2FEED0B
:1042750034F6FD8F037C00EB2EFEEC3DFD90F6E160
:10428500E0F929FAE424E2F9EA34F6FAEB29F561D2
:10429500EC3AF56290F6E1E025E024E2F582E434BB
:1042A500FAF583E0F9A3E0FAE9C39BF563EA9CF527
:1042B5006490FB06E0FC74F05CF5658E828D8312DC
:1042C50046D7805C90F6E1E025E0FDE424E2FEEDD2
:1042D50034F6FD7C00EF2EFEEC3DFD90F6E1E02589
:1042E500E0FAE424E2FBEA34F6FAEF2BF566EC3A61
:1042F500F56790F6E1E025E024E2F582E434FAF58D
:1043050083E0FAA3E0FBEAC39FF568EB9CF56990AF
:10431500FB06E0FF74F05FF56A8E828D831246EC32
:1043250090F6E1E06401F090F6E1E025E0FF24E29B
:10433500F582E434FAF583E4F0A3F090FAE6F09020
:10434500FAE7F0801E90FAEF7412F0B29190F6E160
:10435500E025E0FF24E2F582E434FAF583E4F0A3F6
:10436500F0B291C291AFE95307CF8FE9E5E930E6A5
:104375001490FAEF7410F0B291123BA3B291AFE929
:104385005307BF8FE9E5E930E71490FAEF7411F0B0
:10439500B291123BA3B291AFE953077F8FE9D0D019
:1043A500D000D001D002D003D004D005D006D0076C
:1043B500D083D082D0F0D0E0D02032AE82AF83ACB3
:1043C5006BAD6C8C028D031CBCFF011DEA4B601F9D
:1043D500E56D2CFAE56E3DFBEA2EFAEB3FFBEC2E84
:1043E500F582ED3FF583E0F98A828B83F080D42254
:104D0E000000000000000000000000000000000095
:044D1E000000000091
:1043F500AE82AF831EBEFF011FC3E49EE464808FBF
:10440500F063F08095F0500F7C4C7D041CBCFF01DF
:104415001DEC4D70F780DD22AE82E583CE25E0CE22
:1044250033FF1EBEFF011FC3E49EE464808FF0636B
:10443500F08095F040EC22AE82AF83D2919003E8F4
:10444500C007C0061243F5C2919001F41243F5D09E
:1044550006D007151DAD1DED20E754EE30E0249084
:104465000019C007C006C0051243F5D29190022677
:104475001243F5C2919000191243F5D005D006D02C
:10448500078022900113C007C006C0051243F5D26C
:10449500919000321243F5C2919001131243F5D069
:1044A50005D006D007EFC313CE13CEFF1D80A8C2DB
:1044B500919003E80243F5AD82AE83AFF0AA6BABF2
:1044C5006CAC6DA86EA96FE8496005757101800334
:1044D500757100E5716046C000C0018D828E838FC5
:1044E500F0124B0DF98A828B838CF0124B0DF8E993
:1044F500C398F570D001D000E5706010E570F572D5
:104505003395E0F573857282857383220DBD0001B5
:104515000E0ABA00010B18B8FF011980AA90000015
:1045250022AFBE5307FB8FBEE5BE30E6FBAFC653D9
:1045350007B88FC6E5C620E6FB43BE04E5BE30E6F8
:10454500FB53C6C743E40C43E401D2B92243FE033F
:10455500C29122C0E0C082C083C0D090FAF0E024AE
:1045650001F0A3E03400F0A3E03400F0A3E0340050
:10457500F0D0D0D083D082D0E032123ADF85825D90
:10458500855DF005F07401800225E0D5F0FBF55E50
:10459500E55DC40354F824C9F559E434F6F55A85A4
:1045A5005982855A83A3A374DFF0855982855A837E
:1045B500A3A3A374B1F0855982855A83A3A3A3A3AA
:1045C500A37410F0855982855A83A3A3A3A3A3A33B
:1045D500E054E0441DF0855982855A83A3A3A3A323
:1045E500A3A3A3E0543F4440F0855982855A83A391
:1045F500A3A3A3A3A3A3E054FC4401F0123ADF85CF
:10460500825F855FF005F07401800225E0D5F0FB3F
:10461500F560E55FC40354F824C9F55BE434F6F5A9
:104625005C855B82855C8374DFF0855B82855C835A
:10463500A374B2F0855B82855C83A3A3A3A3A37453
:1046450010F0855B82855C83A3A3A3A3A3A3E05499
:10465500E0441EF0855B82855C83A3A3A3A3A3A38B
:10466500A3E054CF4410F0855B82855C83A3A3A3AC
:10467500A3A3A3A3E054FC4401F022AE82AF83E5DB
:10468500B330E3FB855982855A838F05EDF0855953
:1046950082855A83A37F00EEF0E55E42D6E56B4541
:1046A5006C4401F5B3E5B330E3FB22AE82AF83ACD6
:1046B5006BAD6CEC540F60158C028D030CBC0001C6
:1046C5000DEA2EF582EB3FF583E4F080E68C828DD2
:1046D500832285616B85626C85636D85646E756FFC
:1046E5000085657002470185666B85676C85686D19
:1046F50085696E756F02856A7002470185827185CD
:104705008372E5B330E3FBE56D24F0FCE56E34FF21
:10471500FD74505570FBE56F45704401FA74014511
:104725006FF9E4F573F574C3E573956DE574956EEE
:10473500400122C002855982855A83E5732571FEA1
:10474500E5743572FF8E008F028A00E8F085598284
:10475500855A83A3EEF0855B82855C83A3A3E5730D
:10476500256BFEE574356CFF8E008F028A00E8F03C
:10477500855B82855C83A3A3A37F00EEF0E560459E
:104785005E42D6D002EB600CECB57308EDB574044F
:1047950089B380028AB3E5B330E3FB74102573F562
:1047A50073E43574F57402472C124851BC000302BA
:1047B5004A1CEF60FA30D502B2D1E583B4FF03029B
:1047C5004A32E582B4FF03024A3225834007248238
:1047D500400B024A1C2483145003024A32F582EA34
:1047E5008DF0A4A8F0EA8EF0A428F8E435F0F9EBF2
:1047F5008DF0A428E935F0F9E433CA8FF0A429F93E
:10480500EA35F0FAEBF88EF0A429F9EA35F0FAE486
:1048150033FBEC8DF0A429F9EA35F0FAE43BFBE82B
:104825008FF0A42AFAEB35F0FBE433CCFD8EF0A42F
:104835002AFAEB35F0FBE43CFCED8FF0A42BFBEC06
:1048450035F0FC20E70312487F0249FBAA82AB83BF
:10485500A2F73392D16002D2F7F582ACF0E581245C
:10486500F9F8E6FD08E6FE0886F008E6A2F73392B9
:0A487500D56002D2F7F583AFF02200
:0614BC00E478FFF6D8FD04
:10487F007804EC700DC9CACBFCE58224F8F582D818
:10488F00F122782020E7111582C3E933F9EA33FAD0
:10489F00EB33FBEC33FCD8EC22AC82AD83AE6CAFC8
:1048AF006DBE0004EF600C1F0FE56B124978A3DE9D
:1048BF00FADFF88C828D8322AD82AE83AFF08D70DC
:1048CF008E718F728D738E748F75A86BA96CAF6D8F
:1048DF0088058906857376857477857578A86EA99E
:1048EF006F8803890418B8FF0119EB4C60258D827E
:1048FF008E838FF0124B0DFCA3AD82AE8385768233
:10490F008577838578F0EC124978A3858276858345
:0D491F007780CE8570828571838572F022CD
:10149A007914E94400601B7A01904D0E78F4759333
:1014AA00FAE493F2A308B800020593D9F4DAF275C4
:0214BA0093FF9E
:10492C00FCABF0AA83A982749EC2D1F58212487F97
:10493C000249FB7F9E12496630D103024A1CC3EF29
:10494C009582500974FFF5F0F583F58222790012F7
:10495C004B2989828A838BF0EC22AA82AB83A2F743
:10496C003392D16002D2F7F582ACF02220F71030EE
:10497C00F6118883A88220F507F6A8837583002298
:10498C00F280F7F022E582856BF0A4C582C0F08539
:10499C006CF0A4D0F025F0C583856BF0A42583F5CD
:1049AC008322E56B456C60467A01E56B25E0F56B7F
:1049BC00E56C334012F56CE582956BE583956C40A4
:1049CC00030A80E6C3E56C13F56CE56B13F56BC35A
:1049DC00E582956BF5F0E583956C4005F58385F0E4
:0F49EC0082C3E56C13F56CE56B13F56BDAE12212
:1014C2007800E84400600A79007593F0E4F309D8E3
:1014D200FC78F4E8440A600C790B90F000E4F0A385
:0414E200D8FCD9FA5F
:02148B00E47308
:1049FB00B98003EA13B34010EA2401FAE43BFBE469
:104A0B003CFC50047C800582BC000EBB000BBA0042
:104A1B0008E4F5F0F583F58222A2D1E582138CF040
:104A2B0092F78B838A8222E4F583F58275F080F40A
:104A3B00A2D11322E4F583F58275F0C0747F2212A4
:104A4B00485130D502B2D1BF0009BC0003024A3F26
:104A5B00024A32BC0003024A1CE583B4FF0BE58219
:104A6B00B4FF03024A3F024A1CE582B4FF03024A29
:104A7B0032C395835007247F400B024A1C248014B9
:104A8B005003024A32F582C3ED9AEE9BEF9C401124
:104A9B001582C3EA33F9EB33FAEC33FBE433FC80D6
:104AAB0005E4CCCBCAF9C08275F019C3E99DEA9E27
:104ABB00EB9FEC9400D5F002802D400EE99DF9EAB6
:104ACB009EFAEB9FFBEC9400FCC3B3E833F8E58252
:104ADB0033F582E58333F583C3E933F9EA33FAEB34
:104AEB0033FBEC33FC80C4B3E4F938FAE43582FBD6
:104AFB00E43583FCD082500405827C8012487F020F
:024B0B004A134B
:0D148D00758178124B6CE5826003021486B5
:104B0D0020F71430F6148883A88220F507E6A883D1
:104B1D0075830022E280F7E49322E0226040F825BD
:104B2D0082500274FFF582E824F8501ECCCBCAF9EE
:104B3D00E4CC24F85014CBCAF9E4CB24F8500BCABA
:104B4D00F9E4CA24F8500379002224086010F8C350
:104B5D00EC13FCEB13FBEA13FAE913F9D8F1227508
:034B6D00820022A1
:00000001FF
