:0600000002008D022BEB53
:01000B0032C2
:0100130032BA
:01001B0032B2
:0100230032AA
:01002B0032A2
:0300330002258A19
:01003B003292
:01004300328A
:03004B000231A1DE
:0300530002035D48
:03005B0002062674
:01006300326A
:03006B0002260D5D
:01007300325A
:01007B003252
:03008300022DF358
:0300EB000200868A
:050086001212D780FEFC
:1000EE00AE82AF83C2A0C2A4D2A375E10490DF3B5F
:1000FE00E0FDBD01F890DF06EEF0C2A0D2A4C2A3CF
:10010E0075E10290DF3BE0FFBF0DF8227E007F001D
:10011E0090F007E0FCA3E0FD8E028F03C3EA9CEB98
:10012E009D503AEE2415FCEF34F0FD90F005E0F50D
:10013E006BA3E0F56C8A828B83C007C006C005C036
:10014E00041235F7AA82AB83D004D005D006D007AF
:10015E008C828D83EAF00EBE00B60F80B322AF8282
:10016E00E59CC39FF59CE59C24FAF59C439E10D21A
:10017E00BA22AF9E5307EF8F9E22AE82AF83E50861
:10018E0024D650069037B902263B90F011E075F058
:10019E0029A4FD2487F582E434F3F583E508F0ED18
:1001AE002487FDE434F3FC0DBD00010C7B008E6B47
:1001BE008F6C756D0085086E756F008D828C838BCC
:1001CE00F012351090F011E0FF0F90F011EFF0BF2C
:1001DE000500400590F011E4F022AE82AF8390F05E
:1001EE0000E0FD601CBD010280179037D3C007C030
:1001FE000612263B90F000E0F58212266ED006D055
:10020E0007C007C006120180D006D00790F009E49F
:10021E00F0A3F090F009E0FCA3E0FD8C828D83C08A
:10022E0007C0061202FBD006D00790DF3BE0FDBDF3
:10023E000DF890DF3AE0FD53057FBD6000402F9032
:10024E00F009E0FCA3E0FD0CBC00010D90F009EC00
:10025E00F0A3EDF0D29190000AC007C00612303123
:10026E00C29190000A123031D006D00780A590F0CE
:10027E00007402F090FAF0E0FAA3E0FBA3E0A3E032
:10028E0090F00BEAF0A3EBF090F00FEEF0A3EFF08E
:10029E002290F000E4F090FAF0E0FCA3E0FDA3E081
:1002AE00A3E090F00BECF0A3EDF02290F0007404BC
:1002BE00F090FAF0E0FCA3E0FDA3E0A3E090F00BD9
:1002CE00ECF0A3EDF02290F0007405F090F013E442
:1002DE00F0A3F090FAF0E0FCA3E0FDA3E0A3E09021
:1002EE00F00BECF0A3EDF075820002016CAE82AF64
:1002FE0083EE2415F582EF34F0F583E0FF7E008F58
:10030E00828E830200EEAE82AF8390F385EEF0A371
:10031E00EFF0222290F009E0FEA3E0FF0EBE0001F6
:10032E000F90F009EEF0A3EFF0C3EE9470EF94038C
:10033E00400790F009E4F0A3F090F009E0FEA3E08E
:10034E00FFEE2415F582EF34F0F583E0F58222C03E
:10035E0020C0E0C0F0C082C083C007C006C005C088
:10036E0004C003C002C001C000C0D075D00090FA16
:10037E00E9E02401F0A3E03400F090F001E0FEA3E8
:10038E00E0FF90FAE9E0FCA3E0FDECB5060BEDB55D
:10039E00070790FAE9E4F0A3F090FAE9E0FEA3E093
:1003AE00FFBE0005BF0002800BBE0105BF0002802C
:1003BE006802051890FAE9E0FEA3E08E077E00AC15
:1003CE009C7D00EC4206ED420790F00DEEF0A3EF9F
:1003DE00F090F009E0FEA3E0FF0EBE00010F90F0DA
:1003EE0009EEF0A3EFF090F007E0FCA3E0FDC3EE02
:1003FE009CEF9D400790F009E4F0A3F090DF3BE006
:10040E00FFBF130302060990F009E0FEA3E0FF8E82
:10041E00828F831202FB02060990F000E0FFBF05F7
:10042E0002800302060990001912303190F45474C0
:10043E001CF090F009E0FEA3E0FF8E0490F455EC62
:10044E00F08F0690F456EEF090F4577442F090F45C
:10045E0058744CF090F4597441F090F45A7448F07A
:10046E0090F45B7442F090F45C744CF090F45D7414
:10047E0041F090F45E7448F090F45F7442F090F4A2
:10048E0060744CF090F4617441F090F4627448F032
:10049E0090F4637442F090F464744CF090F46574CC
:1004AE0041F090F4667448F090F4677442F090F462
:1004BE0068744CF090F4697441F090F46A7448F0EA
:1004CE0090F46B7442F090F46C744CF090F46D7484
:1004DE0041F090F46E7448F090F46F7420F075153E
:1004EE001CE4F516F517F518F519F51A90F45512D2
:1004FE00290490F013E0FEA3E0FF0EBE00010F9062
:10050E00F013EEF0A3EFF002060990F000E0FFBF4B
:10051E0003028065BF04028008BF05028003020645
:10052E000990F00BE0FEA3E0FF90FAF0E0FAA3E0F2
:10053E00FBA3E0FCA3E0FD8E008F01E4FEFFEAC307
:10054E0098FAEB99FBEC9EFCED9FFDC374649AE464
:10055E009BE49CE49D502290380112263B90F000C3
:10056E007405F090FAF0E0FCA3E0FDA3E0FEA3E03A
:10057E00FF90F00BECF0A3EDF090F012E075F02987
:10058E00A42487FEE434F3FF8E828F83E0606CB286
:10059E009190001912303190F012E075F029A424D8
:1005AE0087FEE434F3FF90DF04E05401FDB4010054
:1005BE00E4332EFDE43FFC8E828F83E0FE8E15E445
:1005CE00F516F517F518F519F51A8D828C83122983
:1005DE000490F012E0FF75F029A42487F582E4342C
:1005EE00F3F583E4F00F90F012EFF0BF0500400535
:1005FE0090F012E4F090381F12263BD0D0D000D0ED
:10060E0001D002D003D004D005D006D007D083D0BD
:10061E0082D0F0D0E0D020323290F000E4F090F0B2
:10062E0011F090F012F090F009F0A3E4F090F005C4
:10063E007453F0A3E4F090F0077453F0A3E4F09039
:10064E00F00DF0A3E4F090F00BF0A3E4F090F001C5
:10065E007406F0A3E4F090F003F0A3E4F090F00F32
:10066E00F0A3E4F090F013F0A3E4F012011A90F06E
:10067E0000E4F0759DDC859E9E439E0443CB1022C4
:10068E00020627900A7E1217E690FAF0E4F0A3F025
:10069E00A3F0A3F002068E90F000E0FFBF0003026D
:1006AE000994BF010302087FBF020302078BBF0339
:1006BE0003020994BF0403020994BF0503020975DE
:1006CE00BF40028006BF4102803D22C2A0C2A4D21A
:1006DE00A375E10490DF3BE0FFBF01F890DF0374E8
:1006EE00E5F090DF047404F090DF077412F090DFF1
:1006FE0008E4F090DF147410F090DF17E0FF44C0B0
:10070E00F090F0007441F07F0090F013E0FDA3E054
:10071E00FE8F037C00C3EB9DEC9E503590DF06EF01
:10072E00F0C2A0D2A4C2A375E10290DF3BE0FEBEF0
:10073E000DF8900002C007123031D007EF24E2FD11
:10074E00E434F6FE90DF3AE0FC8D828E83F00F806B
:10075E00B8C2A0C2A4D2A375E10490DF3BE0FFBFF4
:10076E0001F890F013E0FEA3E08E32753300753180
:10077E00017534E27535F6758243021309E514707E
:10078E000302087890FAEE740DF0AF9A5307FE8FBD
:10079E009AE51420E40302087890F0007403F090B8
:1007AE00FAEBE0FEA3E08E8212016C90382D122639
:1007BE003B90FAEBE0FEA3E0FF8E828F8312268938
:1007CE0090F6E1E025E0FEE424E2FFEE34F6FE8F43
:1007DE00828E8312263B90F6E1E0FFB40100E433F3
:1007EE00FF24E6FDE434FAFE8D828E83E070749071
:1007FE00DF04E0FE30E0378F05ED2DFEE4FD24E250
:10080E00F582EE34F6F583E0FC8C32753300ED2480
:10081E00E2FDEE34F6FE74012DF534E43EF5357549
:10082E003101758242C007121309D007802890DF6C
:10083E0002E0FE8E327533008F05ED2DFEE424E2CC
:10084E00FDEE34F6FE8D348E35753101758242C063
:10085E0007121309D007EF24E6F582E434FAF58384
:10086E007401F0AF145307EF8F14751400439A01FF
:10087E0022E514700302096E90FAEE740DF0AF9A31
:10088E005307FE8F9AE51420E40302096E90F6E1F9
:10089E00E0FFB40100E433FF903842C00712263B5C
:1008AE00D007EF2FFEE4FF24E2FCEE34F6FD8C823F
:1008BE008D83C007C006122689D006D007EF24E22A
:1008CE00FFEE34F6FE8F828E8312263B90F6E1E029
:1008DE00FFB40100E433FF24E6FDE434FAFE8D821A
:1008EE008E83E0707490DF04E0FE30E0378F05ED0C
:1008FE002DFEE4FD24E2F582EE34F6F583E0FC8C69
:10090E0032753300ED24E2FDEE34F6FE74012DF562
:10091E0034E43EF535753101758242C00712130974
:10092E00D007802890DF02E0FE8E327533008F05EF
:10093E00ED2DFEE424E2FDEE34F6FE8D348E35759B
:10094E003101758242C007121309D007EF24E6F574
:10095E0082E434FAF5837401F0AF145307EF8F1469
:10096E00751400439A012290F013E0FEA3E0FF906D
:10097E00F007E0FCA3E0FDC3EE9CEF9D500122903A
:10098E00F0007404F022E51470012290FAEE740D5A
:10099E00F0E514543070012290F6E1E0FFB401004E
:1009AE00E433FF24E6FDE434FAFE8D828E83E060AC
:1009BE0003020A4990DF04E0FE30E0378F05ED2D8B
:1009CE00FEE4FD24E2F582EE34F6F583E0FC8C3293
:1009DE00753300ED24E2FDEE34F6FE74012DF53490
:1009EE00E43EF535753101758242C007121309D008
:1009FE0007803B90FAF4E0FE600A90FAF7E0FDA360
:100A0E00E0FE800890DF02E0FCFD7E008F03EB2B02
:100A1E00FCE424E2FBEC34F6FC8B348C35753101AE
:100A2E008D328E33758242C007121309D007EF2420
:100A3E00E6F582E434FAF5837401F0AF145307CF70
:100A4E008F1422E58290F470F090F6B7E054FDF02A
:100A5E0090F6B3E0FF90F6B4E0F53190F470E0FE5E
:100A6E008E32753300850B34850C358F8202130957
:100A7E0090F6AEE0FEA3E0FF90F6B3E0FDBD4202BD
:100A8E00800302101A90F6B4E0FDBD0203020B6360
:100A9E00BD0303020D25BD0503020BFCBD060302BB
:100AAE000CAEBD0703020CC4BD0803020CD3BD0976
:100ABE0003020CFCBD1003020DFABD1103020E69F8
:100ACE00BD1203020E8EBD1303020EE5BD1403020A
:100ADE000F02BD1503020F11BD1603020F4ABD17FB
:100AEE0003020D49BD1803020E54BD2003020F8DE3
:100AFE00BD2103021002BD2203020F69BD230302B2
:100B0E000EB2BD2403020ECDBD40028008BD4102CF
:100B1E008031021010C007C006120180D006D00727
:100B2E0090F0007440F08E828F83E0FD7C0090F098
:100B3E0013EDF0A3ECF08E0B8F0C758201120A519F
:100B4E0002101A90F000E4F08E0B8F0C75820112D9
:100B5E000A5102101A90F000E0600990385C1226DB
:100B6E003B02101A8E828F83E0FDA3AE82AF837C90
:100B7E00008E828F83E0FBA3AE82AF838B02E42DC7
:100B8E00FDEA3CFC90F471EDF0A3ECF08E828F83C5
:100B9E00E0FBA3AE82AF837A008E828F83E0F9A34F
:100BAE00AE82AF8389008801E42BF517E93AF51878
:100BBE008E828F83E0FBA3AE82AF837A008E828F0C
:100BCE0083E0F9A3AE82AF8389008801E42BF51987
:100BDE00E93AF51A8D158C168E828F8312290475BB
:100BEE000B71750CF4758201120A5102101A8E8265
:100BFE008F83E0FDA3AE82AF8390FAF7EDF0A3E40E
:100C0E00F08E828F83E0FC7D0090FAF7E0FAA3E08D
:100C1E00FB90FAF7ED2AF0EC3BA3F090FAF7E0FC2C
:100C2E00A3E0FD4C604590FAF47401F090FAF5E003
:100C3E00FCA3E0FD4C704A12283090FAF7E0FCA3BA
:100C4E00E0FD90FAF5ECF0A3EDF090FAF5E0FCA3E0
:100C5E00E090DF02ECF090DF04E054FCF0E0FD9059
:100C6E00DF0474024DF01227E6801690FAF4E4F0D9
:100C7E0090FAF5F0A3E4F090FAF7F0A3E4F012285E
:100C8E003090F6B3E0FD90F6B4E0F5317534F775BB
:100C9E0035FA7532017533008D8212130902101A5E
:100CAE008E828F83E090FB06F08E0B8F0C75820187
:100CBE00120A5102101A750B06750CFB7582011281
:100CCE000A5102101A90FB06E0FD74F05DF56C758A
:100CDE006B068E828F83C007C0061232C9D006D033
:100CEE00078E0B8F0C758210120A5102101A90FB90
:100CFE0006E0FD74F05DF56C756B048E828F83C01B
:100D0E0007C0061232C9D006D0078E0B8F0C758223
:100D1E0010120A5102101A8E828F83E0FD7C008D14
:100D2E00828C83C007C006120314D006D0078E0B28
:100D3E008F0C758201120A5102101A8E828F83E077
:100D4E00FDA3AE82AF838D047D0090F471ECF0A311
:100D5E00EDF0C374299CE49D50159037B912263BD3
:100D6E00750B71750CF4758201120A5102101A90EE
:100D7E00F011E075F029A4FB2487F9E434F3FA8925
:100D8E00828A83E0601590388112263B750B71754F
:100D9E000CF4758201120A5102101A8C0089828A93
:100DAE0083E8F0EB2487FBE434F3FA0BBB00010A73
:100DBE008B017B008E6B8F6C756D008C6E8D6F89C9
:100DCE00828A838BF012351090F011E0FD0D90F0B9
:100DDE0011EDF0BD0500400590F011E4F0750B71BA
:100DEE00750CF4758201120A5102101A8E828F83CD
:100DFE00E0FD7C0090F005EDF0A3ECF090F005E046
:100E0E00FAA3E0FBC374709D74039C402A74022EF7
:100E1E00FEE43FFF8E6B8F6C756D008A6E8B6F904C
:100E2E00F01575F000123510750B05750CF0758206
:100E3E0002120A5102101A750BA2750C387582082F
:100E4E00120A5102101A90F005E0FCA3E0750B1582
:100E5E00750CF08C82120A5102101A1203227C00B9
:100E6E008C831202FB90F009E0FCA3E0FDEC24154C
:100E7E00F50BED34F0F50C758201120A5102101AC1
:100E8E008E828F83E0FD7C008D828C83C007C0062E
:100E9E001200EED006D0078E0B8F0C758201120A4F
:100EAE005102101A758200C007C00612016CD006DE
:100EBE00D0078E0B8F0C758201120A5102101AC0C8
:100ECE0007C006120180D006D0078E0B8F0C7582DC
:100EDE0001120A5102101A8E828F83E0FD7C00905F
:100EEE00F001EDF0A3ECF08E0B8F0C758201120A5F
:100EFE005102101A750B01750CF0758204120A510D
:100F0E0002101A7C007DF07B008E828F83E0F97ACE
:100F1E0000896B8A6C756D00756E15756F008C820D
:100F2E008D838BF0C007C006123510D006D0078E09
:100F3E000B8F0C758215120A5102101A90FAE9E005
:100F4E00FCA3E0FD90F003ECF0A3EDF0750B007543
:100F5E000CF0758215120A5102101A8E828F83E0E0
:100F6E00FD7C008D828C83C007C0061201E8D0067E
:100F7E00D0078E0B8F0C758201120A5102101A9037
:100F8E00FAF0E0FAA3E0FBA3E0A3E090F00BEAF0A6
:100F9E00A3EBF08E828F83E0FD90F000F090F000D6
:100FAE00E0FCED24FA4041EC2C2C900FBC73020FA8
:100FBE00CE020FCE020FCE020FE8020FE8020FDBB9
:100FCE00C007C006120180D006D007801BC007C024
:100FDE00061202D4D006D007800E758200C007C05C
:100FEE000612016CD006D0078E0B8F0C7582011283
:100FFE000A518018750B00750CF0758201120A519A
:10100E00800A8E0B8F0C758201120A5190000022FD
:10101E002290F6BCE0FFBF014290F69CE0FEA3E0FA
:10102E00FF90F6BFE0FCA3E0FD90F69FE0FAA3E090
:10103E00FBEA4B6004790180027900E9601D8E8223
:10104E008F83E0F9A3AE82AF838C828D83E9F0A308
:10105E00AC82AD831ABAFF011B80D690F6A5E05480
:10106E00FDF090DE11E04408F02285820D85830E9E
:10107E0085F00F123756FC20E7030211B3740125D9
:10108E000DFAE4350EFBAC0F8A828B838CF012378F
:10109E0056FC601EBC0102802BBC0202803DBC03CC
:1010AE00028078BC0403021156BCFE0302117202C8
:1010BE0011B375360275370090FAEE75F000121501
:1010CE00A80211B390DE00E0FC7B0075382875395C
:1010DE00008C828B831216070211B37402250DFA4F
:1010EE00E4350EFBAC0F8A828B838CF0123756FAE6
:1010FE00A3123756FB7406250DF8E4350EF9AC0F26
:10110E00888289838CF0123756F538A3123756F53C
:10111E00398A828B831216070211B3AA0DAB0EAC5D
:10112E000F7406250DF8E4350EF9AF0F888289830A
:10113E008FF0123756F536A3123756F5378A828B53
:10114E00838CF01215A8805D90F69CE0FDA3E0FE66
:10115E00A3E0FF7538107539008D828E838FF012E3
:10116E00160780417402250DFDE4350EFEAF0F7596
:10117E006BAA756C38756D80756E04756F008D82F7
:10118E008E838FF01230F8E5828583F045F0601281
:10119E00D29190012C123031C29190012C1230312B
:1011AE00800375C9839000002290DF2FE4F090DF5A
:1011BE0030F090DF31F090DF00740CF090DF0174AE
:1011CE004EF090DF0274FFF090DF037440F090DF7A
:1011DE0004E4F090DF05F090DF06F090DF07740670
:1011EE00F090DF08E4F090DF097424F090DF0A74C9
:1011FE003AF090DF0B74F1F090DF0C74CAF090DFD0
:10120E000D74A3F090DF0E7401F090DF0F7423F0D5
:10121E0090DF107411F090DF117436F090DF1274BD
:10122E0007F090DF13743FF090DF147418F090DF26
:10123E00157417F090DF16746CF090DF177403F0CE
:10124E0090DF187440F090DF197491F090DF1A74EB
:10125E0056F090DF1B7410F090DF1C74E9F090DFF5
:10126E001D742AF090DF1EE4F090DF1F741FF090C3
:10127E00DF237488F090DF247431F090DF25740939
:10128E00F090DF2E74C0F090DF07740CF090DF0941
:10129E007425F090DF0A7495F090DF0B7455F09082
:1012AE00DF1A74B6F090DF1B7410F090DF1C74EA36
:1012BE00F090DF1D742AF090DF1EE4F090DF1F74B3
:1012CE001FF02212316202318E1212D11226D31267
:1012DE0031C812157112286D1206911215A2D2AFD5
:1012EE00121444D291900002123031C29190000A31
:0B12FE001230311224401206A580F8C7
:1037B90046485353786D6974206D65737361676505
:1037C90020746F6F206C6F6E6700464853532073E7
:1037D9007461746520656E746572696E67205359EA
:1037E9004E4348494E472066726F6D2077726F6E5F
:1037F900672073746174650053594E43485F4D41A6
:1038090053544552202D3E2053594E43494E474D5E
:1038190041535445520046485353786D69742064A6
:103829006F6E65006E6574776F726B207061636B84
:1038390065742873796E6329006E6574776F726B8E
:10384900207061636B657428646973636F76657250
:10385900792900637261702C20706C656173652031
:103869007573652046485353786D69742829206912
:103879006E737465616421007374696C6C2077617F
:103889006974696E67206F6E20746865206C617356
:1038990074207061636B6574004E4F204445414C40
:0638A900005253544E00D2
:10130900AF827E0190DE0E7405F0E532453370033D
:101319000214407C107D2790DE11E0FB30E00D9037
:10132900FAEF7401F01CBCFF011D80EBEC4D701449
:10133900D291900064123031C29190006412303120
:1013490090FFFF22BE012F7E0090DE2A7440F0EF4D
:10135900F0E531F0AC327D0090DE2AECF0E533F0B7
:10136900C3743B9532E4953350067C3B7D00801A6B
:10137900AC32AD338014C374409532E495335006D2
:101389007C407D008004AC32AD337480252842D680
:10139900852582852683AA34AB358B01E9F085251D
:1013A90082852683A3EAF0852582852683A3A374F3
:1013B900DEF0852582852683A3A3A3742AF08525DB
:1013C90082852683A3A3A3A3A3ECFBF085258285AD
:1013D9002683A3A3A3A3E054E0F085258285268371
:1013E900A3A3A3A3A3A3A3E0543F4440F08525826C
:1013F900852683A3A3A3A3A3A3A3E054CFF0E52841
:1014090042D6E52842D7E52855D160FAE528F452B5
:10141900D190DE0E7405F090DE11E0FB4401F0E599
:1014290032C39CF532E5339DF533EC2534F534EDC3
:101439003535F53502131390000022E521700512A8
:10144900244080F722AFBE53077F8FBE43BE8090F2
:10145900DE0B74F7F090DE0774FFF090DE0974FF7D
:10146900F0438C10AF8C5307FE8F8CD2BD439A0288
:10147900758900C2C5758B00C2E843A90243B90248
:10148900852582852683A3A3A3A3E054E0F08525BF
:1014990082852683A3A3A3A3A3A3E0549F4420F09A
:1014A900852582852683A3A3A3A3A3A3A3E0440838
:1014B900F0852582852683A3A3A3A3A3A3A3E05430
:1014C900FC4401F090DE01E054FEF0E4F524F5223D
:1014D900F523F52190DE0EE4F090DE107404F0900F
:1014E900DE137404F090F6A6E4F090F6A5F090F6F9
:1014F9009AF0A3E4F090F69C7473F0A374F4F0A34B
:10150900E4F090F69FF0A3E4F090F6A1F090F6A233
:10151900F090F6A3F0A3E4F090DE0E7405F090DEEF
:10152900107408F090DE137408F090DE12E0448025
:10153900F090F6B8E4F090F6B7F090F6ACF0A3E4CA
:10154900F090F6AE7493F0A374F4F0A3E4F090F67F
:10155900B1F0A3E4F090F6B3F090F6B4F090F6B5DC
:10156900F0A3E4F0439A02221226FD8582278527FB
:10157900F005F07401800225E0D5F0FBF528E52798
:10158900C40354F824C9F525E434F6F52690FAEE97
:101599007402F043BE8002144ED29022C29022AD52
:1015A90082AE83AFF090F6A6E06034D2919003E862
:1015B900123031C2919003E8123031D2919003E890
:1015C900123031C2919003E8123031D2919003E880
:1015D900123031C2919003E812303190FFFF22900E
:1015E900F697EDF0A3EEF0A3EFF090F69AE536F05A
:1015F900A3E537F090F6A67401F090000022AE82C0
:10160900AF8390F6A6E06034D2919003E8123031AE
:10161900C2919003E8123031D2919003E81230312F
:10162900C2919003E8123031D2919003E81230311F
:10163900C2919003E812303190FFFF227D0090F6AD
:1016490097EEF0A3EFF0A3EDF090F69AE538F0A34A
:10165900E539F090F6A67401F0900000227F02901F
:10166900DE0EE4F090F69AE0FDA3E0FEC374209D3F
:10167900E49E50047C2080048D047F0A8C027B0048
:10168900EDC39AFDEE9BFE90F69AEDF0A3EEF08C79
:1016990006EE60047D0180027D00ED603690F697CC
:1016A900E0FBA3E0FCA3E0FD8B828C838DF0123775
:1016B9005690DE20F090F697E0FBA3E0FCA3E0FD56
:1016C9000BBB00010C90F697EBF0A3ECF0A3EDF047
:1016D9001E80BE90DE11E04FF090F69AE0FEA3E086
:1016E900FF4E700590F6A6E4F02290F6A67402F07B
:1016F9007582002290F69CE0FEA3E0FF90DE11E0E7
:10170900FDB40100E433FD20E0F290DE0EE4F09038
:10171900DE16E0FC7D0090F69FECF0A3EDF090F66C
:10172900A5E0FB30E10A90F6A67403F090FFFF22D2
:1017390043030290F6A5EBF090F69FE0FAA3E0FBD5
:10174900C374209AE49B5018D29190012CC007C011
:1017590006123031C29190012C123031D006D007D7
:1017690090F69FE0FCA3E0FDEC4D60027401FB6084
:101779001690DE20E0FB8E828F83F0A3AE82AF83CA
:101789001CBCFF011D80E1E52B452C6009852B82DE
:10179900852C8312008B90F69FE0FEA3E0FFC3EE39
:1017A9009420EF9400501CE529452A600985298277
:1017B900852A8312008B90DE11E0FF4408F090F631
:1017C900A6E4F090DE11E04440F090F69FE0FEA31D
:1017D900E08E82F5832285822D85832E2285822FB4
:1017E9008583302275360175370090002475F040E5
:1017F9000215A8AD82AE83AFF074022DFDE43EFE62
:101809008D828E838FF0123756FDA31237568D24A1
:1018190075210122AF827DE97E388D828E83A3E016
:1018290090F6C1F0AC6B90F6C1E0FBBBFF02803EC5
:10183900EBB50723EC700890F6C174FFF080E71C44
:101849008D828E83E02DFDE43EFE8D828E83A3E0A2
:10185900FB90F6C1F080CF8D828E83E02DFDE43EB2
:10186900FE8D828E83A3E0FB90F6C1F080B88D8255
:101879008E832285823A85833B85F03C7402253A22
:10188900F541E4353BF542853C43854182854283F8
:101899008543F0123756F8A3123756F9893F754038
:1018A900007401B53F06E4B5400280197402B53FE2
:1018B90006E4B5400280247403B53F06E4B540024E
:1018C90080730219548982756B0012181DAE82AF9C
:1018D90083E0FD8D3D753E00021966898288048C7E
:1018E9006B12181DAE82AF83A3A3E0FD8D3D753E3B
:1018F900008541828542838543F0123756A312370A
:1019090056FC7D008E828F83A3E0FB7A00ECB50341
:1019190006EDB5020280468541828542838543F002
:10192900123756FCA3123756FD751D108C828D8314
:1019390012307880E2898288048C6B12181DAE827D
:10194900AF83E0FD8D3D753E0080128982886B1260
:10195900181DAE82AF83E0FD8D3D753E00740625EE
:101969003AFBE4353BFCAD3C8B828C838DF012371E
:1019790056FCA3123756FDC3EC953DED953E500438
:101989008C3D8D3E853D38853E398E828F8302168A
:10199900077F448F057E007F4090DE0EE4F090DEE5
:1019A90011E0FC30E40D90F6A6E4F090DE11E0FBC6
:1019B9004480F0EC30E23090DE11E4F090FAEF74FC
:1019C90004F090F6A6E4F0D2919000C8C007C006D2
:1019D900C005C004123031C2919000C8123031D014
:1019E90004D005D006D00790F6A6E0FBBB0325D2AC
:1019F900919001F4C007C006C005C004123031C27D
:101A0900919001F4123031D004D005D006D007905E
:101A1900F6A6E4F090F6A6E06003021C98EC20E03C
:101A290003021C9890DE0EE4F07C00BC08005016FE
:101A390090DE20E0FB8D828E838FF01235C1A3AD3D
:101A490082AE830C80E5E544FF20E703021B7F7427
:101A5900605FFE6015BE2003021C82BE4003021BAC
:101A69003EBE6003021B66021C82741F5FFE705239
:101A7900AD45BD0002801CBD06028005BD08318050
:101A89000C90004475F04012187C021C821217ED6C
:101A9900021C82E4F54CF54D7D4C7C007B4075368B
:101AA900027537008D828C838BF01215A8021C8277
:101AB9007D447C007B408D828C838BF012263A0218
:101AC9001C82BE0120AD45BD0003021C82BD0A0374
:101AD900021C827D447C007B408D828C838BF012BA
:101AE900263A021C82BE0233AD45BD00028008BD04
:101AF9001203021C8280127536027537009038C9AC
:101B090075F0801215A8021C827D447C007B408DF3
:101B1900828C838BF012263A021C827D447C007BE6
:101B2900408D828C838BF012263A90DE11E0FD44C1
:101B390020F0021C82E52D452E60167457C0E07412
:101B49001BC0E0C02DC02E90004475F04022021C3D
:101B59008290004475F040121CAF021C8290DE1185
:101B6900E04420F07D447C007B408D828C838BF0A7
:101B790012263A021C8274605FFD6015BD200302C3
:101B89001C82BD4003021C45BD6003021C6B021C84
:101B990082741F5FFE7045AF45BF0103021C82BFFF
:101BA9000303021C82BF0502800BBF0703021C82CC
:101BB900BF0917800990DE00E546F0021C829000FB
:101BC9004475F0401217FC021C827F447D007C4062
:101BD9008F828D838CF012263A021C82BE0125AFBA
:101BE90045BF0103021C82BF0303021C82BF11030C
:101BF900021C827F447D007C408F828D838CF01291
:101C0900263A8075BE021DAF45BF0102806BBF0336
:101C19000280667F447E007D408F828E838DF01224
:101C2900263A805590DE11E04420F07F447E007D05
:101C3900408F828E838DF012263A803DE52D452E08
:101C49006015745EC0E0741CC0E0C02DC02E900009
:101C59004475F04022802290004475F040121CAF78
:101C690080177F447E007D408F828E838DF01226FF
:101C79003A90DE11E0FF4420F090DE11E0FF44408D
:101C8900F0E54A454B700890DE11E0FF4408F090FA
:101C9900F6A6E0FFBF010312166690F6A6E0FFBFA5
:101CA90002030216FD2285824E85834F85F050126C
:101CB9003756FC20E703021DF07401254EFAE4357E
:101CC9004FFBAC508A828B838CF0123756FC601E16
:101CD900BC0102802BBC0202803DBC03028078BC9F
:101CE9000403021D8EBCFE03021DAB021E63753682
:101CF9000275370090FAEE75F0001215A8021E63FE
:101D090090DE00E0FC7B007538287539008C828BE9
:101D190083121607021E637402254EFAE4354FFB3F
:101D2900AC508A828B838CF0123756FAA31237563D
:101D3900FB7406254EF8E4354FF9AC508882898347
:101D49008CF0123756F538A3123756F5398A828B3B
:101D590083121607021E63AA4EAB4FAC50740625B8
:101D69004EF8E4354FF9AF50888289838FF01237E6
:101D790056F536A3123756F5378A828B838CF012C3
:101D890015A8021E6390F69CE0FDA3E0FEA3E0FF08
:101D99007538107539008D828E838FF012160702FF
:101DA9001E637402254EFDE4354FFEAF50756BCCB2
:101DB900756C38756D80756E04756F008D828E83B4
:101DC9008FF01230F8E5828583F045F06013D291E7
:101DD90090012C123031C29190012C123031021E27
:101DE9006375C983021E6390F6BCE0FFBF0163748B
:101DF90002254EFDE4354FFEAF508D828E838FF064
:101E0900123756FDA3123756FE90DE0EE4F090DE2F
:101E190016E0FC7F00751D088C828F83C007C00601
:101E2900C005C004123078D004D005D006D007EC24
:101E39004F60047B0180027B00EB601690DE20E09E
:101E4900FB8D828E83F0A3AD82AE831CBCFF011F84
:101E590080DD90F6A5E054FDFFF09000002290F699
:101E6900B7E0FF30E10A90FAEF7405F090FFFF2226
:101E790090DE0E7405F090DE16E0FE7F0090DE170E
:101E8900E0FCE42EFEEC3FFF90F6B5E0FCA3E0FD9C
:101E99004C705590F6B1E4F0A3F090DE2AE090F68C
:101EA900B3F090DE2AE090F6B4F090DE2AE0FD7CF3
:101EB9000090F6B5EDF0A3ECF090DE2AE0FAE4FB31
:101EC9002DFDEA3CFC90F6B5EDF0A3ECF0EE24FC18
:101ED900FEEF34FFFFC374049D74029C500A90F610
:101EE900B57404F0A37402F0E52855D1601AD291B3
:101EF900900014C007C006123031C291900014122C
:101F09003031D006D00780E090F6AEE0FBA3E0FCCC
:101F1900A3E090F6B1E0F551A3E0F552E5512BFBB2
:101F2900E5523CFC7480252842D685258285268386
:101F390074DEF0852582852683A3742AF08525829F
:101F4900852683A3A38C05EDF0852582852683A3A9
:101F5900A3A3EBF0852582852683A3A3A3A3A3A32B
:101F6900A3E0543FF0852582852683A3A3A3A3A3D9
:101F7900A3A3E054CF4410F074052525FCE43526CD
:101F8900FD90DE16E08C828D83F074042525FCE437
:101F99003526FD90DE17E0FB8C828D83541FF5F00A
:101FA900E054E045F0F0E5512EFCE5523FFDC374E5
:101FB900049C74029D500B7404C39551FE740295E0
:101FC90052FFC374409EE49F501B90FAEF7406F0D1
:101FD90090DE14E054FEF0751D108E828F8312304E
:101FE9007890FFFE22E52842D6E52842D7EE255112
:101FF900FEEF3552FF90F6B1EEF0A3EFF0E528556C
:10200900D160FAE528F452D190F6B1E0FEA3E0FFE1
:1020190090F6B5E0FCA3E0FDC3EE9CEF9D402A904D
:10202900F6B7E04402F090F6B5E4F0A3F090DE0EC6
:102039007405F0AE2274BF5523FF8E228F2390DEE4
:1020490014E054FEF09000012290DE0E7405F0AE0B
:102059002274BF5523FF8E228F2390DE14E054FE95
:10206900F09000002290F6B7E0FF20E1012290F6FF
:10207900AEE0F555A3E0F55690F6B3E0FCBCFF02DF
:10208900800302242990F6B4E0FBBB8000500302D0
:102099002401EB24705003022401EB2480FA25E08B
:1020A9002A9020AE730220DE0221590222DF022289
:1020B900F902220C02230F02232F0223450223686F
:1020C9000224010224010224010224010224010242
:1020D90024010223B7855582855683E0FAA38582B8
:1020E900558583568A017A0090F6B5E9F0A3EAF09E
:1020F900855582855683E0F8A38582558583568860
:1021090006E429F9EE3AFA90F6B5E9F0A3EAF08582
:102119005582855683E0FEA38582558583568E5365
:10212900755400E0FEE42553F553EE3554F5548516
:1021390053558554568B3189328A338555348556A2
:10214900358C8212130990F6B5E4F0A3F00224212C
:10215900855582855683E0FEA38582558583568EF3
:1021690053755400E0FEA38582558583568E05E498
:102179002553F553ED3554F554AD53AE5490F6B996
:10218900EDF0A3EEF090F6B1E0FDA3E0FEED24FE44
:10219900F553EE34FFF554AD55AE56855357855476
:1021A90058E55745586004780180027800E860379F
:1021B900C00490F6B9E0F8A3E0FC740128F9E43C06
:1021C900FA90F6B9E9F0A3EAF08D828E83E0FAA3DA
:1021D900AD82AE8388828C83EAF0155774FFB557B8
:1021E900021558D00480BA90F6B5E0FDA3E0FE8D43
:1021F900348E358B317532027533008C8212130996
:10220900022421EF20E236855582855683E0FFA31B
:102219008582558583568F53755400E0FFA38582C7
:10222900558583568F06E4FF2553F553EE3554F54E
:1022390054AD53AE5490F6B9EDF0A3EEF090F6B567
:10224900E0FEA3E0FF8E538F54C374409553E49589
:10225900545006755340755400EEC39553FEEF95DF
:1022690054FF90F6B5EEF0A3EFF0AE55AF56855397
:1022790057855458E557455860047901800279001B
:10228900E96037C00490F6B9E0F8A3E0F9740128D1
:10229900FCE439FD90F6B9ECF0A3EDF08E828F8362
:1022A900E0FDA3AE82AF8388828983EDF015577470
:1022B900FFB557021558D00480BA90F6B5E0FEA3D1
:1022C900E0FF8E348F358B317532027533008C8285
:1022D90012130902242190F6B1E0F532A3E0F53397
:1022E9008B318555348556358C8212130902242188
:1022F9007534D17535388B3175320D7533008C8253
:1023090012130902242190FAF0E0FAA3E0FDA3E0F8
:10231900A3E08A348D358B317532047533008C8294
:102329001213090224217534B67535388B3175328B
:10233900137533008C8212130902242190F6B1E03F
:10234900F532A3E0F5338B318555348556358C82CA
:102359001213099000C812303112271D0224218559
:102369005582855683E0FFA3858255858356BF0232
:1023790002800ABF03028011BF041180051227E6FB
:10238900800AC291122830800312280390F6B3E024
:10239900FF90F6B4E0F53190F6B1E0F532A3E0F53F
:1023A900338555348556358F82121309806AAD55A8
:1023B900AE567F00756BDF756C38756D80756E096B
:1023C900756F008D828E838FF01230F8E5828583D8
:1023D900F045F0704375C98090F6B3E0FF90F6B40C
:1023E900E0F53190F6B1E0F532A3E0F533855534E7
:1023F9008556358F8212130990F6B3E0FF90F6B433
:10240900E0F53190F6B1E0F532A3E0F533855534C6
:102419008556358F8212130990F6B7E054FDF022E4
:10242900E52F45306009852F8285308312008B9016
:10243900F6B7E054FDF022AE22AF23EE30E00D7581
:1024490021025306FE8E228F2343BE01AE22AF2303
:10245900EE5406602890FAEE740AF07521035306CB
:10246900FD8E228F2390DE01E04404F090000812D3
:10247900303190DE01E054FBFFF075210190DE0E52
:10248900E4F090DE11E0FF30E21A90DE11E054DB57
:10249900FFF090F69AE4F0A3F090F69FF0A3E4F031
:1024A90090F6A6F090DE0E7405F090DE11E0FF3094
:1024B900E52090DE11E054CFFFF090FAEF7408F0B8
:1024C90090F6ACE4F0A3F090F6B1F0A3E4F090F646
:1024D900B8F090DE14E0FF30E62090DE14E0549F5F
:1024E900FFF090FAEF7408F090F6ACE4F0A3F090E6
:1024F900F6B1F0A3E4F090F6B8F0E52220E2057415
:1025090004B5211412144E90FAEE740BF074FB55B5
:1025190022FEAF238E228F23E52230E41112199A6D
:1025290074E75522FE740F5523FF8E228F23E5236E
:1025390030E62190FAEE740CF0121E67AE82AF837A
:10254900E4BE0104BF000104FFBFFF028006BF0112
:102559000312206EAE22AF23EE54E07005EF54BD96
:10256900601E90FAEF7409F0751D108E828F831228
:10257900307874E05522FE74BD5523FF8E228F23D7
:1025890022C0E0C082C083C007C006C005C004C025
:10259900D075D000E5BE30E6FB90DE06E0FF7E0098
:1025A900E5224207E52342068F228E2390DE02E0D0
:1025B900FDE4CDC4CD6DCD54F0CD6DFCED4207ECFD
:1025C90042068F228E2390DE04E025E0FCE44207D8
:1025D900EC42068F228E23AC22AD23EE30E10F9020
:1025E900F6B7E054FEFFF05305FD8C228D23758B61
:1025F90000C2E8D0D0D004D005D006D007D083D00F
:1026090082D0E032C0E0C007C0D075D000E5BE304E
:10261900E6FBC2AFE58930E703752103AFBE530777
:10262900FC8FBE758900C2C5D2AFD0D0D007D0E02B
:0226390032224B
:1038AF005344434376360159415244535449434B91
:1038BF004F4E4520723032373700000000525354BC
:1038CF004E00554E494D504C454D454E54454400C4
:1038DF0052455345545F4E4F5700120100020000EE
:1038EF000020501D5B600001010203010A06000267
:1038FF000000002001000902200001010080FA09E8
:10390F0004000002FFFF01000705850240000107C8
:10391F000505024000010403090428034700720053
:10392F006500610074002000530063006F00740095
:10393F007400200047006100640067006500740098
:10394F0073001E0359004100520044002000530031
:10395F007400690063006B0020004F006E0065006B
:0C396F000A03300030003700360000FF73
:10263B00AE82AF837C007D008E028F038A828B83F8
:10264B00E493F9A3AA82AB83E960070CBC00ED0D00
:10265B0080EA8E348F357531F08C328D337582FE76
:10266B00021309E58290F6C2F07534C27535F67522
:10267B0031F17532017533007582FE021309AF8398
:10268B00E58290F6C3F0A3EFF07534C37535F6759C
:10269B0031F27532027533007582FE021309AF8277
:1026AB00AE83ADF0FC90F6C5EFF0A3EEF0A3EDF02A
:1026BB00A3ECF07534C57535F67531F375320475C9
:0826CB0033007582FE021309C1
:0500E600E4F510F51126
:1026D3007EC97FF68FD57EC97FF68ED47ED17FF6F5
:1026E3008FD37ED17FF68ED2756B00756C18756DA6
:1026F3000090F6C975F0000234F17403B51006E4D6
:10270300B51102800280047582FF22AE10AF11055D
:1027130010E4B5100205118E822290DF46E0FFBF60
:10272300F00E90DF47E0FFBF0D0690DF487469F0BD
:10273300C2AF759A0075B80075A8001215A5AFBE93
:1027430053077F8FBE75D69FC291020000221235B8
:1027530075AC82AD83AEF0FFC004C005C006C007F0
:102763009037BD75F086743D1233F7AC82AD83AEFE
:10277300F0FFE58124FCF581E4C0E0C0E074C0C053
:10278300E07441C0E08C828D838EF0EF123693ACFF
:1027930082AD83AEF0FFE58124FCF5818C828D83CD
:1027A3008EF0EF123588AC82AD83AEF090DF09EE88
:1027B300F08D0390DF0AEBF090DF0BECF02275E174
:1027C3000490DF3BE0FFBF01F890FAE8E0F5E19009
:1027D300FAE8E0FFBF04012290DF3BE0FFBF010204
:1027E30080ED2290FAE8E0FFBF02012290DF13E0C0
:1027F30054F0F0E0440FF090FAE87402F0022B8AF0
:1028030090FAE8E0FFBF03012290DF13E054F0F0F9
:10281300E0FF440AF090FAE87403F0D2A0C2A4C225
:10282300A375E10390DF3BE0FFBF13F82290FAE8C2
:10283300E0FFBF04012290DF13E054F0F0AF9153A7
:1028430007EF8F91C2A0C2A4D2A375E10490DF3B2E
:10285300E0FFBF01F8AF9B5307FC8F9BAFE9530722
:10286300EF8FE990FAE87404F02290FAEBE4F0A316
:10287300F090FAE2F0A3E4F090FAE4F0A3E4F0536A
:10288300C6C7759D00859E9E439E0485A9A943B92D
:102893000190FAE87404F0756B00756C00756D04B3
:1028A30090F6E275F0001234F11211B7D2A87591C7
:1028B300D175E900751400439A01C2A0C2A4D2A342
:1028C30075E10490DF3BE0FFBF01F8227E007F004B
:1028D300C3EE94DCEF9405502490DF3CE0FD5450AC
:1028E300600490000122900032C007C006123059E4
:1028F300D006D00774322EFEE43FFF80D390000051
:102903002285821B85831C90FAEDE4F090DF02E0C0
:10291300FD90DF3BE0FCBC130BB291C005122440D9
:10292300D00580EDC29190FB05E4F090FAFBE5172A
:10293300F0A3E518F090FB01E519F0A3E51AF09078
:10294300FAFDE515F0A3E516F090FAFFE515C3953A
:1029530019F0E516951AA3F090FAFFE0FBA3E0FC4B
:1029630085176B85186C8B828C83C0051235DAABA7
:1029730082AC83D00590FB03EB2515F0EC3516A351
:10298300F0E51545167040851B82851C83E0FB7CB2
:10299300008B158C1690DF04E0FA530203BA000291
:1029A3008014BA01028003022A3374012BF515E463
:1029B3003CF516022A33051BE4B51B02051C90DF08
:1029C30002E515F0022A3390DF04E0FC530403BC54
:1029D30000028028BC015985156B85166C756D0145
:1029E300756E00851B82851C83C005122FFCD005E4
:1029F300AC15851B82851C83ECF08034E5174518E4
:102A03007004E516602490FB03E0FBA3E090DF0273
:102A1300EBF090DF04E054FCF0E0FC90DF04740280
:102A23004CF090FB057401F0800690DF02E515F091
:102A3300D2A890FB06E0FC20E303022B2090DF04E6
:102A4300E0FC530403BC010690FAED7401F090FA24
:102A5300EDE0FC251BF582E4351CF58385156B85BC
:102A6300166CC005C0041232F9AA82AB83D004D01D
:102A73000590FB06E0F9530104B90433EC251BF878
:102A8300E4351CF990FB06E0FF74F05FF56588619F
:102A930089628A638B6488828983C005C004C0030A
:102AA300C002123320D002D003D004D0058031EC11
:102AB300251BFEE4351CFF90FB06E0F974F059F585
:102AC3006A8E668F678A688B698E828F83C005C022
:102AD30004C003C002123335D002D003D004D005A2
:102AE300EC602290FB06E0FF5307F0BF500B851B01
:102AF30082851C837410F080248A07851B82851CC1
:102B030083EFF0801890FB06E0FF5307F0BF5008F7
:102B130090DF027410F0800590DF02EAF0851B124B
:102B2300851C1390FAF9E4F0A3F0D2A0C2A4C2A3C7
:102B330075E1037E607FEA90DF3BE0FCBC1302801B
:102B43001C1EBEFF011FEE4F6013B291C007C006EB
:102B5300C005122440D005D006D00780DAD291EE0A
:102B63004F700690FAEF7413F090DF3BE0FFBF1352
:102B73000BB291C005122440D00580EDC29190DFC5
:102B830002EDF075820122D2A8756B00756C007599
:102B93006D0290F6E275F0001234F190FAE2E4F07F
:102BA300A3F090FAE4F0A3E4F090FAE6F090FAE7E9
:102BB3007401F090F6E1E4F0AF9B5307FC8F9BAFF9
:102BC300E95307EF8FE9C2A0D2A4C2A375E1029033
:102BD300DF3BE0FFBF0DF84391102290FB07740128
:102BE300F02290FB07E4F022C0E0C082C083C0075C
:102BF300C006C005C004C003C002C001C000C0D0ED
:102C030075D00090FAEE7411F0C28990DF3BE0FFBB
:102C1300BF0D028003022D1ED29190FAF4E0FF60F3
:102C23002790FAF5E0FEA3E0FF90FAF5E024FFFC1D
:102C3300A3E034FFFD90FAF5ECF0A3EDF0EF70089C
:102C430090DF04E054FCFFF090FAE87402F090F691
:102C5300E1E025E0FEE424E2FFEE34F6FE90F6E147
:102C6300E025E024E2FDE434FAFC8D828C83E0FA73
:102C7300A3E0FB74012AF8E43BF98D828C83E8F02E
:102C8300A3E9F0EA2FF582EB3EF583E5D9F090F660
:102C9300E1E025E024E2F582E434FAF583E0FEA3E3
:102CA300E0FF54FE701790F6E1E025E024E2F582A0
:102CB300E434FAF583E0FEA3E0FF4E701790F6E1EB
:102CC300E025E0FF24E2F582E434FAF58374FFF0B3
:102CD300A37401F090FAF5E0FEA3E0FF4E60030257
:102CE3002DDA90FAF4E0FF7003022DDA90FAF7E0A0
:102CF300FEA3E0FF90FAF5EEF0A3EFF090FAF5E013
:102D0300FEA3E090DF02EEF090DF04E054FCF0E07D
:102D1300FF90DF0474024FF0022DDA90DF3BE0FFF7
:102D2300BF13028003022DDA90FB05E0FF7003025C
:102D33002DB390FAF9E0FEA3E0FF90FAFDE0FCA3C7
:102D4300E0FDEEB50443EFB5053F90FAFBE0FEA3CB
:102D5300E0FF4E603490FAFBE0FEA3E0FFBEFF0508
:102D6300BF0002801490FAFBE024FFFEA3E034FFCF
:102D7300FF90FAFBEEF0A3EFF090FB01E0FEA3E07F
:102D8300FF90FAF9EEF0A3EFF090FB03E0FEA3E06F
:102D9300FF90FB03E024FFFCA3E034FFFD90FB0363
:102DA300ECF0A3EDF0EF700890DF04E054FCFFF0CB
:102DB30090FAE87403F090FAF9E0FEA3E0FF90FACA
:102DC300F9E02401F0A3E03400F0EE2512F582EFE0
:102DD3003513F583E0F5D9D0D0D000D001D002D09F
:102DE30003D004D005D006D007D083D082D0E03200
:102DF300C020C0E0C0F0C082C083C007C006C005C9
:102E0300C004C003C002C001C000C0D075D0007FA1
:102E13000090FAEE7410F0AE9B5306FC8E9BE5E92E
:102E23004214E5E930E02090FAE9E0FDA3E08D06E5
:102E33007D00AB9C7C0090FAEBED4BF0EE4CA3F0E5
:102E4300AEE95306FE8EE9E5E954707003022FAD37
:102E530090FAE8E0FEBE030AAE1453068F8E140206
:102E63002FA690F6E1E0FEB40100E43324E6F582F8
:102E7300E434FAF583E0FEBE01028003022F86905C
:102E8300FB06E0FE20E103022F6190DF04E0FE5326
:102E93000603BE01027F0190FB06E0FE530601BE5E
:102EA300016090F6E1E025E0FDE424E2FEED34F676
:102EB300FD8F037C00EB2EFEEC3DFD90F6E1E0F987
:102EC30029FAE424E2F9EA34F6FAEB29F561EC3A5B
:102ED300F56290F6E1E025E024E2F582E434FAF5C8
:102EE30083E0F9A3E0FAE9C39BF563EA9CF56490F8
:102EF300FB06E0FC74F05CF5658E828D8312332053
:102F0300805C90F6E1E025E0FDE424E2FEED34F69A
:102F1300FD7C00EF2EFEEC3DFD90F6E1E025E0FAAE
:102F2300E424E2FBEA34F6FAEF2BF566EC3AF567B4
:102F330090F6E1E025E024E2F582E434FAF583E05B
:102F4300FAA3E0FBEAC39FF568EB9CF56990FB06E7
:102F5300E0FF74F05FF56A8E828D8312333590F64D
:102F6300E1E06401F090F6E1E025E0FF24E2F58280
:102F7300E434FAF583E4F0A3F090FAE6F090FAE78C
:102F8300F0801E90FAEF7412F0B29190F6E1E02512
:102F9300E0FF24E2F582E434FAF583E4F0A3F0B22F
:102FA30091C291AFE95307CF8FE9E5E930E6149079
:102FB300FAEF7410F0B2911227C1B291AFE953073F
:102FC300BF8FE9E5E930E71490FAEF7411F0B2919D
:102FD3001227C1B291AFE953077F8FE9D0D0D00058
:102FE300D001D002D003D004D005D006D007D083BF
:102FF300D082D0F0D0E0D02032AE82AF83AC6BADC4
:103003006C8C028D031CBCFF011DEA4B601FE56D38
:103013002CFAE56E3DFBEA2EFAEB3FFBEC2EF58234
:0E302300ED3FF583E0F98A828B83F080D422A2
:10397B00000000000000000000000000000000003C
:04398B000000000038
:10303100AE82AF831EBEFF011FC3E49EE464808F96
:10304100F063F08095F0500F7C4C7D041CBCFF01B7
:103051001DEC4D70F780DD22AE82E583CE25E0CEFA
:1030610033FF1EBEFF011FC3E49EE464808FF06343
:10307100F08095F040EC22AE82AF83D2919003E8CC
:10308100C007C006123031C2919001F4123031D024
:1030910006D007151DAD1DED20E754EE30E024905C
:1030A1000019C007C006C005123031D29190022626
:1030B100123031C291900019123031D005D006D0B2
:1030C100078022900113C007C006C005123031D21B
:1030D10091900032123031C291900113123031D0EF
:1030E10005D006D007EFC313CE13CEFF1D80A8C2B3
:1030F100919003E8023031AD82AE83AFF0AA6BABA1
:103101006CAC6DA86EA96FE849600575710180030B
:10311100757100E5716046C000C0018D828E838F9C
:10312100F0123756F98A828B838CF0123756F8E900
:10313100C398F570D001D000E5706010E570F572AC
:103141003395E0F573857282857383220DBD00018D
:103151000E0ABA00010B18B8FF011980AA900000ED
:1031610022AFBE5307FB8FBEE5BE30E6FBAFC653B1
:1031710007B88FC6E5C620E6FB43BE04E5BE30E6D0
:10318100FB53C6C743E40C43E401D2B92243FE0F0B
:1031910043FF19C292C293C2A0C2A4D2A3C2912278
:1031A100C0E0C082C083C0D090FAF0E02401F0A357
:1031B100E03400F0A3E03400F0A3E03400F0D0D01C
:1031C100D083D082D0E0321226FD85825D855DF00C
:1031D10005F07401800225E0D5F0FBF55EE55DC4E4
:1031E1000354F824C9F559E434F6F55A8559828512
:1031F1005A83A3A374DFF0855982855A83A3A3A3BD
:1032010074B1F0855982855A83A3A3A3A3A3741033
:10321100F0855982855A83A3A3A3A3A3A3E054E015
:10322100441DF0855982855A83A3A3A3A3A3A3A315
:10323100E0543F4440F0855982855A83A3A3A3A358
:10324100A3A3A3E054FC4401F01226FD85825F850F
:103251005FF005F07401800225E0D5F0FBF560E533
:103261005FC40354F824C9F55BE434F6F55C855B6F
:1032710082855C8374DFF0855B82855C83A374B295
:10328100F0855B82855C83A3A3A3A3A37410F0855F
:103291005B82855C83A3A3A3A3A3A3E054E0441EA4
:1032A100F0855B82855C83A3A3A3A3A3A3A3E054BE
:1032B100CF4410F0855B82855C83A3A3A3A3A3A362
:1032C100A3E054FC4401F022AE82AF83E5B330E3C6
:1032D100FB855982855A838F05EDF0855982855A80
:1032E10083A37F00EEF0E55E42D6E56B456C4401B9
:1032F100F5B3E5B330E3FB22AE82AF83AC6BAD6CCB
:10330100EC540F60158C028D030CBC00010DEA2EEC
:10331100F582EB3FF583E4F080E68C828D83228594
:10332100616B85626C85636D85646E756F00856503
:103331007002334A85666B85676C85686D85696E39
:10334100756F02856A7002334A858271858372E5E1
:10335100B330E3FBE56D24F0FCE56E34FFFD745002
:103361005570FBE56F45704401FA7401456FF9E44E
:10337100F573F574C3E573956DE574956E4001229F
:10338100C002855982855A83E5732571FEE574353E
:1033910072FF8E008F028A00E8F0855982855A8378
:1033A100A3EEF0855B82855C83A3A3E573256BFEA9
:1033B100E574356CFF8E008F028A00E8F0855B8230
:1033C100855C83A3A3A37F00EEF0E560455E42D652
:1033D100D002EB600CECB57308EDB5740489B380D1
:1033E100028AB3E5B330E3FB74102573F573E4355A
:1033F10074F57402337512349ABC0003023665EF1A
:1034010060FA30D502B2D1E583B4FF0302367BE521
:1034110082B4FF0302367B258340072482400B02DE
:103421003665248314500302367BF582EA8DF0A4BD
:10343100A8F0EA8EF0A428F8E435F0F9EB8DF0A4B9
:1034410028E935F0F9E433CA8FF0A429F9EA35F017
:10345100FAEBF88EF0A429F9EA35F0FAE433FBEC43
:103461008DF0A429F9EA35F0FAE43BFBE88FF0A4EA
:103471002AFAEB35F0FBE433CCFD8EF0A42AFAEB0B
:1034810035F0FBE43CFCED8FF0A42BFBEC35F0FCBC
:1034910020E7031234C8023644AA82AB83A2F73371
:1034A10092D16002D2F7F582ACF0E58124F9F8E619
:1034B100FD08E6FE0886F008E6A2F73392D5600221
:0734C100D2F7F583AFF02202
:0600BC00E478FFF6D8FD18
:1034C8007804EC700DC9CACBFCE58224F8F582D8E3
:1034D800F122782020E7111582C3E933F9EA33FA9B
:1034E800EB33FBEC33FCD8EC22AC82AD83AE6CAF93
:1034F8006DBE0004EF600C1F0FE56B1235C1A3DE33
:10350800FADFF88C828D8322AD82AE83AFF08D70A6
:103518008E718F728D738E748F75A86BA96CAF6D59
:1035280088058906857376857477857578A86EA968
:103538006F8803890418B8FF0119EB4C60258D8248
:103548008E838FF0123756FCA3AD82AE83857682C8
:103558008577838578F0EC1235C1A38582768583DB
:0D3568007780CE8570828571838572F02298
:10009A007914E94400601B7A0190397B78F47593EE
:1000AA00FAE493F2A308B800020593D9F4DAF275D8
:0200BA0093FFB2
:10357500FCABF0AA83A982749EC2D1F5821234C82D
:103585000236447F9E1235AF30D103023665C3EF54
:103595009582500974FFF5F0F583F58222790012C2
:1035A500377289828A838BF0EC22AA82AB83A2F7D9
:1035B5003392D16002D2F7F582ACF02220F71030B9
:1035C500F6118883A88220F507F6A8837583002263
:1035D500F280F7F022E582856BF0A4C582C0F08504
:1035E5006CF0A4D0F025F0C583856BF0A42583F598
:1035F5008322E56B456C60467A01E56B25E0F56B4A
:10360500E56C334012F56CE582956BE583956C406E
:10361500030A80E6C3E56C13F56CE56B13F56BC324
:10362500E582956BF5F0E583956C4005F58385F0AE
:0F36350082C3E56C13F56CE56B13F56BDAE122DC
:1000C2007800E84400600A79007593F0E4F309D8F7
:1000D200FC78F4E8440A600C790B90F000E4F0A399
:0400E200D8FCD9FA73
:02008B00E4731C
:10364400B98003EA13B34010EA2401FAE43BFBE433
:103654003CFC50047C800582BC000EBB000BBA000D
:1036640008E4F5F0F583F58222A2D1E582138CF00B
:1036740092F78B838A8222E4F583F58275F080F4D5
:10368400A2D11322E4F583F58275F0C0747F22126F
:10369400349A30D502B2D1BF0009BC000302368887
:1036A40002367BBC0003023665E583B4FF0BE5827A
:1036B400B4FF03023688023665E582B4FF0302369E
:1036C4007BC395835007247F400B02366524801406
:1036D400500302367BF582C3ED9AEE9BEF9C4011BA
:1036E4001582C3EA33F9EB33FAEC33FBE433FC80A1
:1036F40005E4CCCBCAF9C08275F019C3E99DEA9EF2
:10370400EB9FEC9400D5F002802D400EE99DF9EA80
:103714009EFAEB9FFBEC9400FCC3B3E833F8E5821C
:1037240033F582E58333F583C3E933F9EA33FAEBFE
:1037340033FBEC33FC80C4B3E4F938FAE43582FBA0
:10374400E43583FCD082500405827C801234C802A4
:02375400365CE1
:0D008D007581781237B5E5826003020086A8
:1037560020F71430F6148883A88220F507E6A8839C
:1037660075830022E280F7E49322E0226040F82588
:1037760082500274FFF582E824F8501ECCCBCAF9B9
:10378600E4CC24F85014CBCAF9E4CB24F8500BCA85
:10379600F9E4CA24F8500379002224086010F8C31B
:1037A600EC13FCEB13FBEA13FAE913F9D8F12275D3
:0337B6008200226C
:00000001FF
